{
  "contractName": "Arbitrator",
  "abi": [
    {
      "constant": true,
      "inputs": [],
      "name": "arbitrator",
      "outputs": [
        {
          "name": "",
          "type": "address"
        }
      ],
      "payable": false,
      "stateMutability": "view",
      "type": "function"
    },
    {
      "inputs": [],
      "payable": false,
      "stateMutability": "nonpayable",
      "type": "constructor"
    }
  ],
  "bytecode": "0x608060405234801561001057600080fd5b50336000806101000a81548173ffffffffffffffffffffffffffffffffffffffff021916908373ffffffffffffffffffffffffffffffffffffffff16021790555060e98061005f6000396000f300608060405260043610603f576000357c0100000000000000000000000000000000000000000000000000000000900463ffffffff1680636cc6cde1146044575b600080fd5b348015604f57600080fd5b5060566098565b604051808273ffffffffffffffffffffffffffffffffffffffff1673ffffffffffffffffffffffffffffffffffffffff16815260200191505060405180910390f35b6000809054906101000a900473ffffffffffffffffffffffffffffffffffffffff16815600a165627a7a723058202c864b13a9f57bbda79885fa15c629394d5ac78692fa3fa39d6e664fbe39beb90029",
  "source": "pragma solidity ^0.4.24;\n\ncontract Arbitrator{\n\n    //Owner of the contract\n    //and third side who can help to solve the issue beetwen saller and buyer if needed\n    address public arbitrator;\n\n    constructor() public {\n        arbitrator = msg.sender;\n    }\n    modifier onlyOwner {\n        require(arbitrator == msg.sender, \"arbitrator is allowed only\");\n        _;\n    }\n}\n",
  "sourcePath": "D:\\programming\\blockchain\\ethereum\\car_shop\\contracts\\Arbitrator.sol",
  "compiler": {
    "name": "solc",
    "version": "0.4.25+commit.59dbf8f1.Emscripten.clang"
  },
  "schemaVersion": "2.0.2",
  "updatedAt": "2019-07-24T20:16:39.875Z"
}