{
  "contractName": "Arbitrator",
  "abi": [
    {
      "constant": true,
      "inputs": [],
      "name": "arbitrator",
      "outputs": [
        {
          "name": "",
          "type": "address"
        }
      ],
      "payable": false,
      "stateMutability": "view",
      "type": "function"
    },
    {
      "inputs": [],
      "payable": false,
      "stateMutability": "nonpayable",
      "type": "constructor"
    }
  ],
  "bytecode": "0x608060405234801561001057600080fd5b50336000806101000a81548173ffffffffffffffffffffffffffffffffffffffff021916908373ffffffffffffffffffffffffffffffffffffffff16021790555060e98061005f6000396000f300608060405260043610603f576000357c0100000000000000000000000000000000000000000000000000000000900463ffffffff1680636cc6cde1146044575b600080fd5b348015604f57600080fd5b5060566098565b604051808273ffffffffffffffffffffffffffffffffffffffff1673ffffffffffffffffffffffffffffffffffffffff16815260200191505060405180910390f35b6000809054906101000a900473ffffffffffffffffffffffffffffffffffffffff16815600a165627a7a7230582028fd40bed9fe69837de40e63796e913ff37a44736e6e9bcb778f3e7a496268a10029",
  "source": "pragma solidity ^0.4.24;\r\n\r\ncontract Arbitrator{\r\n\r\n    //Owner of the contract\r\n    //and third side who can help to solve the issue beetwen saller and buyer if needed\r\n    address public arbitrator;\r\n\r\n    constructor() public {\r\n        arbitrator = msg.sender;\r\n    }\r\n    modifier onlyOwner {\r\n        require(arbitrator == msg.sender, \"arbitrator is allowed only\");\r\n        _;\r\n    }\r\n}\r\n",
  "sourcePath": "D:\\MyProgrames\\blockchain\\ethereum\\car_shop\\contracts\\Arbitrator.sol",
  "compiler": {
    "name": "solc",
    "version": "0.4.25+commit.59dbf8f1.Emscripten.clang"
  },
  "schemaVersion": "2.0.2",
  "updatedAt": "2019-07-24T15:46:49.191Z"
}