{
  "contractName": "Arbitrator",
  "abi": [
    {
      "constant": true,
      "inputs": [],
      "name": "arbitrator",
      "outputs": [
        {
          "name": "",
          "type": "address"
        }
      ],
      "payable": false,
      "stateMutability": "view",
      "type": "function"
    },
    {
      "constant": true,
      "inputs": [],
      "name": "str",
      "outputs": [
        {
          "name": "",
          "type": "string"
        }
      ],
      "payable": false,
      "stateMutability": "view",
      "type": "function"
    },
    {
      "inputs": [],
      "payable": false,
      "stateMutability": "nonpayable",
      "type": "constructor"
    },
    {
      "constant": false,
      "inputs": [
        {
          "name": "_str",
          "type": "string"
        }
      ],
      "name": "set",
      "outputs": [],
      "payable": false,
      "stateMutability": "nonpayable",
      "type": "function"
    }
  ],
  "bytecode": "0x608060405234801561001057600080fd5b50336000806101000a81548173ffffffffffffffffffffffffffffffffffffffff021916908373ffffffffffffffffffffffffffffffffffffffff16021790555061035a806100606000396000f300608060405260043610610057576000357c0100000000000000000000000000000000000000000000000000000000900463ffffffff1680634ed3885e1461005c5780636cc6cde1146100c5578063c15bae841461011c575b600080fd5b34801561006857600080fd5b506100c3600480360381019080803590602001908201803590602001908080601f01602080910402602001604051908101604052809392919081815260200183838082843782019150505050505091929192905050506101ac565b005b3480156100d157600080fd5b506100da6101c6565b604051808273ffffffffffffffffffffffffffffffffffffffff1673ffffffffffffffffffffffffffffffffffffffff16815260200191505060405180910390f35b34801561012857600080fd5b506101316101eb565b6040518080602001828103825283818151815260200191508051906020019080838360005b83811015610171578082015181840152602081019050610156565b50505050905090810190601f16801561019e5780820380516001836020036101000a031916815260200191505b509250505060405180910390f35b80600190805190602001906101c2929190610289565b5050565b6000809054906101000a900473ffffffffffffffffffffffffffffffffffffffff1681565b60018054600181600116156101000203166002900480601f0160208091040260200160405190810160405280929190818152602001828054600181600116156101000203166002900480156102815780601f1061025657610100808354040283529160200191610281565b820191906000526020600020905b81548152906001019060200180831161026457829003601f168201915b505050505081565b828054600181600116156101000203166002900490600052602060002090601f016020900481019282601f106102ca57805160ff19168380011785556102f8565b828001600101855582156102f8579182015b828111156102f75782518255916020019190600101906102dc565b5b5090506103059190610309565b5090565b61032b91905b8082111561032757600081600090555060010161030f565b5090565b905600a165627a7a72305820602d764be0a6e01301b19ef6c340c5b8b2106b48d46034eca94e997c49d41fbd0029",
  "source": "pragma solidity ^0.4.24;\r\n\r\ncontract Arbitrator{\r\n\r\n    //Owner of the contract\r\n    //and third side who can help to solve the issue beetwen saller and buyer if needed\r\n    address public arbitrator;\r\nstring public str;\r\n    function set(string _str)public{\r\n        str = _str;\r\n    }\r\n    constructor() public {\r\n        arbitrator = msg.sender;\r\n    }\r\n    modifier onlyOwner {\r\n        require(arbitrator == msg.sender, \"arbitrator is allowed only\");\r\n        _;\r\n    }\r\n}\r\n",
  "sourcePath": "D:\\MyProgrames\\blockchain\\ethereum\\car_shop\\contracts\\Arbitrator.sol",
  "compiler": {
    "name": "solc",
    "version": "0.4.25+commit.59dbf8f1.Emscripten.clang"
  },
  "schemaVersion": "2.0.2",
  "updatedAt": "2019-07-24T14:28:41.288Z"
}