{
  "contractName": "Car",
  "abi": [
    {
      "constant": true,
      "inputs": [],
      "name": "sold",
      "outputs": [
        {
          "name": "",
          "type": "bool"
        }
      ],
      "payable": false,
      "stateMutability": "view",
      "type": "function"
    },
    {
      "constant": true,
      "inputs": [],
      "name": "model",
      "outputs": [
        {
          "name": "",
          "type": "string"
        }
      ],
      "payable": false,
      "stateMutability": "view",
      "type": "function"
    },
    {
      "constant": true,
      "inputs": [],
      "name": "owner",
      "outputs": [
        {
          "name": "",
          "type": "address"
        }
      ],
      "payable": false,
      "stateMutability": "view",
      "type": "function"
    },
    {
      "constant": true,
      "inputs": [],
      "name": "price",
      "outputs": [
        {
          "name": "",
          "type": "uint256"
        }
      ],
      "payable": false,
      "stateMutability": "view",
      "type": "function"
    },
    {
      "constant": true,
      "inputs": [],
      "name": "vin",
      "outputs": [
        {
          "name": "",
          "type": "uint256"
        }
      ],
      "payable": false,
      "stateMutability": "view",
      "type": "function"
    },
    {
      "constant": true,
      "inputs": [],
      "name": "timestamp",
      "outputs": [
        {
          "name": "",
          "type": "uint256"
        }
      ],
      "payable": false,
      "stateMutability": "view",
      "type": "function"
    },
    {
      "constant": true,
      "inputs": [],
      "name": "state",
      "outputs": [
        {
          "name": "",
          "type": "uint8"
        }
      ],
      "payable": false,
      "stateMutability": "view",
      "type": "function"
    },
    {
      "constant": true,
      "inputs": [],
      "name": "year",
      "outputs": [
        {
          "name": "",
          "type": "uint256"
        }
      ],
      "payable": false,
      "stateMutability": "view",
      "type": "function"
    },
    {
      "inputs": [
        {
          "name": "_owner",
          "type": "address"
        },
        {
          "name": "_vin",
          "type": "uint256"
        },
        {
          "name": "_model",
          "type": "string"
        },
        {
          "name": "_year",
          "type": "uint256"
        },
        {
          "name": "_price",
          "type": "uint256"
        },
        {
          "name": "_sold",
          "type": "bool"
        }
      ],
      "payable": false,
      "stateMutability": "nonpayable",
      "type": "constructor"
    },
    {
      "constant": false,
      "inputs": [
        {
          "name": "_model",
          "type": "string"
        },
        {
          "name": "_year",
          "type": "uint256"
        },
        {
          "name": "_price",
          "type": "uint256"
        }
      ],
      "name": "edit",
      "outputs": [],
      "payable": false,
      "stateMutability": "nonpayable",
      "type": "function"
    },
    {
      "constant": false,
      "inputs": [
        {
          "name": "amount",
          "type": "uint256"
        }
      ],
      "name": "buy",
      "outputs": [],
      "payable": true,
      "stateMutability": "payable",
      "type": "function"
    },
    {
      "constant": false,
      "inputs": [],
      "name": "sendDelivery",
      "outputs": [],
      "payable": false,
      "stateMutability": "nonpayable",
      "type": "function"
    },
    {
      "constant": false,
      "inputs": [
        {
          "name": "newOwner",
          "type": "address"
        }
      ],
      "name": "confirmDelivery",
      "outputs": [],
      "payable": false,
      "stateMutability": "nonpayable",
      "type": "function"
    }
  ],
  "bytecode": "0x608060405234801561001057600080fd5b50604051610ab1380380610ab1833981018060405281019080805190602001909291908051906020019092919080518201929190602001805190602001909291908051906020019092919080519060200190929190505050856000806101000a81548173ffffffffffffffffffffffffffffffffffffffff021916908373ffffffffffffffffffffffffffffffffffffffff16021790555084600181905550826002819055508160038190555083600490805190602001906100d3929190610124565b504260068190555080600560016101000a81548160ff0219169083151502179055506000600560006101000a81548160ff0219169083600381111561011457fe5b02179055505050505050506101c9565b828054600181600116156101000203166002900490600052602060002090601f016020900481019282601f1061016557805160ff1916838001178555610193565b82800160010185558215610193579182015b82811115610192578251825591602001919060010190610177565b5b5090506101a091906101a4565b5090565b6101c691905b808211156101c25760008160009055506001016101aa565b5090565b90565b6108d9806101d86000396000f3006080604052600436106100ba576000357c0100000000000000000000000000000000000000000000000000000000900463ffffffff16806302c7e7af146100bf5780630ad9d052146100ee57806317ec5c2d1461017e5780638da5cb5b146101955780639f7aee82146101ec578063a035b1fe1461022f578063aca2d4641461025a578063ae9a613714610285578063b80777ea14610302578063c19d93fb1461032d578063d96a094a14610366578063f326971614610386575b600080fd5b3480156100cb57600080fd5b506100d46103b1565b604051808215151515815260200191505060405180910390f35b3480156100fa57600080fd5b506101036103c4565b6040518080602001828103825283818151815260200191508051906020019080838360005b83811015610143578082015181840152602081019050610128565b50505050905090810190601f1680156101705780820380516001836020036101000a031916815260200191505b509250505060405180910390f35b34801561018a57600080fd5b50610193610462565b005b3480156101a157600080fd5b506101aa610527565b604051808273ffffffffffffffffffffffffffffffffffffffff1673ffffffffffffffffffffffffffffffffffffffff16815260200191505060405180910390f35b3480156101f857600080fd5b5061022d600480360381019080803573ffffffffffffffffffffffffffffffffffffffff16906020019092919050505061054c565b005b34801561023b57600080fd5b5061024461066d565b6040518082815260200191505060405180910390f35b34801561026657600080fd5b5061026f610673565b6040518082815260200191505060405180910390f35b34801561029157600080fd5b50610300600480360381019080803590602001908201803590602001908080601f01602080910402602001604051908101604052809392919081815260200183838082843782019150505050505091929192908035906020019092919080359060200190929190505050610679565b005b34801561030e57600080fd5b506103176106aa565b6040518082815260200191505060405180910390f35b34801561033957600080fd5b506103426106b0565b6040518082600381111561035257fe5b60ff16815260200191505060405180910390f35b610384600480360381019080803590602001909291905050506106c3565b005b34801561039257600080fd5b5061039b610802565b6040518082815260200191505060405180910390f35b600560019054906101000a900460ff1681565b60048054600181600116156101000203166002900480601f01602080910402602001604051908101604052809291908181526020018280546001816001161561010002031660029004801561045a5780601f1061042f5761010080835404028352916020019161045a565b820191906000526020600020905b81548152906001019060200180831161043d57829003601f168201915b505050505081565b600180600381111561047057fe5b600560009054906101000a900460ff16600381111561048b57fe5b141515610500576040517f08c379a000000000000000000000000000000000000000000000000000000000815260040180806020018281038252600f8152602001807f6e6f742076616c6964207374617465000000000000000000000000000000000081525060200191505060405180910390fd5b6002600560006101000a81548160ff0219169083600381111561051f57fe5b021790555050565b6000809054906101000a900473ffffffffffffffffffffffffffffffffffffffff1681565b600280600381111561055a57fe5b600560009054906101000a900460ff16600381111561057557fe5b1415156105ea576040517f08c379a000000000000000000000000000000000000000000000000000000000815260040180806020018281038252600f8152602001807f6e6f742076616c6964207374617465000000000000000000000000000000000081525060200191505060405180910390fd5b6003600560006101000a81548160ff0219169083600381111561060957fe5b02179055506001600560016101000a81548160ff021916908315150217905550816000806101000a81548173ffffffffffffffffffffffffffffffffffffffff021916908373ffffffffffffffffffffffffffffffffffffffff1602179055505050565b60035481565b60015481565b8160028190555080600381905550826004908051906020019061069d929190610808565b5042600681905550505050565b60065481565b600560009054906101000a900460ff1681565b60008060038111156106d157fe5b600560009054906101000a900460ff1660038111156106ec57fe5b141515610761576040517f08c379a000000000000000000000000000000000000000000000000000000000815260040180806020018281038252600f8152602001807f6e6f742076616c6964207374617465000000000000000000000000000000000081525060200191505060405180910390fd5b600354821415156107da576040517f08c379a000000000000000000000000000000000000000000000000000000000815260040180806020018281038252601c8152602001807f616d6f756e74206973206e6f7420657175616c20746f2070726963650000000081525060200191505060405180910390fd5b6001600560006101000a81548160ff021916908360038111156107f957fe5b02179055505050565b60025481565b828054600181600116156101000203166002900490600052602060002090601f016020900481019282601f1061084957805160ff1916838001178555610877565b82800160010185558215610877579182015b8281111561087657825182559160200191906001019061085b565b5b5090506108849190610888565b5090565b6108aa91905b808211156108a657600081600090555060010161088e565b5090565b905600a165627a7a723058205697c81a4b4ebfa04468ac2c821a8755be4f18a2494e6a3f27c290c1ef6d1df60029",
  "source": "pragma solidity ^0.4.24;\r\n\r\ncontract Car{\r\n\r\n    enum State  {IDLE, BUY, SEND_DELIVERY, SOLD}\r\n\r\n    address public owner;\r\n    uint public vin; // Vehicle Identification Number\r\n    uint public  year;\r\n    uint public price;\r\n    string public model;\r\n    State public state;\r\n    bool  public sold;\r\n    uint  public timestamp; //create or edit update\r\n\r\n\r\n\r\n\r\n    constructor( address _owner, uint _vin, string _model, uint _year, uint _price, bool _sold) public {\r\n        owner = _owner;\r\n        vin =   _vin;\r\n        year =  _year;\r\n        price = _price;\r\n        model = _model;\r\n        timestamp = now;\r\n        sold = _sold;\r\n        state = State.IDLE;\r\n    }\r\n\r\n\r\n    function edit( string _model, uint _year, uint _price) public {\r\n        year =  _year;\r\n        price = _price;\r\n        model = _model;\r\n        timestamp = now;\r\n    }\r\n\r\n    function buy(uint amount) isValidState(State.IDLE) public payable{\r\n\r\n        require(amount == price , \"amount is not equal to price\");\r\n\r\n        state = State.BUY;\r\n    }\r\n\r\n    function sendDelivery() isValidState(State.BUY) public{\r\n        state = State.SEND_DELIVERY;\r\n    }\r\n\r\n    function confirmDelivery(address newOwner) isValidState(State.SEND_DELIVERY) public{\r\n        state = State.SOLD;\r\n        sold = true;\r\n        owner = newOwner;\r\n    }\r\n\r\n\r\n    modifier isValidState(State _state){\r\n        require(state == _state, \"not valid state\");\r\n        _;\r\n    }\r\n}",
  "sourcePath": "D:\\MyProgrames\\blockchain\\ethereum\\car_shop\\contracts\\Car.sol",
  "compiler": {
    "name": "solc",
    "version": "0.4.25+commit.59dbf8f1.Emscripten.clang"
  },
  "schemaVersion": "2.0.2",
  "updatedAt": "2019-07-18T13:04:20.721Z"
}