{
  "contractName": "Car",
  "abi": [
    {
      "constant": true,
      "inputs": [],
      "name": "sold",
      "outputs": [
        {
          "name": "",
          "type": "bool"
        }
      ],
      "payable": false,
      "stateMutability": "view",
      "type": "function"
    },
    {
      "constant": true,
      "inputs": [],
      "name": "model",
      "outputs": [
        {
          "name": "",
          "type": "string"
        }
      ],
      "payable": false,
      "stateMutability": "view",
      "type": "function"
    },
    {
      "constant": true,
      "inputs": [],
      "name": "owner",
      "outputs": [
        {
          "name": "",
          "type": "address"
        }
      ],
      "payable": false,
      "stateMutability": "view",
      "type": "function"
    },
    {
      "constant": true,
      "inputs": [],
      "name": "price",
      "outputs": [
        {
          "name": "",
          "type": "uint256"
        }
      ],
      "payable": false,
      "stateMutability": "view",
      "type": "function"
    },
    {
      "constant": true,
      "inputs": [],
      "name": "vin",
      "outputs": [
        {
          "name": "",
          "type": "uint256"
        }
      ],
      "payable": false,
      "stateMutability": "view",
      "type": "function"
    },
    {
      "constant": true,
      "inputs": [],
      "name": "state",
      "outputs": [
        {
          "name": "",
          "type": "uint8"
        }
      ],
      "payable": false,
      "stateMutability": "view",
      "type": "function"
    },
    {
      "constant": true,
      "inputs": [],
      "name": "year",
      "outputs": [
        {
          "name": "",
          "type": "uint256"
        }
      ],
      "payable": false,
      "stateMutability": "view",
      "type": "function"
    },
    {
      "inputs": [
        {
          "name": "_owner",
          "type": "address"
        },
        {
          "name": "_vin",
          "type": "uint256"
        },
        {
          "name": "_model",
          "type": "string"
        },
        {
          "name": "_year",
          "type": "uint256"
        },
        {
          "name": "_price",
          "type": "uint256"
        }
      ],
      "payable": false,
      "stateMutability": "nonpayable",
      "type": "constructor"
    },
    {
      "constant": false,
      "inputs": [
        {
          "name": "_model",
          "type": "string"
        },
        {
          "name": "_year",
          "type": "uint256"
        },
        {
          "name": "_price",
          "type": "uint256"
        }
      ],
      "name": "edit",
      "outputs": [],
      "payable": false,
      "stateMutability": "nonpayable",
      "type": "function"
    },
    {
      "constant": false,
      "inputs": [
        {
          "name": "amount",
          "type": "uint256"
        }
      ],
      "name": "buying",
      "outputs": [],
      "payable": true,
      "stateMutability": "payable",
      "type": "function"
    },
    {
      "constant": false,
      "inputs": [],
      "name": "sendDelivery",
      "outputs": [],
      "payable": false,
      "stateMutability": "nonpayable",
      "type": "function"
    },
    {
      "constant": false,
      "inputs": [],
      "name": "confirmDelivery",
      "outputs": [],
      "payable": false,
      "stateMutability": "nonpayable",
      "type": "function"
    }
  ],
  "bytecode": "0x608060405234801561001057600080fd5b506040516109f03803806109f08339810180604052810190808051906020019092919080519060200190929190805182019291906020018051906020019092919080519060200190929190505050846000806101000a81548173ffffffffffffffffffffffffffffffffffffffff021916908373ffffffffffffffffffffffffffffffffffffffff16021790555083600181905550816002819055508060038190555082600490805190602001906100c9929190610113565b506000600560016101000a81548160ff0219169083151502179055506000600560006101000a81548160ff0219169083600381111561010457fe5b021790555050505050506101b8565b828054600181600116156101000203166002900490600052602060002090601f016020900481019282601f1061015457805160ff1916838001178555610182565b82800160010185558215610182579182015b82811115610181578251825591602001919060010190610166565b5b50905061018f9190610193565b5090565b6101b591905b808211156101b1576000816000905550600101610199565b5090565b90565b610829806101c76000396000f3006080604052600436106100af576000357c0100000000000000000000000000000000000000000000000000000000900463ffffffff16806302c7e7af146100b45780630ad9d052146100e357806317ec5c2d146101735780635e10177b1461018a5780638da5cb5b146101a1578063a035b1fe146101f8578063aca2d46414610223578063ae9a61371461024e578063c19d93fb146102cb578063c99bf81414610304578063f326971614610324575b600080fd5b3480156100c057600080fd5b506100c961034f565b604051808215151515815260200191505060405180910390f35b3480156100ef57600080fd5b506100f8610362565b6040518080602001828103825283818151815260200191508051906020019080838360005b8381101561013857808201518184015260208101905061011d565b50505050905090810190601f1680156101655780820380516001836020036101000a031916815260200191505b509250505060405180910390f35b34801561017f57600080fd5b50610188610400565b005b34801561019657600080fd5b5061019f6104c5565b005b3480156101ad57600080fd5b506101b66105a5565b604051808273ffffffffffffffffffffffffffffffffffffffff1673ffffffffffffffffffffffffffffffffffffffff16815260200191505060405180910390f35b34801561020457600080fd5b5061020d6105ca565b6040518082815260200191505060405180910390f35b34801561022f57600080fd5b506102386105d0565b6040518082815260200191505060405180910390f35b34801561025a57600080fd5b506102c9600480360381019080803590602001908201803590602001908080601f016020809104026020016040519081016040528093929190818152602001838380828437820191505050505050919291929080359060200190929190803590602001909291905050506105d6565b005b3480156102d757600080fd5b506102e0610600565b604051808260038111156102f057fe5b60ff16815260200191505060405180910390f35b61032260048036038101908080359060200190929190505050610613565b005b34801561033057600080fd5b50610339610752565b6040518082815260200191505060405180910390f35b600560019054906101000a900460ff1681565b60048054600181600116156101000203166002900480601f0160208091040260200160405190810160405280929190818152602001828054600181600116156101000203166002900480156103f85780601f106103cd576101008083540402835291602001916103f8565b820191906000526020600020905b8154815290600101906020018083116103db57829003601f168201915b505050505081565b600180600381111561040e57fe5b600560009054906101000a900460ff16600381111561042957fe5b14151561049e576040517f08c379a000000000000000000000000000000000000000000000000000000000815260040180806020018281038252600f8152602001807f6e6f742076616c6964207374617465000000000000000000000000000000000081525060200191505060405180910390fd5b6002600560006101000a81548160ff021916908360038111156104bd57fe5b021790555050565b60028060038111156104d357fe5b600560009054906101000a900460ff1660038111156104ee57fe5b141515610563576040517f08c379a000000000000000000000000000000000000000000000000000000000815260040180806020018281038252600f8152602001807f6e6f742076616c6964207374617465000000000000000000000000000000000081525060200191505060405180910390fd5b6003600560006101000a81548160ff0219169083600381111561058257fe5b02179055506001600560016101000a81548160ff02191690831515021790555050565b6000809054906101000a900473ffffffffffffffffffffffffffffffffffffffff1681565b60035481565b60015481565b816002819055508060038190555082600490805190602001906105fa929190610758565b50505050565b600560009054906101000a900460ff1681565b600080600381111561062157fe5b600560009054906101000a900460ff16600381111561063c57fe5b1415156106b1576040517f08c379a000000000000000000000000000000000000000000000000000000000815260040180806020018281038252600f8152602001807f6e6f742076616c6964207374617465000000000000000000000000000000000081525060200191505060405180910390fd5b6003548214151561072a576040517f08c379a000000000000000000000000000000000000000000000000000000000815260040180806020018281038252601c8152602001807f616d6f756e74206973206e6f7420657175616c20746f2070726963650000000081525060200191505060405180910390fd5b6001600560006101000a81548160ff0219169083600381111561074957fe5b02179055505050565b60025481565b828054600181600116156101000203166002900490600052602060002090601f016020900481019282601f1061079957805160ff19168380011785556107c7565b828001600101855582156107c7579182015b828111156107c65782518255916020019190600101906107ab565b5b5090506107d491906107d8565b5090565b6107fa91905b808211156107f65760008160009055506001016107de565b5090565b905600a165627a7a7230582062d6b574c16cf6c089d90b31e29174029d73a4f38925d1dcb92c855f8231f5210029",
  "source": "pragma solidity ^0.4.24;\r\n\r\ncontract Car{\r\n\r\n    enum State  {IDLE, BUY, SEND_DELIVERY, CONFIRM_DELIVERY}\r\n\r\n    address public owner;\r\n    uint public vin; // Vehicle Identification Number\r\n    uint public  year;\r\n    uint public price;\r\n    string public model;\r\n    State public state;\r\n    bool public sold;\r\n\r\n    constructor( address _owner, uint _vin, string _model, uint _year, uint _price) public {\r\n        owner = _owner;\r\n        vin =   _vin;\r\n        year =  _year;\r\n        price = _price;\r\n        model = _model;\r\n        sold = false;\r\n        state = State.IDLE;\r\n    }\r\n\r\n    function edit( string _model, uint _year, uint _price) public {\r\n        year =  _year;\r\n        price = _price;\r\n        model = _model;\r\n    }\r\n\r\n    function buying(uint amount) isValidState(State.IDLE) public payable{\r\n\r\n        require(amount == price , \"amount is not equal to price\");\r\n\r\n        state = State.BUY;\r\n\r\n    }\r\n\r\n    function sendDelivery() isValidState(State.BUY) public{\r\n        state = State.SEND_DELIVERY;\r\n    }\r\n\r\n    function confirmDelivery() isValidState(State.SEND_DELIVERY) public{\r\n        state = State.CONFIRM_DELIVERY;\r\n        sold = true;\r\n    }\r\n\r\n\r\n    modifier isValidState(State _state){\r\n        require(state == _state, \"not valid state\");\r\n        _;\r\n    }\r\n}",
  "sourcePath": "D:\\MyProgrames\\blockchain\\ethereum\\car_shop\\contracts\\Car.sol",
  "compiler": {
    "name": "solc",
    "version": "0.4.25+commit.59dbf8f1.Emscripten.clang"
  },
  "schemaVersion": "2.0.2",
  "updatedAt": "2019-07-16T12:38:19.421Z"
}