{
  "contractName": "Car",
  "abi": [
    {
      "constant": true,
      "inputs": [],
      "name": "sold",
      "outputs": [
        {
          "name": "",
          "type": "bool"
        }
      ],
      "payable": false,
      "stateMutability": "view",
      "type": "function"
    },
    {
      "constant": true,
      "inputs": [],
      "name": "model",
      "outputs": [
        {
          "name": "",
          "type": "bytes32"
        }
      ],
      "payable": false,
      "stateMutability": "view",
      "type": "function"
    },
    {
      "constant": true,
      "inputs": [],
      "name": "owner",
      "outputs": [
        {
          "name": "",
          "type": "address"
        }
      ],
      "payable": false,
      "stateMutability": "view",
      "type": "function"
    },
    {
      "constant": true,
      "inputs": [],
      "name": "price",
      "outputs": [
        {
          "name": "",
          "type": "uint256"
        }
      ],
      "payable": false,
      "stateMutability": "view",
      "type": "function"
    },
    {
      "constant": true,
      "inputs": [],
      "name": "vin",
      "outputs": [
        {
          "name": "",
          "type": "uint256"
        }
      ],
      "payable": false,
      "stateMutability": "view",
      "type": "function"
    },
    {
      "constant": true,
      "inputs": [],
      "name": "timestamp",
      "outputs": [
        {
          "name": "",
          "type": "uint256"
        }
      ],
      "payable": false,
      "stateMutability": "view",
      "type": "function"
    },
    {
      "constant": true,
      "inputs": [],
      "name": "state",
      "outputs": [
        {
          "name": "",
          "type": "uint8"
        }
      ],
      "payable": false,
      "stateMutability": "view",
      "type": "function"
    },
    {
      "constant": true,
      "inputs": [],
      "name": "image_hash",
      "outputs": [
        {
          "name": "",
          "type": "string"
        }
      ],
      "payable": false,
      "stateMutability": "view",
      "type": "function"
    },
    {
      "constant": true,
      "inputs": [],
      "name": "year",
      "outputs": [
        {
          "name": "",
          "type": "uint256"
        }
      ],
      "payable": false,
      "stateMutability": "view",
      "type": "function"
    },
    {
      "inputs": [
        {
          "name": "_owner",
          "type": "address"
        },
        {
          "name": "_vin",
          "type": "uint256"
        },
        {
          "name": "_model",
          "type": "bytes32"
        },
        {
          "name": "_year",
          "type": "uint256"
        },
        {
          "name": "_price",
          "type": "uint256"
        },
        {
          "name": "_sold",
          "type": "bool"
        },
        {
          "name": "_image_hash",
          "type": "string"
        }
      ],
      "payable": false,
      "stateMutability": "nonpayable",
      "type": "constructor"
    },
    {
      "constant": false,
      "inputs": [
        {
          "name": "_model",
          "type": "bytes32"
        },
        {
          "name": "_year",
          "type": "uint256"
        },
        {
          "name": "_price",
          "type": "uint256"
        },
        {
          "name": "_image_hash",
          "type": "string"
        }
      ],
      "name": "edit",
      "outputs": [],
      "payable": false,
      "stateMutability": "nonpayable",
      "type": "function"
    },
    {
      "constant": false,
      "inputs": [
        {
          "name": "amount",
          "type": "uint256"
        }
      ],
      "name": "buy",
      "outputs": [],
      "payable": true,
      "stateMutability": "payable",
      "type": "function"
    },
    {
      "constant": false,
      "inputs": [],
      "name": "sendDelivery",
      "outputs": [],
      "payable": false,
      "stateMutability": "nonpayable",
      "type": "function"
    },
    {
      "constant": false,
      "inputs": [
        {
          "name": "newOwner",
          "type": "address"
        }
      ],
      "name": "confirmDelivery",
      "outputs": [],
      "payable": false,
      "stateMutability": "nonpayable",
      "type": "function"
    }
  ],
  "bytecode": "0x608060405234801561001057600080fd5b50604051610b22380380610b2283398101806040528101908080519060200190929190805190602001909291908051906020019092919080519060200190929190805190602001909291908051906020019092919080518201929190505050866000806101000a81548173ffffffffffffffffffffffffffffffffffffffff021916908373ffffffffffffffffffffffffffffffffffffffff160217905550856001819055508360028190555082600381905550846004816000191690555080600590805190602001906100e5929190610137565b504260078190555081600660016101000a81548160ff0219169083151502179055506000600660006101000a81548160ff0219169083600381111561012657fe5b0217905550505050505050506101dc565b828054600181600116156101000203166002900490600052602060002090601f016020900481019282601f1061017857805160ff19168380011785556101a6565b828001600101855582156101a6579182015b828111156101a557825182559160200191906001019061018a565b5b5090506101b391906101b7565b5090565b6101d991905b808211156101d55760008160009055506001016101bd565b5090565b90565b610937806101eb6000396000f3006080604052600436106100c5576000357c0100000000000000000000000000000000000000000000000000000000900463ffffffff16806302c7e7af146100ca5780630ad9d052146100f957806317ec5c2d1461012c5780638da5cb5b146101435780639f7aee821461019a578063a035b1fe146101dd578063aca2d46414610208578063b80777ea14610233578063c19d93fb1461025e578063d81df1ef14610297578063d96a094a14610322578063ee4cdb5714610342578063f3269716146103d2575b600080fd5b3480156100d657600080fd5b506100df6103fd565b604051808215151515815260200191505060405180910390f35b34801561010557600080fd5b5061010e610410565b60405180826000191660001916815260200191505060405180910390f35b34801561013857600080fd5b50610141610416565b005b34801561014f57600080fd5b506101586104db565b604051808273ffffffffffffffffffffffffffffffffffffffff1673ffffffffffffffffffffffffffffffffffffffff16815260200191505060405180910390f35b3480156101a657600080fd5b506101db600480360381019080803573ffffffffffffffffffffffffffffffffffffffff169060200190929190505050610500565b005b3480156101e957600080fd5b506101f2610621565b6040518082815260200191505060405180910390f35b34801561021457600080fd5b5061021d610627565b6040518082815260200191505060405180910390f35b34801561023f57600080fd5b5061024861062d565b6040518082815260200191505060405180910390f35b34801561026a57600080fd5b50610273610633565b6040518082600381111561028357fe5b60ff16815260200191505060405180910390f35b3480156102a357600080fd5b5061032060048036038101908080356000191690602001909291908035906020019092919080359060200190929190803590602001908201803590602001908080601f0160208091040260200160405190810160405280939291908181526020018383808284378201915050505050509192919290505050610646565b005b61034060048036038101908080359060200190929190505050610683565b005b34801561034e57600080fd5b506103576107c2565b6040518080602001828103825283818151815260200191508051906020019080838360005b8381101561039757808201518184015260208101905061037c565b50505050905090810190601f1680156103c45780820380516001836020036101000a031916815260200191505b509250505060405180910390f35b3480156103de57600080fd5b506103e7610860565b6040518082815260200191505060405180910390f35b600660019054906101000a900460ff1681565b60045481565b600180600381111561042457fe5b600660009054906101000a900460ff16600381111561043f57fe5b1415156104b4576040517f08c379a000000000000000000000000000000000000000000000000000000000815260040180806020018281038252600f8152602001807f6e6f742076616c6964207374617465000000000000000000000000000000000081525060200191505060405180910390fd5b6002600660006101000a81548160ff021916908360038111156104d357fe5b021790555050565b6000809054906101000a900473ffffffffffffffffffffffffffffffffffffffff1681565b600280600381111561050e57fe5b600660009054906101000a900460ff16600381111561052957fe5b14151561059e576040517f08c379a000000000000000000000000000000000000000000000000000000000815260040180806020018281038252600f8152602001807f6e6f742076616c6964207374617465000000000000000000000000000000000081525060200191505060405180910390fd5b6003600660006101000a81548160ff021916908360038111156105bd57fe5b02179055506001600660016101000a81548160ff021916908315150217905550816000806101000a81548173ffffffffffffffffffffffffffffffffffffffff021916908373ffffffffffffffffffffffffffffffffffffffff1602179055505050565b60035481565b60015481565b60075481565b600660009054906101000a900460ff1681565b826002819055508160038190555083600481600019169055508060059080519060200190610675929190610866565b504260078190555050505050565b600080600381111561069157fe5b600660009054906101000a900460ff1660038111156106ac57fe5b141515610721576040517f08c379a000000000000000000000000000000000000000000000000000000000815260040180806020018281038252600f8152602001807f6e6f742076616c6964207374617465000000000000000000000000000000000081525060200191505060405180910390fd5b6003548214151561079a576040517f08c379a000000000000000000000000000000000000000000000000000000000815260040180806020018281038252601c8152602001807f616d6f756e74206973206e6f7420657175616c20746f2070726963650000000081525060200191505060405180910390fd5b6001600660006101000a81548160ff021916908360038111156107b957fe5b02179055505050565b60058054600181600116156101000203166002900480601f0160208091040260200160405190810160405280929190818152602001828054600181600116156101000203166002900480156108585780601f1061082d57610100808354040283529160200191610858565b820191906000526020600020905b81548152906001019060200180831161083b57829003601f168201915b505050505081565b60025481565b828054600181600116156101000203166002900490600052602060002090601f016020900481019282601f106108a757805160ff19168380011785556108d5565b828001600101855582156108d5579182015b828111156108d45782518255916020019190600101906108b9565b5b5090506108e291906108e6565b5090565b61090891905b808211156109045760008160009055506001016108ec565b5090565b905600a165627a7a72305820eca3cf37f102c7ba0a545649aac8605a976b7ae612a4ea92b2ae0844e56991c20029",
  "source": "pragma solidity ^0.4.24;\n\ncontract Car{\n\n    enum State  {IDLE, BUY, SEND_DELIVERY, SOLD}\n\n    address public owner;\n    uint public vin; // Vehicle Identification Number\n    uint public  year;\n    uint public price;\n    bytes32 public model;\n    string public image_hash; //IPFS\n    State public state;\n    bool  public sold;\n    uint  public timestamp; //create or edit update\n\n\n\n\n    constructor( address _owner, uint _vin, bytes32 _model, uint _year, uint _price, bool _sold, string _image_hash) public {\n        owner = _owner;\n        vin =   _vin;\n        year =  _year;\n        price = _price;\n        model = _model;\n        image_hash = _image_hash;\n        timestamp = now;\n        sold = _sold;\n        state = State.IDLE;\n    }\n\n\n    function edit( bytes32 _model, uint _year, uint _price, string _image_hash) public {\n        year =  _year;\n        price = _price;\n        model = _model;\n        image_hash = _image_hash;\n        timestamp = now;\n    }\n\n    function buy(uint amount) isValidState(State.IDLE) public payable{\n\n        require(amount == price , \"amount is not equal to price\");\n\n        state = State.BUY;\n    }\n\n    function sendDelivery() isValidState(State.BUY) public{\n        state = State.SEND_DELIVERY;\n    }\n\n    function confirmDelivery(address newOwner) isValidState(State.SEND_DELIVERY) public{\n        state = State.SOLD;\n        sold = true;\n        owner = newOwner;\n    }\n\n\n    modifier isValidState(State _state){\n        require(state == _state, \"not valid state\");\n        _;\n    }\n}",
  "sourcePath": "D:\\programming\\blockchain\\ethereum\\car_shop\\contracts\\Car.sol",
  "compiler": {
    "name": "solc",
    "version": "0.4.25+commit.59dbf8f1.Emscripten.clang"
  },
  "schemaVersion": "2.0.2",
  "updatedAt": "2019-07-19T19:17:04.003Z"
}