{
  "contractName": "Car",
  "abi": [
    {
      "constant": true,
      "inputs": [],
      "name": "sold",
      "outputs": [
        {
          "name": "",
          "type": "bool"
        }
      ],
      "payable": false,
      "stateMutability": "view",
      "type": "function"
    },
    {
      "constant": true,
      "inputs": [],
      "name": "model",
      "outputs": [
        {
          "name": "",
          "type": "bytes32"
        }
      ],
      "payable": false,
      "stateMutability": "view",
      "type": "function"
    },
    {
      "constant": true,
      "inputs": [],
      "name": "buyer",
      "outputs": [
        {
          "name": "",
          "type": "address"
        }
      ],
      "payable": false,
      "stateMutability": "view",
      "type": "function"
    },
    {
      "constant": true,
      "inputs": [],
      "name": "owner",
      "outputs": [
        {
          "name": "",
          "type": "address"
        }
      ],
      "payable": false,
      "stateMutability": "view",
      "type": "function"
    },
    {
      "constant": true,
      "inputs": [],
      "name": "price",
      "outputs": [
        {
          "name": "",
          "type": "uint256"
        }
      ],
      "payable": false,
      "stateMutability": "view",
      "type": "function"
    },
    {
      "constant": true,
      "inputs": [],
      "name": "vin",
      "outputs": [
        {
          "name": "",
          "type": "uint256"
        }
      ],
      "payable": false,
      "stateMutability": "view",
      "type": "function"
    },
    {
      "constant": true,
      "inputs": [],
      "name": "timestamp",
      "outputs": [
        {
          "name": "",
          "type": "uint256"
        }
      ],
      "payable": false,
      "stateMutability": "view",
      "type": "function"
    },
    {
      "constant": true,
      "inputs": [],
      "name": "state",
      "outputs": [
        {
          "name": "",
          "type": "uint8"
        }
      ],
      "payable": false,
      "stateMutability": "view",
      "type": "function"
    },
    {
      "constant": true,
      "inputs": [],
      "name": "image_hash",
      "outputs": [
        {
          "name": "",
          "type": "string"
        }
      ],
      "payable": false,
      "stateMutability": "view",
      "type": "function"
    },
    {
      "constant": true,
      "inputs": [],
      "name": "year",
      "outputs": [
        {
          "name": "",
          "type": "uint256"
        }
      ],
      "payable": false,
      "stateMutability": "view",
      "type": "function"
    },
    {
      "inputs": [
        {
          "name": "_owner",
          "type": "address"
        },
        {
          "name": "_vin",
          "type": "uint256"
        },
        {
          "name": "_model",
          "type": "bytes32"
        },
        {
          "name": "_year",
          "type": "uint256"
        },
        {
          "name": "_price",
          "type": "uint256"
        },
        {
          "name": "_sold",
          "type": "bool"
        },
        {
          "name": "_image_hash",
          "type": "string"
        }
      ],
      "payable": false,
      "stateMutability": "nonpayable",
      "type": "constructor"
    },
    {
      "constant": false,
      "inputs": [
        {
          "name": "_model",
          "type": "bytes32"
        },
        {
          "name": "_year",
          "type": "uint256"
        },
        {
          "name": "_price",
          "type": "uint256"
        },
        {
          "name": "_image_hash",
          "type": "string"
        }
      ],
      "name": "edit",
      "outputs": [],
      "payable": false,
      "stateMutability": "nonpayable",
      "type": "function"
    },
    {
      "constant": false,
      "inputs": [
        {
          "name": "_buyer",
          "type": "address"
        },
        {
          "name": "amount",
          "type": "uint256"
        }
      ],
      "name": "buy",
      "outputs": [],
      "payable": true,
      "stateMutability": "payable",
      "type": "function"
    },
    {
      "constant": false,
      "inputs": [],
      "name": "sendDelivery",
      "outputs": [],
      "payable": false,
      "stateMutability": "nonpayable",
      "type": "function"
    },
    {
      "constant": false,
      "inputs": [
        {
          "name": "newOwner",
          "type": "address"
        }
      ],
      "name": "confirmDelivery",
      "outputs": [],
      "payable": false,
      "stateMutability": "nonpayable",
      "type": "function"
    }
  ],
  "bytecode": "0x608060405234801561001057600080fd5b50604051610c4e380380610c4e83398101806040528101908080519060200190929190805190602001909291908051906020019092919080519060200190929190805190602001909291908051906020019092919080518201929190505050866000806101000a81548173ffffffffffffffffffffffffffffffffffffffff021916908373ffffffffffffffffffffffffffffffffffffffff1602179055506000600160006101000a81548173ffffffffffffffffffffffffffffffffffffffff021916908373ffffffffffffffffffffffffffffffffffffffff16021790555085600281905550836003819055508260048190555084600581600019169055508060069080519060200190610127929190610179565b504260088190555081600760016101000a81548160ff0219169083151502179055506000600760006101000a81548160ff0219169083600381111561016857fe5b02179055505050505050505061021e565b828054600181600116156101000203166002900490600052602060002090601f016020900481019282601f106101ba57805160ff19168380011785556101e8565b828001600101855582156101e8579182015b828111156101e75782518255916020019190600101906101cc565b5b5090506101f591906101f9565b5090565b61021b91905b808211156102175760008160009055506001016101ff565b5090565b90565b610a218061022d6000396000f3006080604052600436106100d0576000357c0100000000000000000000000000000000000000000000000000000000900463ffffffff16806302c7e7af146100d55780630ad9d0521461010457806317ec5c2d146101375780637150d8ae1461014e5780638da5cb5b146101a55780639f7aee82146101fc578063a035b1fe1461023f578063aca2d4641461026a578063b80777ea14610295578063c19d93fb146102c0578063cce7ec13146102f9578063d81df1ef14610339578063ee4cdb57146103c4578063f326971614610454575b600080fd5b3480156100e157600080fd5b506100ea61047f565b604051808215151515815260200191505060405180910390f35b34801561011057600080fd5b50610119610492565b60405180826000191660001916815260200191505060405180910390f35b34801561014357600080fd5b5061014c610498565b005b34801561015a57600080fd5b5061016361055d565b604051808273ffffffffffffffffffffffffffffffffffffffff1673ffffffffffffffffffffffffffffffffffffffff16815260200191505060405180910390f35b3480156101b157600080fd5b506101ba610583565b604051808273ffffffffffffffffffffffffffffffffffffffff1673ffffffffffffffffffffffffffffffffffffffff16815260200191505060405180910390f35b34801561020857600080fd5b5061023d600480360381019080803573ffffffffffffffffffffffffffffffffffffffff1690602001909291905050506105a8565b005b34801561024b57600080fd5b506102546106c9565b6040518082815260200191505060405180910390f35b34801561027657600080fd5b5061027f6106cf565b6040518082815260200191505060405180910390f35b3480156102a157600080fd5b506102aa6106d5565b6040518082815260200191505060405180910390f35b3480156102cc57600080fd5b506102d56106db565b604051808260038111156102e557fe5b60ff16815260200191505060405180910390f35b610337600480360381019080803573ffffffffffffffffffffffffffffffffffffffff169060200190929190803590602001909291905050506106ee565b005b34801561034557600080fd5b506103c260048036038101908080356000191690602001909291908035906020019092919080359060200190929190803590602001908201803590602001908080601f016020809104026020016040519081016040528093929190818152602001838380828437820191505050505050919291929050505061086f565b005b3480156103d057600080fd5b506103d96108ac565b6040518080602001828103825283818151815260200191508051906020019080838360005b838110156104195780820151818401526020810190506103fe565b50505050905090810190601f1680156104465780820380516001836020036101000a031916815260200191505b509250505060405180910390f35b34801561046057600080fd5b5061046961094a565b6040518082815260200191505060405180910390f35b600760019054906101000a900460ff1681565b60055481565b60018060038111156104a657fe5b600760009054906101000a900460ff1660038111156104c157fe5b141515610536576040517f08c379a000000000000000000000000000000000000000000000000000000000815260040180806020018281038252600f8152602001807f6e6f742076616c6964207374617465000000000000000000000000000000000081525060200191505060405180910390fd5b6002600760006101000a81548160ff0219169083600381111561055557fe5b021790555050565b600160009054906101000a900473ffffffffffffffffffffffffffffffffffffffff1681565b6000809054906101000a900473ffffffffffffffffffffffffffffffffffffffff1681565b60028060038111156105b657fe5b600760009054906101000a900460ff1660038111156105d157fe5b141515610646576040517f08c379a000000000000000000000000000000000000000000000000000000000815260040180806020018281038252600f8152602001807f6e6f742076616c6964207374617465000000000000000000000000000000000081525060200191505060405180910390fd5b6003600760006101000a81548160ff0219169083600381111561066557fe5b02179055506001600760016101000a81548160ff021916908315150217905550816000806101000a81548173ffffffffffffffffffffffffffffffffffffffff021916908373ffffffffffffffffffffffffffffffffffffffff1602179055505050565b60045481565b60025481565b60085481565b600760009054906101000a900460ff1681565b60008060038111156106fc57fe5b600760009054906101000a900460ff16600381111561071757fe5b14151561078c576040517f08c379a000000000000000000000000000000000000000000000000000000000815260040180806020018281038252600f8152602001807f6e6f742076616c6964207374617465000000000000000000000000000000000081525060200191505060405180910390fd5b60045482141515610805576040517f08c379a000000000000000000000000000000000000000000000000000000000815260040180806020018281038252601c8152602001807f616d6f756e74206973206e6f7420657175616c20746f2070726963650000000081525060200191505060405180910390fd5b82600160006101000a81548173ffffffffffffffffffffffffffffffffffffffff021916908373ffffffffffffffffffffffffffffffffffffffff1602179055506001600760006101000a81548160ff0219169083600381111561086557fe5b0217905550505050565b82600381905550816004819055508360058160001916905550806006908051906020019061089e929190610950565b504260088190555050505050565b60068054600181600116156101000203166002900480601f0160208091040260200160405190810160405280929190818152602001828054600181600116156101000203166002900480156109425780601f1061091757610100808354040283529160200191610942565b820191906000526020600020905b81548152906001019060200180831161092557829003601f168201915b505050505081565b60035481565b828054600181600116156101000203166002900490600052602060002090601f016020900481019282601f1061099157805160ff19168380011785556109bf565b828001600101855582156109bf579182015b828111156109be5782518255916020019190600101906109a3565b5b5090506109cc91906109d0565b5090565b6109f291905b808211156109ee5760008160009055506001016109d6565b5090565b905600a165627a7a723058201943d0515deb24e28bb52c3e74889f0f633e426ab5f4d95b66d5eb261e51cbaa0029",
  "source": "pragma solidity ^0.4.24;\n\ncontract Car{\n\n    enum State  {IDLE, BUY, SEND_DELIVERY, SOLD}\n\n    address public owner;\n    address public buyer;\n    uint public vin; // Vehicle Identification Number\n    uint public  year;\n    uint public price;\n    bytes32 public model;\n    string public image_hash; //IPFS\n    State public state;\n    bool  public sold;\n    uint  public timestamp; //create or edit update\n\n    constructor( address _owner, uint _vin, bytes32 _model, uint _year, uint _price, bool _sold, string _image_hash) public {\n        owner = _owner;\n        buyer = 0x00;\n        vin =   _vin;\n        year =  _year;\n        price = _price;\n        model = _model;\n        image_hash = _image_hash;\n        timestamp = now;\n        sold = _sold;\n        state = State.IDLE;\n    }\n\n\n    function edit( bytes32 _model, uint _year, uint _price, string _image_hash) public {\n        year =  _year;\n        price = _price;\n        model = _model;\n        image_hash = _image_hash;\n        timestamp = now;\n    }\n\n    function buy(address _buyer, uint amount) isValidState(State.IDLE) public payable{\n\n        require(amount == price , \"amount is not equal to price\");\n\n        buyer = _buyer;\n\n        state = State.BUY;\n    }\n\n    function sendDelivery() isValidState(State.BUY) public{\n        state = State.SEND_DELIVERY;\n    }\n\n    function confirmDelivery(address newOwner) isValidState(State.SEND_DELIVERY) public{\n        state = State.SOLD;\n        sold = true;\n        owner = newOwner;\n    }\n\n\n    modifier isValidState(State _state){\n        require(state == _state, \"not valid state\");\n        _;\n    }\n}",
  "sourcePath": "D:\\programming\\blockchain\\ethereum\\car_shop\\contracts\\Car.sol",
  "compiler": {
    "name": "solc",
    "version": "0.4.25+commit.59dbf8f1.Emscripten.clang"
  },
  "schemaVersion": "2.0.2",
  "updatedAt": "2019-07-24T20:16:39.878Z"
}