{
  "contractName": "CarShop",
  "abi": [
    {
      "constant": true,
      "inputs": [
        {
          "name": "",
          "type": "address"
        },
        {
          "name": "",
          "type": "uint256"
        }
      ],
      "name": "carAccessibility",
      "outputs": [
        {
          "name": "",
          "type": "bool"
        }
      ],
      "payable": false,
      "stateMutability": "view",
      "type": "function"
    },
    {
      "constant": true,
      "inputs": [
        {
          "name": "",
          "type": "uint256"
        },
        {
          "name": "",
          "type": "uint256"
        }
      ],
      "name": "carLogger",
      "outputs": [
        {
          "name": "",
          "type": "address"
        }
      ],
      "payable": false,
      "stateMutability": "view",
      "type": "function"
    },
    {
      "constant": true,
      "inputs": [
        {
          "name": "",
          "type": "uint256"
        }
      ],
      "name": "carIndex",
      "outputs": [
        {
          "name": "",
          "type": "uint256"
        }
      ],
      "payable": false,
      "stateMutability": "view",
      "type": "function"
    },
    {
      "constant": true,
      "inputs": [],
      "name": "arbitrator",
      "outputs": [
        {
          "name": "",
          "type": "address"
        }
      ],
      "payable": false,
      "stateMutability": "view",
      "type": "function"
    },
    {
      "constant": true,
      "inputs": [],
      "name": "rewardAllowed",
      "outputs": [
        {
          "name": "",
          "type": "uint256"
        }
      ],
      "payable": false,
      "stateMutability": "view",
      "type": "function"
    },
    {
      "constant": true,
      "inputs": [
        {
          "name": "",
          "type": "uint256"
        }
      ],
      "name": "carsArr",
      "outputs": [
        {
          "name": "",
          "type": "address"
        }
      ],
      "payable": false,
      "stateMutability": "view",
      "type": "function"
    },
    {
      "inputs": [],
      "payable": false,
      "stateMutability": "nonpayable",
      "type": "constructor"
    },
    {
      "anonymous": false,
      "inputs": [
        {
          "indexed": false,
          "name": "vin",
          "type": "uint256"
        },
        {
          "indexed": false,
          "name": "success",
          "type": "bool"
        }
      ],
      "name": "Delete",
      "type": "event"
    },
    {
      "anonymous": false,
      "inputs": [
        {
          "indexed": false,
          "name": "vin",
          "type": "uint256"
        },
        {
          "indexed": false,
          "name": "success",
          "type": "bool"
        }
      ],
      "name": "Edit",
      "type": "event"
    },
    {
      "anonymous": false,
      "inputs": [
        {
          "indexed": false,
          "name": "owner",
          "type": "address"
        },
        {
          "indexed": false,
          "name": "vin",
          "type": "uint256"
        },
        {
          "indexed": false,
          "name": "model",
          "type": "string"
        },
        {
          "indexed": false,
          "name": "success",
          "type": "bool"
        }
      ],
      "name": "Add",
      "type": "event"
    },
    {
      "anonymous": false,
      "inputs": [
        {
          "indexed": false,
          "name": "vin",
          "type": "uint256"
        },
        {
          "indexed": false,
          "name": "price",
          "type": "uint256"
        },
        {
          "indexed": false,
          "name": "success",
          "type": "bool"
        }
      ],
      "name": "ConfirmSelling",
      "type": "event"
    },
    {
      "constant": true,
      "inputs": [],
      "name": "getContractBalance",
      "outputs": [
        {
          "name": "balance",
          "type": "uint256"
        }
      ],
      "payable": false,
      "stateMutability": "view",
      "type": "function"
    },
    {
      "constant": true,
      "inputs": [],
      "name": "getNumberOfCars",
      "outputs": [
        {
          "name": "index",
          "type": "uint256"
        }
      ],
      "payable": false,
      "stateMutability": "view",
      "type": "function"
    },
    {
      "constant": false,
      "inputs": [
        {
          "name": "vin",
          "type": "uint256"
        }
      ],
      "name": "deleteCar",
      "outputs": [],
      "payable": false,
      "stateMutability": "nonpayable",
      "type": "function"
    },
    {
      "constant": false,
      "inputs": [
        {
          "name": "vin",
          "type": "uint256"
        },
        {
          "name": "model",
          "type": "string"
        },
        {
          "name": "year",
          "type": "uint256"
        },
        {
          "name": "price",
          "type": "uint256"
        }
      ],
      "name": "editCar",
      "outputs": [],
      "payable": false,
      "stateMutability": "nonpayable",
      "type": "function"
    },
    {
      "constant": false,
      "inputs": [
        {
          "name": "vin",
          "type": "uint256"
        },
        {
          "name": "model",
          "type": "string"
        },
        {
          "name": "year",
          "type": "uint256"
        },
        {
          "name": "price",
          "type": "uint256"
        }
      ],
      "name": "addCar",
      "outputs": [],
      "payable": false,
      "stateMutability": "nonpayable",
      "type": "function"
    },
    {
      "constant": false,
      "inputs": [
        {
          "name": "vin",
          "type": "uint256"
        }
      ],
      "name": "buy",
      "outputs": [],
      "payable": true,
      "stateMutability": "payable",
      "type": "function"
    },
    {
      "constant": false,
      "inputs": [
        {
          "name": "vin",
          "type": "uint256"
        }
      ],
      "name": "sendDelivery",
      "outputs": [],
      "payable": false,
      "stateMutability": "nonpayable",
      "type": "function"
    },
    {
      "constant": false,
      "inputs": [
        {
          "name": "vin",
          "type": "uint256"
        }
      ],
      "name": "confirmDelivery",
      "outputs": [],
      "payable": false,
      "stateMutability": "nonpayable",
      "type": "function"
    },
    {
      "constant": false,
      "inputs": [],
      "name": "withdrawAllReward",
      "outputs": [],
      "payable": false,
      "stateMutability": "nonpayable",
      "type": "function"
    },
    {
      "constant": true,
      "inputs": [
        {
          "name": "_vin",
          "type": "uint256"
        }
      ],
      "name": "getCarByVin",
      "outputs": [
        {
          "name": "owner",
          "type": "address"
        },
        {
          "name": "vin",
          "type": "uint256"
        },
        {
          "name": "year",
          "type": "uint256"
        },
        {
          "name": "price",
          "type": "uint256"
        },
        {
          "name": "model",
          "type": "string"
        },
        {
          "name": "sold",
          "type": "bool"
        },
        {
          "name": "state",
          "type": "uint8"
        },
        {
          "name": "timestamp",
          "type": "uint256"
        }
      ],
      "payable": false,
      "stateMutability": "view",
      "type": "function"
    },
    {
      "constant": true,
      "inputs": [
        {
          "name": "index",
          "type": "uint256"
        }
      ],
      "name": "getCarByIndex",
      "outputs": [
        {
          "name": "owner",
          "type": "address"
        },
        {
          "name": "vin",
          "type": "uint256"
        },
        {
          "name": "year",
          "type": "uint256"
        },
        {
          "name": "price",
          "type": "uint256"
        },
        {
          "name": "model",
          "type": "string"
        },
        {
          "name": "sold",
          "type": "bool"
        },
        {
          "name": "state",
          "type": "uint8"
        },
        {
          "name": "timestamp",
          "type": "uint256"
        }
      ],
      "payable": false,
      "stateMutability": "view",
      "type": "function"
    },
    {
      "constant": true,
      "inputs": [
        {
          "name": "_vin",
          "type": "uint256"
        }
      ],
      "name": "getHistoryLogCarLength",
      "outputs": [
        {
          "name": "length",
          "type": "uint256"
        }
      ],
      "payable": false,
      "stateMutability": "view",
      "type": "function"
    },
    {
      "constant": true,
      "inputs": [
        {
          "name": "_vin",
          "type": "uint256"
        },
        {
          "name": "_idx",
          "type": "uint256"
        }
      ],
      "name": "getHistoryLogCar",
      "outputs": [
        {
          "name": "owner",
          "type": "address"
        },
        {
          "name": "vin",
          "type": "uint256"
        },
        {
          "name": "year",
          "type": "uint256"
        },
        {
          "name": "price",
          "type": "uint256"
        },
        {
          "name": "model",
          "type": "string"
        },
        {
          "name": "sold",
          "type": "bool"
        },
        {
          "name": "state",
          "type": "uint8"
        },
        {
          "name": "timestamp",
          "type": "uint256"
        }
      ],
      "payable": false,
      "stateMutability": "view",
      "type": "function"
    }
  ],
  "bytecode": "0x60806040526012600a0a6001553480156200001957600080fd5b50336000806101000a81548173ffffffffffffffffffffffffffffffffffffffff021916908373ffffffffffffffffffffffffffffffffffffffff160217905550620000b53360006040805190810160405280600581526020017f486f6e64610000000000000000000000000000000000000000000000000000008152506107d8600154600102620000bb640100000000026401000000009004565b62000422565b600085858585856000620000ce62000411565b808773ffffffffffffffffffffffffffffffffffffffff1673ffffffffffffffffffffffffffffffffffffffff1681526020018681526020018060200185815260200184815260200183151515158152602001828103825286818151815260200191508051906020019080838360005b838110156200015b5780820151818401526020810190506200013e565b50505050905090810190601f168015620001895780820380516001836020036101000a031916815260200191505b50975050505050505050604051809103906000f080158015620001b0573d6000803e3d6000fd5b50905060068190806001815401808255809150509060018203906000526020600020016000909192909190916101000a81548173ffffffffffffffffffffffffffffffffffffffff021916908373ffffffffffffffffffffffffffffffffffffffff1602179055505060056000868152602001908152602001600020868686868660006200023d62000411565b808773ffffffffffffffffffffffffffffffffffffffff1673ffffffffffffffffffffffffffffffffffffffff1681526020018681526020018060200185815260200184815260200183151515158152602001828103825286818151815260200191508051906020019080838360005b83811015620002ca578082015181840152602081019050620002ad565b50505050905090810190601f168015620002f85780820380516001836020036101000a031916815260200191505b50975050505050505050604051809103906000f0801580156200031f573d6000803e3d6000fd5b5090806001815401808255809150509060018203906000526020600020016000909192909190916101000a81548173ffffffffffffffffffffffffffffffffffffffff021916908373ffffffffffffffffffffffffffffffffffffffff1602179055505060068054905060036000878152602001908152602001600020819055506001600260008873ffffffffffffffffffffffffffffffffffffffff1673ffffffffffffffffffffffffffffffffffffffff168152602001908152602001600020600087815260200190815260200160002060006101000a81548160ff021916908315150217905550505050505050565b604051610ab1806200495183390190565b61451f80620004326000396000f3006080604052600436106200011b576000357c0100000000000000000000000000000000000000000000000000000000900463ffffffff168063095389401462000120578063193e364f14620002465780631b2680f314620002ae5780631e3a9f9e146200030a578063216b39d014620003845780634ec3b05114620003c85780635e3c5762146200040c57806360098088146200043c57806368ce1a0f146200046c5780636b37fbaa14620004c85780636cc6cde114620004e25780636f9fb98a146200053c5780638199feb0146200056a5780638c0ecc33146200068657806397d4116414620006b4578063b85ce4e914620007d0578063c6dea50b14620007fe578063d96a094a146200086e578063fd84cb971462000890575b600080fd5b3480156200012d57600080fd5b50620001586004803603810190808035906020019092919080359060200190929190505050620008c0565b604051808973ffffffffffffffffffffffffffffffffffffffff1673ffffffffffffffffffffffffffffffffffffffff1681526020018881526020018781526020018681526020018060200185151515158152602001846003811115620001bb57fe5b60ff168152602001838152602001828103825286818151815260200191508051906020019080838360005b8381101562000203578082015181840152602081019050620001e6565b50505050905090810190601f168015620002315780820380516001836020036101000a031916815260200191505b50995050505050505050505060405180910390f35b3480156200025357600080fd5b5062000294600480360381019080803573ffffffffffffffffffffffffffffffffffffffff1690602001909291908035906020019092919050505062000fb9565b604051808215151515815260200191505060405180910390f35b348015620002bb57600080fd5b506200030860048036038101908080359060200190929190803590602001908201803590602001919091929391929390803590602001909291908035906020019092919050505062000fe8565b005b3480156200031757600080fd5b5062000342600480360381019080803590602001909291908035906020019092919050505062001383565b604051808273ffffffffffffffffffffffffffffffffffffffff1673ffffffffffffffffffffffffffffffffffffffff16815260200191505060405180910390f35b3480156200039157600080fd5b50620003b260048036038101908080359060200190929190505050620013d1565b6040518082815260200191505060405180910390f35b348015620003d557600080fd5b50620003f660048036038101908080359060200190929190505050620013e9565b6040518082815260200191505060405180910390f35b3480156200041957600080fd5b506200043a6004803603810190808035906020019092919050505062001497565b005b3480156200044957600080fd5b506200046a6004803603810190808035906020019092919050505062001691565b005b3480156200047957600080fd5b50620004c660048036038101908080359060200190929190803590602001908201803590602001919091929391929390803590602001909291908035906020019092919050505062001a43565b005b348015620004d557600080fd5b50620004e062001b29565b005b348015620004ef57600080fd5b50620004fa62001cbd565b604051808273ffffffffffffffffffffffffffffffffffffffff1673ffffffffffffffffffffffffffffffffffffffff16815260200191505060405180910390f35b3480156200054957600080fd5b506200055462001ce2565b6040518082815260200191505060405180910390f35b3480156200057757600080fd5b50620005986004803603810190808035906020019092919050505062001d01565b604051808973ffffffffffffffffffffffffffffffffffffffff1673ffffffffffffffffffffffffffffffffffffffff1681526020018881526020018781526020018681526020018060200185151515158152602001846003811115620005fb57fe5b60ff168152602001838152602001828103825286818151815260200191508051906020019080838360005b838110156200064357808201518184015260208101905062000626565b50505050905090810190601f168015620006715780820380516001836020036101000a031916815260200191505b50995050505050505050505060405180910390f35b3480156200069357600080fd5b506200069e6200236c565b6040518082815260200191505060405180910390f35b348015620006c157600080fd5b50620006e26004803603810190808035906020019092919050505062002372565b604051808973ffffffffffffffffffffffffffffffffffffffff1673ffffffffffffffffffffffffffffffffffffffff16815260200188815260200187815260200186815260200180602001851515151581526020018460038111156200074557fe5b60ff168152602001838152602001828103825286818151815260200191508051906020019080838360005b838110156200078d57808201518184015260208101905062000770565b50505050905090810190601f168015620007bb5780820380516001836020036101000a031916815260200191505b50995050505050505050505060405180910390f35b348015620007dd57600080fd5b50620007e8620029c2565b6040518082815260200191505060405180910390f35b3480156200080b57600080fd5b506200082c60048036038101908080359060200190929190505050620029cf565b604051808273ffffffffffffffffffffffffffffffffffffffff1673ffffffffffffffffffffffffffffffffffffffff16815260200191505060405180910390f35b6200088e6004803603810190808035906020019092919050505062002a0e565b005b3480156200089d57600080fd5b50620008be6004803603810190808035906020019092919050505062002c51565b005b600080600080606060008060008060008b6005600082815260200190815260200160002080549050600010151562000960576040517f08c379a000000000000000000000000000000000000000000000000000000000815260040180806020018281038252601a8152602001807f6e6f20636172206c6f6767657220666f756e642062792076696e00000000000081525060200191505060405180910390fd5b600560008e8152602001908152602001600020925082805490508c101515620009f1576040517f08c379a000000000000000000000000000000000000000000000000000000000815260040180806020018281038252600c8152602001807f6f7574206f662072616e6765000000000000000000000000000000000000000081525060200191505060405180910390fd5b828c81548110151562000a0057fe5b9060005260206000200160009054906101000a900473ffffffffffffffffffffffffffffffffffffffff1691508173ffffffffffffffffffffffffffffffffffffffff16638da5cb5b6040518163ffffffff167c0100000000000000000000000000000000000000000000000000000000028152600401602060405180830381600087803b15801562000a9257600080fd5b505af115801562000aa7573d6000803e3d6000fd5b505050506040513d602081101562000abe57600080fd5b81019080805190602001909291905050508273ffffffffffffffffffffffffffffffffffffffff1663aca2d4646040518163ffffffff167c0100000000000000000000000000000000000000000000000000000000028152600401602060405180830381600087803b15801562000b3457600080fd5b505af115801562000b49573d6000803e3d6000fd5b505050506040513d602081101562000b6057600080fd5b81019080805190602001909291905050508373ffffffffffffffffffffffffffffffffffffffff1663f32697166040518163ffffffff167c0100000000000000000000000000000000000000000000000000000000028152600401602060405180830381600087803b15801562000bd657600080fd5b505af115801562000beb573d6000803e3d6000fd5b505050506040513d602081101562000c0257600080fd5b81019080805190602001909291905050508473ffffffffffffffffffffffffffffffffffffffff1663a035b1fe6040518163ffffffff167c0100000000000000000000000000000000000000000000000000000000028152600401602060405180830381600087803b15801562000c7857600080fd5b505af115801562000c8d573d6000803e3d6000fd5b505050506040513d602081101562000ca457600080fd5b81019080805190602001909291905050508573ffffffffffffffffffffffffffffffffffffffff16630ad9d0526040518163ffffffff167c0100000000000000000000000000000000000000000000000000000000028152600401600060405180830381600087803b15801562000d1a57600080fd5b505af115801562000d2f573d6000803e3d6000fd5b505050506040513d6000823e3d601f19601f82011682018060405250602081101562000d5a57600080fd5b81019080805164010000000081111562000d7357600080fd5b8281019050602081018481111562000d8a57600080fd5b815185600182028301116401000000008211171562000da857600080fd5b50509291905050508673ffffffffffffffffffffffffffffffffffffffff166302c7e7af6040518163ffffffff167c0100000000000000000000000000000000000000000000000000000000028152600401602060405180830381600087803b15801562000e1557600080fd5b505af115801562000e2a573d6000803e3d6000fd5b505050506040513d602081101562000e4157600080fd5b81019080805190602001909291905050508773ffffffffffffffffffffffffffffffffffffffff1663c19d93fb6040518163ffffffff167c0100000000000000000000000000000000000000000000000000000000028152600401602060405180830381600087803b15801562000eb757600080fd5b505af115801562000ecc573d6000803e3d6000fd5b505050506040513d602081101562000ee357600080fd5b81019080805190602001909291905050508873ffffffffffffffffffffffffffffffffffffffff1663b80777ea6040518163ffffffff167c0100000000000000000000000000000000000000000000000000000000028152600401602060405180830381600087803b15801562000f5957600080fd5b505af115801562000f6e573d6000803e3d6000fd5b505050506040513d602081101562000f8557600080fd5b81019080805190602001909291905050508393509a509a509a509a509a509a509a509a505050509295985092959890939650565b60026020528160005260406000206020528060005260406000206000915091509054906101000a900460ff1681565b60003386600260008373ffffffffffffffffffffffffffffffffffffffff1673ffffffffffffffffffffffffffffffffffffffff168152602001908152602001600020600082815260200190815260200160002060009054906101000a900460ff1680620010a257508173ffffffffffffffffffffffffffffffffffffffff166000809054906101000a900473ffffffffffffffffffffffffffffffffffffffff1673ffffffffffffffffffffffffffffffffffffffff16145b151562001117576040517f08c379a000000000000000000000000000000000000000000000000000000000815260040180806020018281038252601b8152602001807f6e6f2063617220666f756e6420627920616464726573732f76696e000000000081525060200191505060405180910390fd5b60066200112489620035b1565b8154811015156200113157fe5b9060005260206000200160009054906101000a900473ffffffffffffffffffffffffffffffffffffffff1692508273ffffffffffffffffffffffffffffffffffffffff1663ae9a613788888860015489026040518563ffffffff167c010000000000000000000000000000000000000000000000000000000002815260040180806020018481526020018381526020018281038252868682818152602001925080828437820191505095505050505050600060405180830381600087803b158015620011fc57600080fd5b505af115801562001211573d6000803e3d6000fd5b505050506005600089815260200190815260200160002033898989896001548a0260006200123e620039da565b808873ffffffffffffffffffffffffffffffffffffffff1673ffffffffffffffffffffffffffffffffffffffff16815260200187815260200180602001858152602001848152602001831515151581526020018281038252878782818152602001925080828437820191505098505050505050505050604051809103906000f080158015620012d1573d6000803e3d6000fd5b5090806001815401808255809150509060018203906000526020600020016000909192909190916101000a81548173ffffffffffffffffffffffffffffffffffffffff021916908373ffffffffffffffffffffffffffffffffffffffff160217905550507f9896bfaa4b5c77185f664c6d5d6fd8cae37c6b31b0b9b45a9faccd50b0c8c35c88600160405180838152602001821515151581526020019250505060405180910390a15050505050505050565b6005602052816000526040600020818154811015156200139f57fe5b906000526020600020016000915091509054906101000a900473ffffffffffffffffffffffffffffffffffffffff1681565b60036020528060005260406000206000915090505481565b6000816003600082815260200190815260200160002054600010151562001478576040517f08c379a00000000000000000000000000000000000000000000000000000000081526004018080602001828103825260138152602001807f6e6f2063617220666f756e642062792076696e0000000000000000000000000081525060200191505060405180910390fd5b6005600084815260200190815260200160002080549050915050919050565b60003382600260008373ffffffffffffffffffffffffffffffffffffffff1673ffffffffffffffffffffffffffffffffffffffff168152602001908152602001600020600082815260200190815260200160002060009054906101000a900460ff16806200155157508173ffffffffffffffffffffffffffffffffffffffff166000809054906101000a900473ffffffffffffffffffffffffffffffffffffffff1673ffffffffffffffffffffffffffffffffffffffff16145b1515620015c6576040517f08c379a000000000000000000000000000000000000000000000000000000000815260040180806020018281038252601b8152602001807f6e6f2063617220666f756e6420627920616464726573732f76696e000000000081525060200191505060405180910390fd5b6006620015d385620035b1565b815481101515620015e057fe5b9060005260206000200160009054906101000a900473ffffffffffffffffffffffffffffffffffffffff1692508273ffffffffffffffffffffffffffffffffffffffff166317ec5c2d6040518163ffffffff167c0100000000000000000000000000000000000000000000000000000000028152600401600060405180830381600087803b1580156200167257600080fd5b505af115801562001687573d6000803e3d6000fd5b5050505050505050565b6000803383600260008373ffffffffffffffffffffffffffffffffffffffff1673ffffffffffffffffffffffffffffffffffffffff168152602001908152602001600020600082815260200190815260200160002060009054906101000a900460ff16806200174c57508173ffffffffffffffffffffffffffffffffffffffff166000809054906101000a900473ffffffffffffffffffffffffffffffffffffffff1673ffffffffffffffffffffffffffffffffffffffff16145b1515620017c1576040517f08c379a000000000000000000000000000000000000000000000000000000000815260040180806020018281038252601b8152602001807f6e6f2063617220666f756e6420627920616464726573732f76696e000000000081525060200191505060405180910390fd5b620017cc85620035b1565b93508392505b6001600680549050038310156200198457600660018401815481101515620017f657fe5b9060005260206000200160009054906101000a900473ffffffffffffffffffffffffffffffffffffffff166006848154811015156200183157fe5b9060005260206000200160006101000a81548173ffffffffffffffffffffffffffffffffffffffff021916908373ffffffffffffffffffffffffffffffffffffffff160217905550600360006006858154811015156200188d57fe5b9060005260206000200160009054906101000a900473ffffffffffffffffffffffffffffffffffffffff1673ffffffffffffffffffffffffffffffffffffffff1663aca2d4646040518163ffffffff167c0100000000000000000000000000000000000000000000000000000000028152600401602060405180830381600087803b1580156200191c57600080fd5b505af115801562001931573d6000803e3d6000fd5b505050506040513d60208110156200194857600080fd5b810190808051906020019092919050505081526020019081526020016000206000815480929190600190039190505550826001019250620017d2565b60066001600680549050038154811015156200199c57fe5b9060005260206000200160006101000a81549073ffffffffffffffffffffffffffffffffffffffff02191690556006805480919060019003620019e09190620039eb565b5060036000868152602001908152602001600020600090557f9d4d9382d16aed709af37f4e1adb50b5a9e0dc3f077e7026f7eff77f0d74d37985600160405180838152602001821515151581526020019250505060405180910390a15050505050565b62001a88338686868080601f01602080910402602001604051908101604052809392919081815260200183838082843782019150505050505085600154860262003684565b7f510a1a3aad32aaf580a0ad8c8ff8a5b1f5125e9971e11d946226d04f2ee794ae338686866001604051808673ffffffffffffffffffffffffffffffffffffffff1673ffffffffffffffffffffffffffffffffffffffff168152602001858152602001806020018315151515815260200182810382528585828181526020019250808284378201915050965050505050505060405180910390a15050505050565b3373ffffffffffffffffffffffffffffffffffffffff166000809054906101000a900473ffffffffffffffffffffffffffffffffffffffff1673ffffffffffffffffffffffffffffffffffffffff1614151562001bee576040517f08c379a000000000000000000000000000000000000000000000000000000000815260040180806020018281038252601a8152602001807f61726269747261746f7220697320616c6c6f776564206f6e6c7900000000000081525060200191505060405180910390fd5b600060075411151562001c69576040517f08c379a000000000000000000000000000000000000000000000000000000000815260040180806020018281038252600f8152602001807f72657761726420697320656d707479000000000000000000000000000000000081525060200191505060405180910390fd5b3373ffffffffffffffffffffffffffffffffffffffff166108fc6007549081150290604051600060405180830381858888f1935050505015801562001cb2573d6000803e3d6000fd5b506000600781905550565b6000809054906101000a900473ffffffffffffffffffffffffffffffffffffffff1681565b60003073ffffffffffffffffffffffffffffffffffffffff1631905090565b6000806000806060600080600080896003600082815260200190815260200160002054600010151562001d9c576040517f08c379a00000000000000000000000000000000000000000000000000000000081526004018080602001828103825260138152602001807f6e6f2063617220666f756e642062792076696e0000000000000000000000000081525060200191505060405180910390fd5b600662001da98c620035b1565b81548110151562001db657fe5b9060005260206000200160009054906101000a900473ffffffffffffffffffffffffffffffffffffffff1691508173ffffffffffffffffffffffffffffffffffffffff16638da5cb5b6040518163ffffffff167c0100000000000000000000000000000000000000000000000000000000028152600401602060405180830381600087803b15801562001e4857600080fd5b505af115801562001e5d573d6000803e3d6000fd5b505050506040513d602081101562001e7457600080fd5b81019080805190602001909291905050508273ffffffffffffffffffffffffffffffffffffffff1663aca2d4646040518163ffffffff167c0100000000000000000000000000000000000000000000000000000000028152600401602060405180830381600087803b15801562001eea57600080fd5b505af115801562001eff573d6000803e3d6000fd5b505050506040513d602081101562001f1657600080fd5b81019080805190602001909291905050508373ffffffffffffffffffffffffffffffffffffffff1663f32697166040518163ffffffff167c0100000000000000000000000000000000000000000000000000000000028152600401602060405180830381600087803b15801562001f8c57600080fd5b505af115801562001fa1573d6000803e3d6000fd5b505050506040513d602081101562001fb857600080fd5b81019080805190602001909291905050508473ffffffffffffffffffffffffffffffffffffffff1663a035b1fe6040518163ffffffff167c0100000000000000000000000000000000000000000000000000000000028152600401602060405180830381600087803b1580156200202e57600080fd5b505af115801562002043573d6000803e3d6000fd5b505050506040513d60208110156200205a57600080fd5b81019080805190602001909291905050508573ffffffffffffffffffffffffffffffffffffffff16630ad9d0526040518163ffffffff167c0100000000000000000000000000000000000000000000000000000000028152600401600060405180830381600087803b158015620020d057600080fd5b505af1158015620020e5573d6000803e3d6000fd5b505050506040513d6000823e3d601f19601f8201168201806040525060208110156200211057600080fd5b8101908080516401000000008111156200212957600080fd5b828101905060208101848111156200214057600080fd5b81518560018202830111640100000000821117156200215e57600080fd5b50509291905050508673ffffffffffffffffffffffffffffffffffffffff166302c7e7af6040518163ffffffff167c0100000000000000000000000000000000000000000000000000000000028152600401602060405180830381600087803b158015620021cb57600080fd5b505af1158015620021e0573d6000803e3d6000fd5b505050506040513d6020811015620021f757600080fd5b81019080805190602001909291905050508773ffffffffffffffffffffffffffffffffffffffff1663c19d93fb6040518163ffffffff167c0100000000000000000000000000000000000000000000000000000000028152600401602060405180830381600087803b1580156200226d57600080fd5b505af115801562002282573d6000803e3d6000fd5b505050506040513d60208110156200229957600080fd5b81019080805190602001909291905050508873ffffffffffffffffffffffffffffffffffffffff1663b80777ea6040518163ffffffff167c0100000000000000000000000000000000000000000000000000000000028152600401602060405180830381600087803b1580156200230f57600080fd5b505af115801562002324573d6000803e3d6000fd5b505050506040513d60208110156200233b57600080fd5b8101908080519060200190929190505050839350995099509950995099509950995099505050919395975091939597565b60075481565b60008060008060606000806000806006805490508a101515620023fd576040517f08c379a00000000000000000000000000000000000000000000000000000000081526004018080602001828103825260158152602001807f696e646578206973206f7574206f662072616e6765000000000000000000000081525060200191505060405180910390fd5b60068a8154811015156200240d57fe5b9060005260206000200160009054906101000a900473ffffffffffffffffffffffffffffffffffffffff1690508073ffffffffffffffffffffffffffffffffffffffff16638da5cb5b6040518163ffffffff167c0100000000000000000000000000000000000000000000000000000000028152600401602060405180830381600087803b1580156200249f57600080fd5b505af1158015620024b4573d6000803e3d6000fd5b505050506040513d6020811015620024cb57600080fd5b81019080805190602001909291905050508173ffffffffffffffffffffffffffffffffffffffff1663aca2d4646040518163ffffffff167c0100000000000000000000000000000000000000000000000000000000028152600401602060405180830381600087803b1580156200254157600080fd5b505af115801562002556573d6000803e3d6000fd5b505050506040513d60208110156200256d57600080fd5b81019080805190602001909291905050508273ffffffffffffffffffffffffffffffffffffffff1663f32697166040518163ffffffff167c0100000000000000000000000000000000000000000000000000000000028152600401602060405180830381600087803b158015620025e357600080fd5b505af1158015620025f8573d6000803e3d6000fd5b505050506040513d60208110156200260f57600080fd5b81019080805190602001909291905050508373ffffffffffffffffffffffffffffffffffffffff1663a035b1fe6040518163ffffffff167c0100000000000000000000000000000000000000000000000000000000028152600401602060405180830381600087803b1580156200268557600080fd5b505af11580156200269a573d6000803e3d6000fd5b505050506040513d6020811015620026b157600080fd5b81019080805190602001909291905050508473ffffffffffffffffffffffffffffffffffffffff16630ad9d0526040518163ffffffff167c0100000000000000000000000000000000000000000000000000000000028152600401600060405180830381600087803b1580156200272757600080fd5b505af11580156200273c573d6000803e3d6000fd5b505050506040513d6000823e3d601f19601f8201168201806040525060208110156200276757600080fd5b8101908080516401000000008111156200278057600080fd5b828101905060208101848111156200279757600080fd5b8151856001820283011164010000000082111715620027b557600080fd5b50509291905050508573ffffffffffffffffffffffffffffffffffffffff166302c7e7af6040518163ffffffff167c0100000000000000000000000000000000000000000000000000000000028152600401602060405180830381600087803b1580156200282257600080fd5b505af115801562002837573d6000803e3d6000fd5b505050506040513d60208110156200284e57600080fd5b81019080805190602001909291905050508673ffffffffffffffffffffffffffffffffffffffff1663c19d93fb6040518163ffffffff167c0100000000000000000000000000000000000000000000000000000000028152600401602060405180830381600087803b158015620028c457600080fd5b505af1158015620028d9573d6000803e3d6000fd5b505050506040513d6020811015620028f057600080fd5b81019080805190602001909291905050508773ffffffffffffffffffffffffffffffffffffffff1663b80777ea6040518163ffffffff167c0100000000000000000000000000000000000000000000000000000000028152600401602060405180830381600087803b1580156200296657600080fd5b505af11580156200297b573d6000803e3d6000fd5b505050506040513d60208110156200299257600080fd5b81019080805190602001909291905050508393509850985098509850985098509850985050919395975091939597565b6000600680549050905090565b600681815481101515620029df57fe5b906000526020600020016000915054906101000a900473ffffffffffffffffffffffffffffffffffffffff1681565b6000600662002a1d83620035b1565b81548110151562002a2a57fe5b9060005260206000200160009054906101000a900473ffffffffffffffffffffffffffffffffffffffff1690508073ffffffffffffffffffffffffffffffffffffffff166302c7e7af6040518163ffffffff167c0100000000000000000000000000000000000000000000000000000000028152600401602060405180830381600087803b15801562002abc57600080fd5b505af115801562002ad1573d6000803e3d6000fd5b505050506040513d602081101562002ae857600080fd5b810190808051906020019092919050505015151562002b6f576040517f08c379a00000000000000000000000000000000000000000000000000000000081526004018080602001828103825260138152602001807f63617220697320616c726561647920736f6c640000000000000000000000000081525060200191505060405180910390fd5b8073ffffffffffffffffffffffffffffffffffffffff1663d96a094a346040518263ffffffff167c010000000000000000000000000000000000000000000000000000000002815260040180828152602001915050600060405180830381600087803b15801562002bdf57600080fd5b505af115801562002bf4573d6000803e3d6000fd5b5050505034600460003373ffffffffffffffffffffffffffffffffffffffff1673ffffffffffffffffffffffffffffffffffffffff1681526020019081526020016000206000848152602001908152602001600020819055505050565b6000803383600460008373ffffffffffffffffffffffffffffffffffffffff1673ffffffffffffffffffffffffffffffffffffffff1681526020019081526020016000206000828152602001908152602001600020546000108062002d0257508173ffffffffffffffffffffffffffffffffffffffff166000809054906101000a900473ffffffffffffffffffffffffffffffffffffffff1673ffffffffffffffffffffffffffffffffffffffff16145b151562002d77576040517f08c379a000000000000000000000000000000000000000000000000000000000815260040180806020018281038252601d8152602001807f6e6f20626179657220666f756e6420627920616464726573732f76696e00000081525060200191505060405180910390fd5b600662002d8486620035b1565b81548110151562002d9157fe5b9060005260206000200160009054906101000a900473ffffffffffffffffffffffffffffffffffffffff169350600460003373ffffffffffffffffffffffffffffffffffffffff1673ffffffffffffffffffffffffffffffffffffffff1681526020019081526020016000206000868152602001908152602001600020600090556064600a8573ffffffffffffffffffffffffffffffffffffffff1663a035b1fe6040518163ffffffff167c0100000000000000000000000000000000000000000000000000000000028152600401602060405180830381600087803b15801562002e7b57600080fd5b505af115801562002e90573d6000803e3d6000fd5b505050506040513d602081101562002ea757600080fd5b81019080805190602001909291905050500281151562002ec357fe5b0492508373ffffffffffffffffffffffffffffffffffffffff16638da5cb5b6040518163ffffffff167c0100000000000000000000000000000000000000000000000000000000028152600401602060405180830381600087803b15801562002f2b57600080fd5b505af115801562002f40573d6000803e3d6000fd5b505050506040513d602081101562002f5757600080fd5b810190808051906020019092919050505073ffffffffffffffffffffffffffffffffffffffff166108fc848673ffffffffffffffffffffffffffffffffffffffff1663a035b1fe6040518163ffffffff167c0100000000000000000000000000000000000000000000000000000000028152600401602060405180830381600087803b15801562002fe757600080fd5b505af115801562002ffc573d6000803e3d6000fd5b505050506040513d60208110156200301357600080fd5b8101908080519060200190929190505050039081150290604051600060405180830381858888f1935050505015801562003051573d6000803e3d6000fd5b508373ffffffffffffffffffffffffffffffffffffffff16639f7aee82336040518263ffffffff167c0100000000000000000000000000000000000000000000000000000000028152600401808273ffffffffffffffffffffffffffffffffffffffff1673ffffffffffffffffffffffffffffffffffffffff168152602001915050600060405180830381600087803b158015620030ee57600080fd5b505af115801562003103573d6000803e3d6000fd5b50505050826007600082825401925050819055506005600086815260200190815260200160002033868673ffffffffffffffffffffffffffffffffffffffff16630ad9d0526040518163ffffffff167c0100000000000000000000000000000000000000000000000000000000028152600401600060405180830381600087803b1580156200319157600080fd5b505af1158015620031a6573d6000803e3d6000fd5b505050506040513d6000823e3d601f19601f820116820180604052506020811015620031d157600080fd5b810190808051640100000000811115620031ea57600080fd5b828101905060208101848111156200320157600080fd5b81518560018202830111640100000000821117156200321f57600080fd5b50509291905050508773ffffffffffffffffffffffffffffffffffffffff1663f32697166040518163ffffffff167c0100000000000000000000000000000000000000000000000000000000028152600401602060405180830381600087803b1580156200328c57600080fd5b505af1158015620032a1573d6000803e3d6000fd5b505050506040513d6020811015620032b857600080fd5b81019080805190602001909291905050508873ffffffffffffffffffffffffffffffffffffffff1663a035b1fe6040518163ffffffff167c0100000000000000000000000000000000000000000000000000000000028152600401602060405180830381600087803b1580156200332e57600080fd5b505af115801562003343573d6000803e3d6000fd5b505050506040513d60208110156200335a57600080fd5b8101908080519060200190929190505050600162003377620039da565b808773ffffffffffffffffffffffffffffffffffffffff1673ffffffffffffffffffffffffffffffffffffffff1681526020018681526020018060200185815260200184815260200183151515158152602001828103825286818151815260200191508051906020019080838360005b8381101562003404578082015181840152602081019050620033e7565b50505050905090810190601f168015620034325780820380516001836020036101000a031916815260200191505b50975050505050505050604051809103906000f08015801562003459573d6000803e3d6000fd5b5090806001815401808255809150509060018203906000526020600020016000909192909190916101000a81548173ffffffffffffffffffffffffffffffffffffffff021916908373ffffffffffffffffffffffffffffffffffffffff160217905550507fb8699cbbf451aa7e830582e308398b69613831fd8d851865054406a655da4c37858573ffffffffffffffffffffffffffffffffffffffff1663a035b1fe6040518163ffffffff167c0100000000000000000000000000000000000000000000000000000000028152600401602060405180830381600087803b1580156200354457600080fd5b505af115801562003559573d6000803e3d6000fd5b505050506040513d60208110156200357057600080fd5b810190808051906020019092919050505060016040518084815260200183815260200182151515158152602001935050505060405180910390a15050505050565b600060036000838152602001908152602001600020546000108015620035f157506006805490506001600360008581526020019081526020016000205403105b151562003666576040517f08c379a00000000000000000000000000000000000000000000000000000000081526004018080602001828103825260148152602001807f6e6f742076616c69642063617227732076696e2000000000000000000000000081525060200191505060405180910390fd5b60016003600084815260200190815260200160002054039050919050565b60008585858585600062003697620039da565b808773ffffffffffffffffffffffffffffffffffffffff1673ffffffffffffffffffffffffffffffffffffffff1681526020018681526020018060200185815260200184815260200183151515158152602001828103825286818151815260200191508051906020019080838360005b838110156200372457808201518184015260208101905062003707565b50505050905090810190601f168015620037525780820380516001836020036101000a031916815260200191505b50975050505050505050604051809103906000f08015801562003779573d6000803e3d6000fd5b50905060068190806001815401808255809150509060018203906000526020600020016000909192909190916101000a81548173ffffffffffffffffffffffffffffffffffffffff021916908373ffffffffffffffffffffffffffffffffffffffff16021790555050600560008681526020019081526020016000208686868686600062003806620039da565b808773ffffffffffffffffffffffffffffffffffffffff1673ffffffffffffffffffffffffffffffffffffffff1681526020018681526020018060200185815260200184815260200183151515158152602001828103825286818151815260200191508051906020019080838360005b838110156200389357808201518184015260208101905062003876565b50505050905090810190601f168015620038c15780820380516001836020036101000a031916815260200191505b50975050505050505050604051809103906000f080158015620038e8573d6000803e3d6000fd5b5090806001815401808255809150509060018203906000526020600020016000909192909190916101000a81548173ffffffffffffffffffffffffffffffffffffffff021916908373ffffffffffffffffffffffffffffffffffffffff1602179055505060068054905060036000878152602001908152602001600020819055506001600260008873ffffffffffffffffffffffffffffffffffffffff1673ffffffffffffffffffffffffffffffffffffffff168152602001908152602001600020600087815260200190815260200160002060006101000a81548160ff021916908315150217905550505050505050565b604051610ab18062003a4383390190565b81548183558181111562003a155781836000526020600020918201910162003a14919062003a1a565b5b505050565b62003a3f91905b8082111562003a3b57600081600090555060010162003a21565b5090565b905600608060405234801561001057600080fd5b50604051610ab1380380610ab1833981018060405281019080805190602001909291908051906020019092919080518201929190602001805190602001909291908051906020019092919080519060200190929190505050856000806101000a81548173ffffffffffffffffffffffffffffffffffffffff021916908373ffffffffffffffffffffffffffffffffffffffff16021790555084600181905550826002819055508160038190555083600490805190602001906100d3929190610124565b504260068190555080600560016101000a81548160ff0219169083151502179055506000600560006101000a81548160ff0219169083600381111561011457fe5b02179055505050505050506101c9565b828054600181600116156101000203166002900490600052602060002090601f016020900481019282601f1061016557805160ff1916838001178555610193565b82800160010185558215610193579182015b82811115610192578251825591602001919060010190610177565b5b5090506101a091906101a4565b5090565b6101c691905b808211156101c25760008160009055506001016101aa565b5090565b90565b6108d9806101d86000396000f3006080604052600436106100ba576000357c0100000000000000000000000000000000000000000000000000000000900463ffffffff16806302c7e7af146100bf5780630ad9d052146100ee57806317ec5c2d1461017e5780638da5cb5b146101955780639f7aee82146101ec578063a035b1fe1461022f578063aca2d4641461025a578063ae9a613714610285578063b80777ea14610302578063c19d93fb1461032d578063d96a094a14610366578063f326971614610386575b600080fd5b3480156100cb57600080fd5b506100d46103b1565b604051808215151515815260200191505060405180910390f35b3480156100fa57600080fd5b506101036103c4565b6040518080602001828103825283818151815260200191508051906020019080838360005b83811015610143578082015181840152602081019050610128565b50505050905090810190601f1680156101705780820380516001836020036101000a031916815260200191505b509250505060405180910390f35b34801561018a57600080fd5b50610193610462565b005b3480156101a157600080fd5b506101aa610527565b604051808273ffffffffffffffffffffffffffffffffffffffff1673ffffffffffffffffffffffffffffffffffffffff16815260200191505060405180910390f35b3480156101f857600080fd5b5061022d600480360381019080803573ffffffffffffffffffffffffffffffffffffffff16906020019092919050505061054c565b005b34801561023b57600080fd5b5061024461066d565b6040518082815260200191505060405180910390f35b34801561026657600080fd5b5061026f610673565b6040518082815260200191505060405180910390f35b34801561029157600080fd5b50610300600480360381019080803590602001908201803590602001908080601f01602080910402602001604051908101604052809392919081815260200183838082843782019150505050505091929192908035906020019092919080359060200190929190505050610679565b005b34801561030e57600080fd5b506103176106aa565b6040518082815260200191505060405180910390f35b34801561033957600080fd5b506103426106b0565b6040518082600381111561035257fe5b60ff16815260200191505060405180910390f35b610384600480360381019080803590602001909291905050506106c3565b005b34801561039257600080fd5b5061039b610802565b6040518082815260200191505060405180910390f35b600560019054906101000a900460ff1681565b60048054600181600116156101000203166002900480601f01602080910402602001604051908101604052809291908181526020018280546001816001161561010002031660029004801561045a5780601f1061042f5761010080835404028352916020019161045a565b820191906000526020600020905b81548152906001019060200180831161043d57829003601f168201915b505050505081565b600180600381111561047057fe5b600560009054906101000a900460ff16600381111561048b57fe5b141515610500576040517f08c379a000000000000000000000000000000000000000000000000000000000815260040180806020018281038252600f8152602001807f6e6f742076616c6964207374617465000000000000000000000000000000000081525060200191505060405180910390fd5b6002600560006101000a81548160ff0219169083600381111561051f57fe5b021790555050565b6000809054906101000a900473ffffffffffffffffffffffffffffffffffffffff1681565b600280600381111561055a57fe5b600560009054906101000a900460ff16600381111561057557fe5b1415156105ea576040517f08c379a000000000000000000000000000000000000000000000000000000000815260040180806020018281038252600f8152602001807f6e6f742076616c6964207374617465000000000000000000000000000000000081525060200191505060405180910390fd5b6003600560006101000a81548160ff0219169083600381111561060957fe5b02179055506001600560016101000a81548160ff021916908315150217905550816000806101000a81548173ffffffffffffffffffffffffffffffffffffffff021916908373ffffffffffffffffffffffffffffffffffffffff1602179055505050565b60035481565b60015481565b8160028190555080600381905550826004908051906020019061069d929190610808565b5042600681905550505050565b60065481565b600560009054906101000a900460ff1681565b60008060038111156106d157fe5b600560009054906101000a900460ff1660038111156106ec57fe5b141515610761576040517f08c379a000000000000000000000000000000000000000000000000000000000815260040180806020018281038252600f8152602001807f6e6f742076616c6964207374617465000000000000000000000000000000000081525060200191505060405180910390fd5b600354821415156107da576040517f08c379a000000000000000000000000000000000000000000000000000000000815260040180806020018281038252601c8152602001807f616d6f756e74206973206e6f7420657175616c20746f2070726963650000000081525060200191505060405180910390fd5b6001600560006101000a81548160ff021916908360038111156107f957fe5b02179055505050565b60025481565b828054600181600116156101000203166002900490600052602060002090601f016020900481019282601f1061084957805160ff1916838001178555610877565b82800160010185558215610877579182015b8281111561087657825182559160200191906001019061085b565b5b5090506108849190610888565b5090565b6108aa91905b808211156108a657600081600090555060010161088e565b5090565b905600a165627a7a723058205697c81a4b4ebfa04468ac2c821a8755be4f18a2494e6a3f27c290c1ef6d1df60029a165627a7a723058206fd6307c71c02a0184c6bdc7baa1137ddccd9475ff59d4bf0158c806f6531a0d0029608060405234801561001057600080fd5b50604051610ab1380380610ab1833981018060405281019080805190602001909291908051906020019092919080518201929190602001805190602001909291908051906020019092919080519060200190929190505050856000806101000a81548173ffffffffffffffffffffffffffffffffffffffff021916908373ffffffffffffffffffffffffffffffffffffffff16021790555084600181905550826002819055508160038190555083600490805190602001906100d3929190610124565b504260068190555080600560016101000a81548160ff0219169083151502179055506000600560006101000a81548160ff0219169083600381111561011457fe5b02179055505050505050506101c9565b828054600181600116156101000203166002900490600052602060002090601f016020900481019282601f1061016557805160ff1916838001178555610193565b82800160010185558215610193579182015b82811115610192578251825591602001919060010190610177565b5b5090506101a091906101a4565b5090565b6101c691905b808211156101c25760008160009055506001016101aa565b5090565b90565b6108d9806101d86000396000f3006080604052600436106100ba576000357c0100000000000000000000000000000000000000000000000000000000900463ffffffff16806302c7e7af146100bf5780630ad9d052146100ee57806317ec5c2d1461017e5780638da5cb5b146101955780639f7aee82146101ec578063a035b1fe1461022f578063aca2d4641461025a578063ae9a613714610285578063b80777ea14610302578063c19d93fb1461032d578063d96a094a14610366578063f326971614610386575b600080fd5b3480156100cb57600080fd5b506100d46103b1565b604051808215151515815260200191505060405180910390f35b3480156100fa57600080fd5b506101036103c4565b6040518080602001828103825283818151815260200191508051906020019080838360005b83811015610143578082015181840152602081019050610128565b50505050905090810190601f1680156101705780820380516001836020036101000a031916815260200191505b509250505060405180910390f35b34801561018a57600080fd5b50610193610462565b005b3480156101a157600080fd5b506101aa610527565b604051808273ffffffffffffffffffffffffffffffffffffffff1673ffffffffffffffffffffffffffffffffffffffff16815260200191505060405180910390f35b3480156101f857600080fd5b5061022d600480360381019080803573ffffffffffffffffffffffffffffffffffffffff16906020019092919050505061054c565b005b34801561023b57600080fd5b5061024461066d565b6040518082815260200191505060405180910390f35b34801561026657600080fd5b5061026f610673565b6040518082815260200191505060405180910390f35b34801561029157600080fd5b50610300600480360381019080803590602001908201803590602001908080601f01602080910402602001604051908101604052809392919081815260200183838082843782019150505050505091929192908035906020019092919080359060200190929190505050610679565b005b34801561030e57600080fd5b506103176106aa565b6040518082815260200191505060405180910390f35b34801561033957600080fd5b506103426106b0565b6040518082600381111561035257fe5b60ff16815260200191505060405180910390f35b610384600480360381019080803590602001909291905050506106c3565b005b34801561039257600080fd5b5061039b610802565b6040518082815260200191505060405180910390f35b600560019054906101000a900460ff1681565b60048054600181600116156101000203166002900480601f01602080910402602001604051908101604052809291908181526020018280546001816001161561010002031660029004801561045a5780601f1061042f5761010080835404028352916020019161045a565b820191906000526020600020905b81548152906001019060200180831161043d57829003601f168201915b505050505081565b600180600381111561047057fe5b600560009054906101000a900460ff16600381111561048b57fe5b141515610500576040517f08c379a000000000000000000000000000000000000000000000000000000000815260040180806020018281038252600f8152602001807f6e6f742076616c6964207374617465000000000000000000000000000000000081525060200191505060405180910390fd5b6002600560006101000a81548160ff0219169083600381111561051f57fe5b021790555050565b6000809054906101000a900473ffffffffffffffffffffffffffffffffffffffff1681565b600280600381111561055a57fe5b600560009054906101000a900460ff16600381111561057557fe5b1415156105ea576040517f08c379a000000000000000000000000000000000000000000000000000000000815260040180806020018281038252600f8152602001807f6e6f742076616c6964207374617465000000000000000000000000000000000081525060200191505060405180910390fd5b6003600560006101000a81548160ff0219169083600381111561060957fe5b02179055506001600560016101000a81548160ff021916908315150217905550816000806101000a81548173ffffffffffffffffffffffffffffffffffffffff021916908373ffffffffffffffffffffffffffffffffffffffff1602179055505050565b60035481565b60015481565b8160028190555080600381905550826004908051906020019061069d929190610808565b5042600681905550505050565b60065481565b600560009054906101000a900460ff1681565b60008060038111156106d157fe5b600560009054906101000a900460ff1660038111156106ec57fe5b141515610761576040517f08c379a000000000000000000000000000000000000000000000000000000000815260040180806020018281038252600f8152602001807f6e6f742076616c6964207374617465000000000000000000000000000000000081525060200191505060405180910390fd5b600354821415156107da576040517f08c379a000000000000000000000000000000000000000000000000000000000815260040180806020018281038252601c8152602001807f616d6f756e74206973206e6f7420657175616c20746f2070726963650000000081525060200191505060405180910390fd5b6001600560006101000a81548160ff021916908360038111156107f957fe5b02179055505050565b60025481565b828054600181600116156101000203166002900490600052602060002090601f016020900481019282601f1061084957805160ff1916838001178555610877565b82800160010185558215610877579182015b8281111561087657825182559160200191906001019061085b565b5b5090506108849190610888565b5090565b6108aa91905b808211156108a657600081600090555060010161088e565b5090565b905600a165627a7a723058205697c81a4b4ebfa04468ac2c821a8755be4f18a2494e6a3f27c290c1ef6d1df60029",
  "source": "pragma solidity ^0.4.24;\r\n\r\nimport \"./Arbitrator.sol\";\r\nimport \"./Car.sol\";\r\n\r\ncontract CarShop is Arbitrator{\r\n\r\n    //convert from ether to wei\r\n    uint private WEI = 10 ** uint256(18);\r\n\r\n    //---------------------events--------------------------//\r\n    event Delete(uint vin, bool success);\r\n    event Edit(uint vin, bool success);\r\n    event Add (address owner,uint vin, string model, bool success);\r\n\r\n    event ConfirmSelling(uint vin, uint price,  bool success);\r\n\r\n    //---------------------members--------------------------//\r\n    //uint - VIN\r\n    mapping (address => mapping (uint => bool)) public carAccessibility;\r\n\r\n    //vin => index\r\n    mapping(uint => uint) public carIndex;\r\n\r\n    //vin => amount\r\n    mapping(address => mapping (uint => uint)) buyer;\r\n\r\n    // all  history chain of the car\r\n    mapping (uint => Car []) public carLogger;\r\n    //car list\r\n    Car [] public carsArr;\r\n\r\n    // reward which is allowed to be withdrawn by shop.\r\n    uint public rewardAllowed;\r\n\r\n    //---------------------functions--------------------------//\r\n\r\n    function getContractBalance() external view returns (uint balance){\r\n        return address(this).balance;\r\n    }\r\n\r\n    function getNumberOfCars() external view returns(uint index){\r\n        return carsArr.length;\r\n    }\r\n\r\n    function createCar(address owner, uint vin, string model, uint year, uint price) private{\r\n\r\n        Car car = new Car( owner,vin, model, year, price, false );\r\n        carsArr.push(car);\r\n\r\n        //create a copy in order to track a full car history.Expensive\r\n        carLogger[vin].push(new Car( owner,vin, model, year, price, false ));\r\n\r\n        carIndex [vin] = carsArr.length;\r\n        carAccessibility[owner][vin] = true;\r\n    }\r\n\r\n    constructor( )   public {\r\n        createCar(msg.sender, 0, \"Honda\", 2008, 1 * WEI);\r\n        //createCar(msg.sender, 1, \"BMW\",   2010, 2 * WEI);\r\n        //createCar(msg.sender, 2, \"Merc\",  2012, 3 * WEI);\r\n    }\r\n\r\n    function deleteCar(uint vin) public isOwnerVinAvailability(msg.sender, vin) {\r\n\r\n        uint index = getCarIndex(vin);\r\n\r\n        for(uint i = index; i < carsArr.length - 1; ++i){\r\n            carsArr[i] = carsArr[i+1];\r\n            //update car index respectively\r\n            carIndex[carsArr[i].vin()]--;\r\n        }\r\n\r\n        delete carsArr[carsArr.length-1];\r\n        carsArr.length--;\r\n\r\n        delete carIndex[vin];\r\n\r\n        emit Delete(vin, true);\r\n    }\r\n\r\n    function editCar(uint vin, string model, uint year, uint price) external isOwnerVinAvailability(msg.sender, vin)  {\r\n\r\n        Car car = carsArr[ getCarIndex(vin)];\r\n\r\n        car.edit( model, year, price * WEI);\r\n\r\n        //create a copy in order to track a full car history.Expensive\r\n        carLogger[vin].push(new Car( msg.sender,vin, model, year, price * WEI, false ));\r\n\r\n        emit Edit(vin, true);\r\n    }\r\n\r\n    function addCar(uint vin, string model, uint year, uint price) external {\r\n\r\n        createCar(msg.sender, vin, model, year, price * WEI);\r\n\r\n        emit Add (msg.sender,vin, model,  true);\r\n    }\r\n\r\n    function buy(uint vin) external payable {\r\n\r\n        Car car = carsArr[ getCarIndex(vin)];\r\n\r\n        require(!car.sold(),\"car is already sold\");\r\n\r\n        car.buy(msg.value);\r\n\r\n        buyer[msg.sender][vin] = msg.value;\r\n    }\r\n\r\n    function sendDelivery(uint vin)  external isOwnerVinAvailability(msg.sender, vin){\r\n\r\n        Car car = carsArr[ getCarIndex(vin)];\r\n\r\n        car.sendDelivery();\r\n    }\r\n\r\n    function confirmDelivery(uint vin) external isBuyerAvailability(msg.sender, vin){\r\n        Car car = carsArr[ getCarIndex(vin)];\r\n\r\n        delete buyer[msg.sender][vin];\r\n\r\n        //company takes 10 percent for service :)\r\n        uint companyReward = car.price() * 10 / 100;\r\n        //send money to seller\r\n        car.owner().transfer(car.price() - companyReward);\r\n\r\n        //change owner\r\n        car.confirmDelivery(msg.sender);\r\n\r\n        rewardAllowed += companyReward;\r\n\r\n        //create a copy in order to track a full car history.Expensive\r\n        carLogger[vin].push(new Car( msg.sender,vin, car.model(), car.year(), car.price(), true ));\r\n\r\n        emit ConfirmSelling(vin, car.price(), true);\r\n    }\r\n\r\n    function withdrawAllReward() public onlyOwner{\r\n        require(rewardAllowed > 0, \"reward is empty\");\r\n\r\n        msg.sender.transfer(rewardAllowed);\r\n        rewardAllowed = 0;\r\n    }\r\n\r\n    function getCarByVin( uint _vin) external view isVINAvailability(_vin)\r\n    returns (  address  owner, uint vin, uint year, uint price, string model,bool sold, Car.State state, uint timestamp ){\r\n\r\n        Car car = carsArr[ getCarIndex(_vin)];\r\n\r\n        return (car.owner(), car.vin(),car.year(),car.price(),car.model(), car.sold(), car.state(), car.timestamp());\r\n    }\r\n\r\n    function getCarByIndex(uint index) external view\r\n    returns ( address  owner, uint vin, uint year, uint price, string model,bool sold, Car.State state, uint timestamp ){\r\n        require(index < carsArr.length, \"index is out of range\");\r\n\r\n        Car car = carsArr[index];\r\n\r\n        return (car.owner(), car.vin(),car.year(),car.price(),car.model(), car.sold(), car.state(), car.timestamp());\r\n    }\r\n\r\n    function getHistoryLogCarLength(uint _vin) external view isVINAvailability(_vin) returns( uint length){\r\n        return carLogger[_vin].length;\r\n    }\r\n\r\n    function getHistoryLogCar(uint _vin, uint _idx) external view isCarLoggerVINAvailability(_vin)\r\n    returns ( address  owner, uint vin, uint year, uint price, string model,bool sold, Car.State state, uint timestamp ){\r\n\r\n        //use storage to save gas\r\n        Car  [] storage carArray  = carLogger[_vin];\r\n\r\n        require(_idx < carArray.length,\"out of range\");\r\n\r\n        Car car = carArray[_idx];\r\n\r\n        return (car.owner(), car.vin(),car.year(),car.price(),car.model(), car.sold(), car.state(), car.timestamp());\r\n    }\r\n\r\n\r\n    function getCarIndex(uint vin) private view returns(uint){\r\n        require(0 < carIndex[vin] && carIndex[vin] - 1 < carsArr.length , \"not valid car's vin \");\r\n        return carIndex[vin] - 1; // on purpuse to have a correct index\r\n    }\r\n\r\n\r\n    modifier isOwnerVinAvailability(address sender, uint vin) {\r\n        require(carAccessibility[sender][vin] || arbitrator == sender, \"no car found by address/vin\");\r\n        _;\r\n    }\r\n\r\n    modifier isBuyerAvailability(address sender, uint _vin) {\r\n        require(0 < buyer[sender][_vin] || arbitrator == sender, \"no bayer found by address/vin\");\r\n        _;\r\n    }\r\n\r\n    modifier isVINAvailability( uint vin) {\r\n        require(0 < carIndex[vin], \"no car found by vin\");\r\n        _;\r\n    }\r\n\r\n    modifier isCarLoggerVINAvailability( uint vin) {\r\n        require(0 < carLogger[vin].length, \"no car logger found by vin\");\r\n        _;\r\n    }\r\n}",
  "sourcePath": "D:\\MyProgrames\\blockchain\\ethereum\\car_shop\\contracts\\CarShop.sol",
  "compiler": {
    "name": "solc",
    "version": "0.4.25+commit.59dbf8f1.Emscripten.clang"
  },
  "schemaVersion": "2.0.2",
  "updatedAt": "2019-07-18T13:04:21.118Z"
}