{
  "contractName": "CarShop",
  "abi": [
    {
      "constant": true,
      "inputs": [
        {
          "name": "",
          "type": "address"
        },
        {
          "name": "",
          "type": "uint256"
        }
      ],
      "name": "carAccessibility",
      "outputs": [
        {
          "name": "",
          "type": "bool"
        }
      ],
      "payable": false,
      "stateMutability": "view",
      "type": "function"
    },
    {
      "constant": true,
      "inputs": [
        {
          "name": "",
          "type": "uint256"
        },
        {
          "name": "",
          "type": "uint256"
        }
      ],
      "name": "carLogger",
      "outputs": [
        {
          "name": "",
          "type": "address"
        }
      ],
      "payable": false,
      "stateMutability": "view",
      "type": "function"
    },
    {
      "constant": true,
      "inputs": [
        {
          "name": "",
          "type": "uint256"
        }
      ],
      "name": "carIndex",
      "outputs": [
        {
          "name": "",
          "type": "uint256"
        }
      ],
      "payable": false,
      "stateMutability": "view",
      "type": "function"
    },
    {
      "constant": true,
      "inputs": [],
      "name": "arbitrator",
      "outputs": [
        {
          "name": "",
          "type": "address"
        }
      ],
      "payable": false,
      "stateMutability": "view",
      "type": "function"
    },
    {
      "constant": true,
      "inputs": [],
      "name": "rewardAllowed",
      "outputs": [
        {
          "name": "",
          "type": "uint256"
        }
      ],
      "payable": false,
      "stateMutability": "view",
      "type": "function"
    },
    {
      "constant": true,
      "inputs": [
        {
          "name": "",
          "type": "uint256"
        }
      ],
      "name": "carsArr",
      "outputs": [
        {
          "name": "",
          "type": "address"
        }
      ],
      "payable": false,
      "stateMutability": "view",
      "type": "function"
    },
    {
      "anonymous": false,
      "inputs": [
        {
          "indexed": false,
          "name": "vin",
          "type": "uint256"
        },
        {
          "indexed": false,
          "name": "success",
          "type": "bool"
        }
      ],
      "name": "Delete",
      "type": "event"
    },
    {
      "anonymous": false,
      "inputs": [
        {
          "indexed": false,
          "name": "vin",
          "type": "uint256"
        },
        {
          "indexed": false,
          "name": "success",
          "type": "bool"
        }
      ],
      "name": "Edit",
      "type": "event"
    },
    {
      "anonymous": false,
      "inputs": [
        {
          "indexed": false,
          "name": "owner",
          "type": "address"
        },
        {
          "indexed": false,
          "name": "vin",
          "type": "uint256"
        },
        {
          "indexed": false,
          "name": "model",
          "type": "bytes32"
        },
        {
          "indexed": false,
          "name": "success",
          "type": "bool"
        }
      ],
      "name": "Add",
      "type": "event"
    },
    {
      "anonymous": false,
      "inputs": [
        {
          "indexed": false,
          "name": "vin",
          "type": "uint256"
        },
        {
          "indexed": false,
          "name": "price",
          "type": "uint256"
        },
        {
          "indexed": false,
          "name": "success",
          "type": "bool"
        }
      ],
      "name": "ConfirmSelling",
      "type": "event"
    },
    {
      "constant": true,
      "inputs": [],
      "name": "getOwner",
      "outputs": [
        {
          "name": "owner",
          "type": "address"
        }
      ],
      "payable": false,
      "stateMutability": "view",
      "type": "function"
    },
    {
      "constant": true,
      "inputs": [],
      "name": "getContractBalance",
      "outputs": [
        {
          "name": "balance",
          "type": "uint256"
        }
      ],
      "payable": false,
      "stateMutability": "view",
      "type": "function"
    },
    {
      "constant": true,
      "inputs": [],
      "name": "getNumberOfCars",
      "outputs": [
        {
          "name": "index",
          "type": "uint256"
        }
      ],
      "payable": false,
      "stateMutability": "view",
      "type": "function"
    },
    {
      "constant": false,
      "inputs": [
        {
          "name": "vin",
          "type": "uint256"
        }
      ],
      "name": "deleteCar",
      "outputs": [],
      "payable": false,
      "stateMutability": "nonpayable",
      "type": "function"
    },
    {
      "constant": false,
      "inputs": [
        {
          "name": "vin",
          "type": "uint256"
        },
        {
          "name": "model",
          "type": "bytes32"
        },
        {
          "name": "year",
          "type": "uint256"
        },
        {
          "name": "price",
          "type": "uint256"
        },
        {
          "name": "image",
          "type": "string"
        }
      ],
      "name": "editCar",
      "outputs": [],
      "payable": false,
      "stateMutability": "nonpayable",
      "type": "function"
    },
    {
      "constant": false,
      "inputs": [
        {
          "name": "vin",
          "type": "uint256"
        },
        {
          "name": "model",
          "type": "bytes32"
        },
        {
          "name": "year",
          "type": "uint256"
        },
        {
          "name": "price",
          "type": "uint256"
        },
        {
          "name": "image",
          "type": "string"
        }
      ],
      "name": "addCar",
      "outputs": [],
      "payable": false,
      "stateMutability": "nonpayable",
      "type": "function"
    },
    {
      "constant": false,
      "inputs": [
        {
          "name": "vin",
          "type": "uint256"
        }
      ],
      "name": "buy",
      "outputs": [],
      "payable": true,
      "stateMutability": "payable",
      "type": "function"
    },
    {
      "constant": false,
      "inputs": [
        {
          "name": "vin",
          "type": "uint256"
        }
      ],
      "name": "sendDelivery",
      "outputs": [],
      "payable": false,
      "stateMutability": "nonpayable",
      "type": "function"
    },
    {
      "constant": false,
      "inputs": [
        {
          "name": "vin",
          "type": "uint256"
        }
      ],
      "name": "confirmDelivery",
      "outputs": [],
      "payable": false,
      "stateMutability": "nonpayable",
      "type": "function"
    },
    {
      "constant": false,
      "inputs": [],
      "name": "withdrawAllReward",
      "outputs": [],
      "payable": false,
      "stateMutability": "nonpayable",
      "type": "function"
    },
    {
      "constant": true,
      "inputs": [
        {
          "name": "_vin",
          "type": "uint256"
        }
      ],
      "name": "getCarByVin",
      "outputs": [
        {
          "name": "owner",
          "type": "address"
        },
        {
          "name": "buyerAdd",
          "type": "address"
        },
        {
          "name": "vin",
          "type": "uint256"
        },
        {
          "name": "year",
          "type": "uint256"
        },
        {
          "name": "price",
          "type": "uint256"
        },
        {
          "name": "model",
          "type": "bytes32"
        },
        {
          "name": "sold",
          "type": "bool"
        },
        {
          "name": "image",
          "type": "string"
        },
        {
          "name": "state",
          "type": "uint8"
        },
        {
          "name": "timestamp",
          "type": "uint256"
        }
      ],
      "payable": false,
      "stateMutability": "view",
      "type": "function"
    },
    {
      "constant": true,
      "inputs": [
        {
          "name": "index",
          "type": "uint256"
        }
      ],
      "name": "getCarByIndex",
      "outputs": [
        {
          "name": "owner",
          "type": "address"
        },
        {
          "name": "buyerAdd",
          "type": "address"
        },
        {
          "name": "vin",
          "type": "uint256"
        },
        {
          "name": "year",
          "type": "uint256"
        },
        {
          "name": "price",
          "type": "uint256"
        },
        {
          "name": "model",
          "type": "bytes32"
        },
        {
          "name": "sold",
          "type": "bool"
        },
        {
          "name": "image",
          "type": "string"
        },
        {
          "name": "state",
          "type": "uint8"
        },
        {
          "name": "timestamp",
          "type": "uint256"
        }
      ],
      "payable": false,
      "stateMutability": "view",
      "type": "function"
    },
    {
      "constant": true,
      "inputs": [
        {
          "name": "_vin",
          "type": "uint256"
        }
      ],
      "name": "getHistoryLogCarLength",
      "outputs": [
        {
          "name": "length",
          "type": "uint256"
        }
      ],
      "payable": false,
      "stateMutability": "view",
      "type": "function"
    },
    {
      "constant": true,
      "inputs": [
        {
          "name": "_vin",
          "type": "uint256"
        },
        {
          "name": "_idx",
          "type": "uint256"
        }
      ],
      "name": "getHistoryLogCar",
      "outputs": [
        {
          "name": "owner",
          "type": "address"
        },
        {
          "name": "vendee",
          "type": "address"
        },
        {
          "name": "vin",
          "type": "uint256"
        },
        {
          "name": "year",
          "type": "uint256"
        },
        {
          "name": "price",
          "type": "uint256"
        },
        {
          "name": "model",
          "type": "bytes32"
        },
        {
          "name": "image",
          "type": "string"
        },
        {
          "name": "state",
          "type": "uint8"
        }
      ],
      "payable": false,
      "stateMutability": "view",
      "type": "function"
    }
  ],
  "bytecode": "0x60806040526012600a0a600155336000806101000a81548173ffffffffffffffffffffffffffffffffffffffff021916908373ffffffffffffffffffffffffffffffffffffffff160217905550614e248061005b6000396000f30060806040526004361062000127576000357c0100000000000000000000000000000000000000000000000000000000900463ffffffff16806309538940146200012c578063193e364f14620002825780631e3a9f9e14620002ea578063216b39d01462000364578063326181df14620003a85780634ec3b05114620004125780635e3c576214620004565780636009808814620004865780636b37fbaa14620004b65780636cc6cde114620004d05780636f9fb98a146200052a5780637a8da44c14620005585780638199feb014620005c2578063893d20e814620007205780638c0ecc33146200077a57806397d4116414620007a8578063b85ce4e91462000906578063c6dea50b1462000934578063d96a094a14620009a4578063fd84cb9714620009c6575b600080fd5b3480156200013957600080fd5b50620001646004803603810190808035906020019092919080359060200190929190505050620009f6565b604051808973ffffffffffffffffffffffffffffffffffffffff1673ffffffffffffffffffffffffffffffffffffffff1681526020018873ffffffffffffffffffffffffffffffffffffffff1673ffffffffffffffffffffffffffffffffffffffff168152602001878152602001868152602001858152602001846000191660001916815260200180602001836003811115620001fd57fe5b60ff168152602001828103825284818151815260200191508051906020019080838360005b838110156200023f57808201518184015260208101905062000222565b50505050905090810190601f1680156200026d5780820380516001836020036101000a031916815260200191505b50995050505050505050505060405180910390f35b3480156200028f57600080fd5b50620002d0600480360381019080803573ffffffffffffffffffffffffffffffffffffffff16906020019092919080359060200190929190505050620010ef565b604051808215151515815260200191505060405180910390f35b348015620002f757600080fd5b506200032260048036038101908080359060200190929190803590602001909291905050506200111e565b604051808273ffffffffffffffffffffffffffffffffffffffff1673ffffffffffffffffffffffffffffffffffffffff16815260200191505060405180910390f35b3480156200037157600080fd5b5062000392600480360381019080803590602001909291905050506200116c565b6040518082815260200191505060405180910390f35b348015620003b557600080fd5b5062000410600480360381019080803590602001909291908035600019169060200190929190803590602001909291908035906020019092919080359060200190820180359060200191909192939192939050505062001184565b005b3480156200041f57600080fd5b506200044060048036038101908080359060200190929190505050620012e8565b6040518082815260200191505060405180910390f35b3480156200046357600080fd5b50620004846004803603810190808035906020019092919050505062001396565b005b3480156200049357600080fd5b50620004b46004803603810190808035906020019092919050505062001590565b005b348015620004c357600080fd5b50620004ce62001942565b005b348015620004dd57600080fd5b50620004e862001ad6565b604051808273ffffffffffffffffffffffffffffffffffffffff1673ffffffffffffffffffffffffffffffffffffffff16815260200191505060405180910390f35b3480156200053757600080fd5b506200054262001afb565b6040518082815260200191505060405180910390f35b3480156200056557600080fd5b50620005c0600480360381019080803590602001909291908035600019169060200190929190803590602001909291908035906020019092919080359060200190820180359060200191909192939192939050505062001b1a565b005b348015620005cf57600080fd5b50620005f06004803603810190808035906020019092919050505062001f8e565b604051808b73ffffffffffffffffffffffffffffffffffffffff1673ffffffffffffffffffffffffffffffffffffffff1681526020018a73ffffffffffffffffffffffffffffffffffffffff1673ffffffffffffffffffffffffffffffffffffffff168152602001898152602001888152602001878152602001866000191660001916815260200185151515158152602001806020018460038111156200069357fe5b60ff168152602001838152602001828103825285818151815260200191508051906020019080838360005b83811015620006db578082015181840152602081019050620006be565b50505050905090810190601f168015620007095780820380516001836020036101000a031916815260200191505b509b50505050505050505050505060405180910390f35b3480156200072d57600080fd5b506200073862002747565b604051808273ffffffffffffffffffffffffffffffffffffffff1673ffffffffffffffffffffffffffffffffffffffff16815260200191505060405180910390f35b3480156200078757600080fd5b506200079262002770565b6040518082815260200191505060405180910390f35b348015620007b557600080fd5b50620007d66004803603810190808035906020019092919050505062002776565b604051808b73ffffffffffffffffffffffffffffffffffffffff1673ffffffffffffffffffffffffffffffffffffffff1681526020018a73ffffffffffffffffffffffffffffffffffffffff1673ffffffffffffffffffffffffffffffffffffffff168152602001898152602001888152602001878152602001866000191660001916815260200185151515158152602001806020018460038111156200087957fe5b60ff168152602001838152602001828103825285818151815260200191508051906020019080838360005b83811015620008c1578082015181840152602081019050620008a4565b50505050905090810190601f168015620008ef5780820380516001836020036101000a031916815260200191505b509b50505050505050505050505060405180910390f35b3480156200091357600080fd5b506200091e62002f14565b6040518082815260200191505060405180910390f35b3480156200094157600080fd5b50620009626004803603810190808035906020019092919050505062002f21565b604051808273ffffffffffffffffffffffffffffffffffffffff1673ffffffffffffffffffffffffffffffffffffffff16815260200191505060405180910390f35b620009c46004803603810190808035906020019092919050505062002f60565b005b348015620009d357600080fd5b50620009f460048036038101908080359060200190929190505050620031d7565b005b600080600080600080606060008060008b6005600082815260200190815260200160002080549050600010151562000a96576040517f08c379a000000000000000000000000000000000000000000000000000000000815260040180806020018281038252601a8152602001807f6e6f20636172206c6f6767657220666f756e642062792076696e00000000000081525060200191505060405180910390fd5b600560008e8152602001908152602001600020925082805490508c10151562000b27576040517f08c379a000000000000000000000000000000000000000000000000000000000815260040180806020018281038252600c8152602001807f6f7574206f662072616e6765000000000000000000000000000000000000000081525060200191505060405180910390fd5b828c81548110151562000b3657fe5b9060005260206000200160009054906101000a900473ffffffffffffffffffffffffffffffffffffffff1691508173ffffffffffffffffffffffffffffffffffffffff16638da5cb5b6040518163ffffffff167c0100000000000000000000000000000000000000000000000000000000028152600401602060405180830381600087803b15801562000bc857600080fd5b505af115801562000bdd573d6000803e3d6000fd5b505050506040513d602081101562000bf457600080fd5b81019080805190602001909291905050508273ffffffffffffffffffffffffffffffffffffffff16637150d8ae6040518163ffffffff167c0100000000000000000000000000000000000000000000000000000000028152600401602060405180830381600087803b15801562000c6a57600080fd5b505af115801562000c7f573d6000803e3d6000fd5b505050506040513d602081101562000c9657600080fd5b81019080805190602001909291905050508373ffffffffffffffffffffffffffffffffffffffff1663aca2d4646040518163ffffffff167c0100000000000000000000000000000000000000000000000000000000028152600401602060405180830381600087803b15801562000d0c57600080fd5b505af115801562000d21573d6000803e3d6000fd5b505050506040513d602081101562000d3857600080fd5b81019080805190602001909291905050508473ffffffffffffffffffffffffffffffffffffffff1663f32697166040518163ffffffff167c0100000000000000000000000000000000000000000000000000000000028152600401602060405180830381600087803b15801562000dae57600080fd5b505af115801562000dc3573d6000803e3d6000fd5b505050506040513d602081101562000dda57600080fd5b81019080805190602001909291905050508573ffffffffffffffffffffffffffffffffffffffff1663a035b1fe6040518163ffffffff167c0100000000000000000000000000000000000000000000000000000000028152600401602060405180830381600087803b15801562000e5057600080fd5b505af115801562000e65573d6000803e3d6000fd5b505050506040513d602081101562000e7c57600080fd5b81019080805190602001909291905050508673ffffffffffffffffffffffffffffffffffffffff16630ad9d0526040518163ffffffff167c0100000000000000000000000000000000000000000000000000000000028152600401602060405180830381600087803b15801562000ef257600080fd5b505af115801562000f07573d6000803e3d6000fd5b505050506040513d602081101562000f1e57600080fd5b81019080805190602001909291905050508773ffffffffffffffffffffffffffffffffffffffff1663ee4cdb576040518163ffffffff167c0100000000000000000000000000000000000000000000000000000000028152600401600060405180830381600087803b15801562000f9457600080fd5b505af115801562000fa9573d6000803e3d6000fd5b505050506040513d6000823e3d601f19601f82011682018060405250602081101562000fd457600080fd5b81019080805164010000000081111562000fed57600080fd5b828101905060208101848111156200100457600080fd5b81518560018202830111640100000000821117156200102257600080fd5b50509291905050508873ffffffffffffffffffffffffffffffffffffffff1663c19d93fb6040518163ffffffff167c0100000000000000000000000000000000000000000000000000000000028152600401602060405180830381600087803b1580156200108f57600080fd5b505af1158015620010a4573d6000803e3d6000fd5b505050506040513d6020811015620010bb57600080fd5b81019080805190602001909291905050508191509a509a509a509a509a509a509a509a505050509295985092959890939650565b60026020528160005260406000206020528060005260406000206000915091509054906101000a900460ff1681565b6005602052816000526040600020818154811015156200113a57fe5b906000526020600020016000915091509054906101000a900473ffffffffffffffffffffffffffffffffffffffff1681565b60036020528060005260406000206000915090505481565b856003600082815260200190815260200160002054600014151562001211576040517f08c379a000000000000000000000000000000000000000000000000000000000815260040180806020018281038252601d8152602001807f63617220697320616c72656164792070726573656e742062792076696e00000081525060200191505060405180910390fd5b6200125733888888600154890288888080601f01602080910402602001604051908101604052809392919081815260200183838082843782019150505050505062003cbb565b7f63b00a10149042152be04e4d2aee7b31c951ff8378494ac00362e91131a0188d3388886001604051808573ffffffffffffffffffffffffffffffffffffffff1673ffffffffffffffffffffffffffffffffffffffff16815260200184815260200183600019166000191681526020018215151515815260200194505050505060405180910390a150505050505050565b6000816003600082815260200190815260200160002054600010151562001377576040517f08c379a00000000000000000000000000000000000000000000000000000000081526004018080602001828103825260138152602001807f6e6f2063617220666f756e642062792076696e0000000000000000000000000081525060200191505060405180910390fd5b6005600084815260200190815260200160002080549050915050919050565b60003382600260008373ffffffffffffffffffffffffffffffffffffffff1673ffffffffffffffffffffffffffffffffffffffff168152602001908152602001600020600082815260200190815260200160002060009054906101000a900460ff16806200145057508173ffffffffffffffffffffffffffffffffffffffff166000809054906101000a900473ffffffffffffffffffffffffffffffffffffffff1673ffffffffffffffffffffffffffffffffffffffff16145b1515620014c5576040517f08c379a000000000000000000000000000000000000000000000000000000000815260040180806020018281038252601b8152602001807f6e6f2063617220666f756e6420627920616464726573732f76696e000000000081525060200191505060405180910390fd5b6006620014d28562004062565b815481101515620014df57fe5b9060005260206000200160009054906101000a900473ffffffffffffffffffffffffffffffffffffffff1692508273ffffffffffffffffffffffffffffffffffffffff166317ec5c2d6040518163ffffffff167c0100000000000000000000000000000000000000000000000000000000028152600401600060405180830381600087803b1580156200157157600080fd5b505af115801562001586573d6000803e3d6000fd5b5050505050505050565b6000803383600260008373ffffffffffffffffffffffffffffffffffffffff1673ffffffffffffffffffffffffffffffffffffffff168152602001908152602001600020600082815260200190815260200160002060009054906101000a900460ff16806200164b57508173ffffffffffffffffffffffffffffffffffffffff166000809054906101000a900473ffffffffffffffffffffffffffffffffffffffff1673ffffffffffffffffffffffffffffffffffffffff16145b1515620016c0576040517f08c379a000000000000000000000000000000000000000000000000000000000815260040180806020018281038252601b8152602001807f6e6f2063617220666f756e6420627920616464726573732f76696e000000000081525060200191505060405180910390fd5b620016cb8562004062565b93508392505b6001600680549050038310156200188357600660018401815481101515620016f557fe5b9060005260206000200160009054906101000a900473ffffffffffffffffffffffffffffffffffffffff166006848154811015156200173057fe5b9060005260206000200160006101000a81548173ffffffffffffffffffffffffffffffffffffffff021916908373ffffffffffffffffffffffffffffffffffffffff160217905550600360006006858154811015156200178c57fe5b9060005260206000200160009054906101000a900473ffffffffffffffffffffffffffffffffffffffff1673ffffffffffffffffffffffffffffffffffffffff1663aca2d4646040518163ffffffff167c0100000000000000000000000000000000000000000000000000000000028152600401602060405180830381600087803b1580156200181b57600080fd5b505af115801562001830573d6000803e3d6000fd5b505050506040513d60208110156200184757600080fd5b810190808051906020019092919050505081526020019081526020016000206000815480929190600190039190505550826001019250620016d1565b60066001600680549050038154811015156200189b57fe5b9060005260206000200160006101000a81549073ffffffffffffffffffffffffffffffffffffffff02191690556006805480919060019003620018df919062004135565b5060036000868152602001908152602001600020600090557f9d4d9382d16aed709af37f4e1adb50b5a9e0dc3f077e7026f7eff77f0d74d37985600160405180838152602001821515151581526020019250505060405180910390a15050505050565b3373ffffffffffffffffffffffffffffffffffffffff166000809054906101000a900473ffffffffffffffffffffffffffffffffffffffff1673ffffffffffffffffffffffffffffffffffffffff1614151562001a07576040517f08c379a000000000000000000000000000000000000000000000000000000000815260040180806020018281038252601a8152602001807f61726269747261746f7220697320616c6c6f776564206f6e6c7900000000000081525060200191505060405180910390fd5b600060075411151562001a82576040517f08c379a000000000000000000000000000000000000000000000000000000000815260040180806020018281038252600f8152602001807f72657761726420697320656d707479000000000000000000000000000000000081525060200191505060405180910390fd5b3373ffffffffffffffffffffffffffffffffffffffff166108fc6007549081150290604051600060405180830381858888f1935050505015801562001acb573d6000803e3d6000fd5b506000600781905550565b6000809054906101000a900473ffffffffffffffffffffffffffffffffffffffff1681565b60003073ffffffffffffffffffffffffffffffffffffffff1631905090565b60003387600260008373ffffffffffffffffffffffffffffffffffffffff1673ffffffffffffffffffffffffffffffffffffffff168152602001908152602001600020600082815260200190815260200160002060009054906101000a900460ff168062001bd457508173ffffffffffffffffffffffffffffffffffffffff166000809054906101000a900473ffffffffffffffffffffffffffffffffffffffff1673ffffffffffffffffffffffffffffffffffffffff16145b151562001c49576040517f08c379a000000000000000000000000000000000000000000000000000000000815260040180806020018281038252601b8152602001807f6e6f2063617220666f756e6420627920616464726573732f76696e000000000081525060200191505060405180910390fd5b600662001c568a62004062565b81548110151562001c6357fe5b9060005260206000200160009054906101000a900473ffffffffffffffffffffffffffffffffffffffff1692508273ffffffffffffffffffffffffffffffffffffffff1663d81df1ef89896001548a0289896040518663ffffffff167c010000000000000000000000000000000000000000000000000000000002815260040180866000191660001916815260200185815260200184815260200180602001828103825284848281815260200192508082843782019150509650505050505050600060405180830381600087803b15801562001d3e57600080fd5b505af115801562001d53573d6000803e3d6000fd5b50505050600560008a8152602001908152602001600020338a8a8a6001548b0260008b8b8b73ffffffffffffffffffffffffffffffffffffffff1663c19d93fb6040518163ffffffff167c0100000000000000000000000000000000000000000000000000000000028152600401602060405180830381600087803b15801562001ddc57600080fd5b505af115801562001df1573d6000803e3d6000fd5b505050506040513d602081101562001e0857600080fd5b810190808051906020019092919050505062001e2362004164565b808a73ffffffffffffffffffffffffffffffffffffffff1673ffffffffffffffffffffffffffffffffffffffff1681526020018981526020018860001916600019168152602001878152602001868152602001851515151581526020018060200183600381111562001e9157fe5b60ff168152602001828103825285858281815260200192508082843782019150509a5050505050505050505050604051809103906000f08015801562001edb573d6000803e3d6000fd5b5090806001815401808255809150509060018203906000526020600020016000909192909190916101000a81548173ffffffffffffffffffffffffffffffffffffffff021916908373ffffffffffffffffffffffffffffffffffffffff160217905550507f9896bfaa4b5c77185f664c6d5d6fd8cae37c6b31b0b9b45a9faccd50b0c8c35c89600160405180838152602001821515151581526020019250505060405180910390a1505050505050505050565b6000806000806000806000606060008060008b600360008281526020019081526020016000205460001015156200202d576040517f08c379a00000000000000000000000000000000000000000000000000000000081526004018080602001828103825260138152602001807f6e6f2063617220666f756e642062792076696e0000000000000000000000000081525060200191505060405180910390fd5b60066200203a8e62004062565b8154811015156200204757fe5b9060005260206000200160009054906101000a900473ffffffffffffffffffffffffffffffffffffffff1691508173ffffffffffffffffffffffffffffffffffffffff16638da5cb5b6040518163ffffffff167c0100000000000000000000000000000000000000000000000000000000028152600401602060405180830381600087803b158015620020d957600080fd5b505af1158015620020ee573d6000803e3d6000fd5b505050506040513d60208110156200210557600080fd5b81019080805190602001909291905050508273ffffffffffffffffffffffffffffffffffffffff16637150d8ae6040518163ffffffff167c0100000000000000000000000000000000000000000000000000000000028152600401602060405180830381600087803b1580156200217b57600080fd5b505af115801562002190573d6000803e3d6000fd5b505050506040513d6020811015620021a757600080fd5b81019080805190602001909291905050508373ffffffffffffffffffffffffffffffffffffffff1663aca2d4646040518163ffffffff167c0100000000000000000000000000000000000000000000000000000000028152600401602060405180830381600087803b1580156200221d57600080fd5b505af115801562002232573d6000803e3d6000fd5b505050506040513d60208110156200224957600080fd5b81019080805190602001909291905050508473ffffffffffffffffffffffffffffffffffffffff1663f32697166040518163ffffffff167c0100000000000000000000000000000000000000000000000000000000028152600401602060405180830381600087803b158015620022bf57600080fd5b505af1158015620022d4573d6000803e3d6000fd5b505050506040513d6020811015620022eb57600080fd5b81019080805190602001909291905050508573ffffffffffffffffffffffffffffffffffffffff1663a035b1fe6040518163ffffffff167c0100000000000000000000000000000000000000000000000000000000028152600401602060405180830381600087803b1580156200236157600080fd5b505af115801562002376573d6000803e3d6000fd5b505050506040513d60208110156200238d57600080fd5b81019080805190602001909291905050508673ffffffffffffffffffffffffffffffffffffffff16630ad9d0526040518163ffffffff167c0100000000000000000000000000000000000000000000000000000000028152600401602060405180830381600087803b1580156200240357600080fd5b505af115801562002418573d6000803e3d6000fd5b505050506040513d60208110156200242f57600080fd5b81019080805190602001909291905050508773ffffffffffffffffffffffffffffffffffffffff166302c7e7af6040518163ffffffff167c0100000000000000000000000000000000000000000000000000000000028152600401602060405180830381600087803b158015620024a557600080fd5b505af1158015620024ba573d6000803e3d6000fd5b505050506040513d6020811015620024d157600080fd5b81019080805190602001909291905050508873ffffffffffffffffffffffffffffffffffffffff1663ee4cdb576040518163ffffffff167c0100000000000000000000000000000000000000000000000000000000028152600401600060405180830381600087803b1580156200254757600080fd5b505af11580156200255c573d6000803e3d6000fd5b505050506040513d6000823e3d601f19601f8201168201806040525060208110156200258757600080fd5b810190808051640100000000811115620025a057600080fd5b82810190506020810184811115620025b757600080fd5b8151856001820283011164010000000082111715620025d557600080fd5b50509291905050508973ffffffffffffffffffffffffffffffffffffffff1663c19d93fb6040518163ffffffff167c0100000000000000000000000000000000000000000000000000000000028152600401602060405180830381600087803b1580156200264257600080fd5b505af115801562002657573d6000803e3d6000fd5b505050506040513d60208110156200266e57600080fd5b81019080805190602001909291905050508a73ffffffffffffffffffffffffffffffffffffffff1663b80777ea6040518163ffffffff167c0100000000000000000000000000000000000000000000000000000000028152600401602060405180830381600087803b158015620026e457600080fd5b505af1158015620026f9573d6000803e3d6000fd5b505050506040513d60208110156200271057600080fd5b81019080805190602001909291905050508292509b509b509b509b509b509b509b509b509b509b5050509193959799509193959799565b60008060009054906101000a900473ffffffffffffffffffffffffffffffffffffffff16905090565b60075481565b6000806000806000806000606060008060006006805490508c10151562002805576040517f08c379a00000000000000000000000000000000000000000000000000000000081526004018080602001828103825260158152602001807f696e646578206973206f7574206f662072616e6765000000000000000000000081525060200191505060405180910390fd5b60068c8154811015156200281557fe5b9060005260206000200160009054906101000a900473ffffffffffffffffffffffffffffffffffffffff1690508073ffffffffffffffffffffffffffffffffffffffff16638da5cb5b6040518163ffffffff167c0100000000000000000000000000000000000000000000000000000000028152600401602060405180830381600087803b158015620028a757600080fd5b505af1158015620028bc573d6000803e3d6000fd5b505050506040513d6020811015620028d357600080fd5b81019080805190602001909291905050508173ffffffffffffffffffffffffffffffffffffffff16637150d8ae6040518163ffffffff167c0100000000000000000000000000000000000000000000000000000000028152600401602060405180830381600087803b1580156200294957600080fd5b505af11580156200295e573d6000803e3d6000fd5b505050506040513d60208110156200297557600080fd5b81019080805190602001909291905050508273ffffffffffffffffffffffffffffffffffffffff1663aca2d4646040518163ffffffff167c0100000000000000000000000000000000000000000000000000000000028152600401602060405180830381600087803b158015620029eb57600080fd5b505af115801562002a00573d6000803e3d6000fd5b505050506040513d602081101562002a1757600080fd5b81019080805190602001909291905050508373ffffffffffffffffffffffffffffffffffffffff1663f32697166040518163ffffffff167c0100000000000000000000000000000000000000000000000000000000028152600401602060405180830381600087803b15801562002a8d57600080fd5b505af115801562002aa2573d6000803e3d6000fd5b505050506040513d602081101562002ab957600080fd5b81019080805190602001909291905050508473ffffffffffffffffffffffffffffffffffffffff1663a035b1fe6040518163ffffffff167c0100000000000000000000000000000000000000000000000000000000028152600401602060405180830381600087803b15801562002b2f57600080fd5b505af115801562002b44573d6000803e3d6000fd5b505050506040513d602081101562002b5b57600080fd5b81019080805190602001909291905050508573ffffffffffffffffffffffffffffffffffffffff16630ad9d0526040518163ffffffff167c0100000000000000000000000000000000000000000000000000000000028152600401602060405180830381600087803b15801562002bd157600080fd5b505af115801562002be6573d6000803e3d6000fd5b505050506040513d602081101562002bfd57600080fd5b81019080805190602001909291905050508673ffffffffffffffffffffffffffffffffffffffff166302c7e7af6040518163ffffffff167c0100000000000000000000000000000000000000000000000000000000028152600401602060405180830381600087803b15801562002c7357600080fd5b505af115801562002c88573d6000803e3d6000fd5b505050506040513d602081101562002c9f57600080fd5b81019080805190602001909291905050508773ffffffffffffffffffffffffffffffffffffffff1663ee4cdb576040518163ffffffff167c0100000000000000000000000000000000000000000000000000000000028152600401600060405180830381600087803b15801562002d1557600080fd5b505af115801562002d2a573d6000803e3d6000fd5b505050506040513d6000823e3d601f19601f82011682018060405250602081101562002d5557600080fd5b81019080805164010000000081111562002d6e57600080fd5b8281019050602081018481111562002d8557600080fd5b815185600182028301116401000000008211171562002da357600080fd5b50509291905050508873ffffffffffffffffffffffffffffffffffffffff1663c19d93fb6040518163ffffffff167c0100000000000000000000000000000000000000000000000000000000028152600401602060405180830381600087803b15801562002e1057600080fd5b505af115801562002e25573d6000803e3d6000fd5b505050506040513d602081101562002e3c57600080fd5b81019080805190602001909291905050508973ffffffffffffffffffffffffffffffffffffffff1663b80777ea6040518163ffffffff167c0100000000000000000000000000000000000000000000000000000000028152600401602060405180830381600087803b15801562002eb257600080fd5b505af115801562002ec7573d6000803e3d6000fd5b505050506040513d602081101562002ede57600080fd5b81019080805190602001909291905050508292509a509a509a509a509a509a509a509a509a509a50509193959799509193959799565b6000600680549050905090565b60068181548110151562002f3157fe5b906000526020600020016000915054906101000a900473ffffffffffffffffffffffffffffffffffffffff1681565b6000600662002f6f8362004062565b81548110151562002f7c57fe5b9060005260206000200160009054906101000a900473ffffffffffffffffffffffffffffffffffffffff1690508073ffffffffffffffffffffffffffffffffffffffff166302c7e7af6040518163ffffffff167c0100000000000000000000000000000000000000000000000000000000028152600401602060405180830381600087803b1580156200300e57600080fd5b505af115801562003023573d6000803e3d6000fd5b505050506040513d60208110156200303a57600080fd5b8101908080519060200190929190505050151515620030c1576040517f08c379a00000000000000000000000000000000000000000000000000000000081526004018080602001828103825260138152602001807f63617220697320616c726561647920736f6c640000000000000000000000000081525060200191505060405180910390fd5b8073ffffffffffffffffffffffffffffffffffffffff1663cce7ec1333346040518363ffffffff167c0100000000000000000000000000000000000000000000000000000000028152600401808373ffffffffffffffffffffffffffffffffffffffff1673ffffffffffffffffffffffffffffffffffffffff16815260200182815260200192505050600060405180830381600087803b1580156200316557600080fd5b505af11580156200317a573d6000803e3d6000fd5b5050505034600460003373ffffffffffffffffffffffffffffffffffffffff1673ffffffffffffffffffffffffffffffffffffffff1681526020019081526020016000206000848152602001908152602001600020819055505050565b60008060003384600460008373ffffffffffffffffffffffffffffffffffffffff1673ffffffffffffffffffffffffffffffffffffffff168152602001908152602001600020600082815260200190815260200160002054600010806200328a57508173ffffffffffffffffffffffffffffffffffffffff166000809054906101000a900473ffffffffffffffffffffffffffffffffffffffff1673ffffffffffffffffffffffffffffffffffffffff16145b1515620032ff576040517f08c379a000000000000000000000000000000000000000000000000000000000815260040180806020018281038252601d8152602001807f6e6f20626179657220666f756e6420627920616464726573732f76696e00000081525060200191505060405180910390fd5b60066200330c8762004062565b8154811015156200331957fe5b9060005260206000200160009054906101000a900473ffffffffffffffffffffffffffffffffffffffff169450600460003373ffffffffffffffffffffffffffffffffffffffff1673ffffffffffffffffffffffffffffffffffffffff1681526020019081526020016000206000878152602001908152602001600020600090556064600a8673ffffffffffffffffffffffffffffffffffffffff1663a035b1fe6040518163ffffffff167c0100000000000000000000000000000000000000000000000000000000028152600401602060405180830381600087803b1580156200340357600080fd5b505af115801562003418573d6000803e3d6000fd5b505050506040513d60208110156200342f57600080fd5b8101908080519060200190929190505050028115156200344b57fe5b0493508473ffffffffffffffffffffffffffffffffffffffff16638da5cb5b6040518163ffffffff167c0100000000000000000000000000000000000000000000000000000000028152600401602060405180830381600087803b158015620034b357600080fd5b505af1158015620034c8573d6000803e3d6000fd5b505050506040513d6020811015620034df57600080fd5b810190808051906020019092919050505073ffffffffffffffffffffffffffffffffffffffff166108fc858773ffffffffffffffffffffffffffffffffffffffff1663a035b1fe6040518163ffffffff167c0100000000000000000000000000000000000000000000000000000000028152600401602060405180830381600087803b1580156200356f57600080fd5b505af115801562003584573d6000803e3d6000fd5b505050506040513d60208110156200359b57600080fd5b8101908080519060200190929190505050039081150290604051600060405180830381858888f19350505050158015620035d9573d6000803e3d6000fd5b508473ffffffffffffffffffffffffffffffffffffffff16639f7aee82336040518263ffffffff167c0100000000000000000000000000000000000000000000000000000000028152600401808273ffffffffffffffffffffffffffffffffffffffff1673ffffffffffffffffffffffffffffffffffffffff168152602001915050600060405180830381600087803b1580156200367657600080fd5b505af11580156200368b573d6000803e3d6000fd5b505050508360076000828254019250508190555033868673ffffffffffffffffffffffffffffffffffffffff16630ad9d0526040518163ffffffff167c0100000000000000000000000000000000000000000000000000000000028152600401602060405180830381600087803b1580156200370657600080fd5b505af11580156200371b573d6000803e3d6000fd5b505050506040513d60208110156200373257600080fd5b81019080805190602001909291905050508773ffffffffffffffffffffffffffffffffffffffff1663f32697166040518163ffffffff167c0100000000000000000000000000000000000000000000000000000000028152600401602060405180830381600087803b158015620037a857600080fd5b505af1158015620037bd573d6000803e3d6000fd5b505050506040513d6020811015620037d457600080fd5b81019080805190602001909291905050508873ffffffffffffffffffffffffffffffffffffffff1663a035b1fe6040518163ffffffff167c0100000000000000000000000000000000000000000000000000000000028152600401602060405180830381600087803b1580156200384a57600080fd5b505af11580156200385f573d6000803e3d6000fd5b505050506040513d60208110156200387657600080fd5b810190808051906020019092919050505060018a73ffffffffffffffffffffffffffffffffffffffff1663ee4cdb576040518163ffffffff167c0100000000000000000000000000000000000000000000000000000000028152600401600060405180830381600087803b158015620038ee57600080fd5b505af115801562003903573d6000803e3d6000fd5b505050506040513d6000823e3d601f19601f8201168201806040525060208110156200392e57600080fd5b8101908080516401000000008111156200394757600080fd5b828101905060208101848111156200395e57600080fd5b81518560018202830111640100000000821117156200397c57600080fd5b505092919050505060026200399062004164565b808973ffffffffffffffffffffffffffffffffffffffff1673ffffffffffffffffffffffffffffffffffffffff16815260200188815260200187600019166000191681526020018681526020018581526020018415151515815260200180602001836003811115620039fe57fe5b60ff168152602001828103825284818151815260200191508051906020019080838360005b8381101562003a4057808201518184015260208101905062003a23565b50505050905090810190601f16801562003a6e5780820380516001836020036101000a031916815260200191505b509950505050505050505050604051809103906000f08015801562003a97573d6000803e3d6000fd5b5092508273ffffffffffffffffffffffffffffffffffffffff16639f7aee82336040518263ffffffff167c0100000000000000000000000000000000000000000000000000000000028152600401808273ffffffffffffffffffffffffffffffffffffffff1673ffffffffffffffffffffffffffffffffffffffff168152602001915050600060405180830381600087803b15801562003b3657600080fd5b505af115801562003b4b573d6000803e3d6000fd5b50505050600560008781526020019081526020016000208390806001815401808255809150509060018203906000526020600020016000909192909190916101000a81548173ffffffffffffffffffffffffffffffffffffffff021916908373ffffffffffffffffffffffffffffffffffffffff160217905550507fb8699cbbf451aa7e830582e308398b69613831fd8d851865054406a655da4c37868673ffffffffffffffffffffffffffffffffffffffff1663a035b1fe6040518163ffffffff167c0100000000000000000000000000000000000000000000000000000000028152600401602060405180830381600087803b15801562003c4d57600080fd5b505af115801562003c62573d6000803e3d6000fd5b505050506040513d602081101562003c7957600080fd5b810190808051906020019092919050505060016040518084815260200183815260200182151515158152602001935050505060405180910390a1505050505050565b60008686868686600087600062003cd162004164565b808973ffffffffffffffffffffffffffffffffffffffff1673ffffffffffffffffffffffffffffffffffffffff1681526020018881526020018760001916600019168152602001868152602001858152602001841515151581526020018060200183600381111562003d3f57fe5b60ff168152602001828103825284818151815260200191508051906020019080838360005b8381101562003d8157808201518184015260208101905062003d64565b50505050905090810190601f16801562003daf5780820380516001836020036101000a031916815260200191505b509950505050505050505050604051809103906000f08015801562003dd8573d6000803e3d6000fd5b50905060068190806001815401808255809150509060018203906000526020600020016000909192909190916101000a81548173ffffffffffffffffffffffffffffffffffffffff021916908373ffffffffffffffffffffffffffffffffffffffff16021790555050600560008781526020019081526020016000208787878787600088600062003e6862004164565b808973ffffffffffffffffffffffffffffffffffffffff1673ffffffffffffffffffffffffffffffffffffffff1681526020018881526020018760001916600019168152602001868152602001858152602001841515151581526020018060200183600381111562003ed657fe5b60ff168152602001828103825284818151815260200191508051906020019080838360005b8381101562003f1857808201518184015260208101905062003efb565b50505050905090810190601f16801562003f465780820380516001836020036101000a031916815260200191505b509950505050505050505050604051809103906000f08015801562003f6f573d6000803e3d6000fd5b5090806001815401808255809150509060018203906000526020600020016000909192909190916101000a81548173ffffffffffffffffffffffffffffffffffffffff021916908373ffffffffffffffffffffffffffffffffffffffff1602179055505060068054905060036000888152602001908152602001600020819055506001600260008973ffffffffffffffffffffffffffffffffffffffff1673ffffffffffffffffffffffffffffffffffffffff168152602001908152602001600020600088815260200190815260200160002060006101000a81548160ff02191690831515021790555050505050505050565b600060036000838152602001908152602001600020546000108015620040a257506006805490506001600360008581526020019081526020016000205403105b151562004117576040517f08c379a00000000000000000000000000000000000000000000000000000000081526004018080602001828103825260148152602001807f6e6f742076616c69642063617227732076696e2000000000000000000000000081525060200191505060405180910390fd5b60016003600084815260200190815260200160002054039050919050565b8154818355818111156200415f578183600052602060002091820191016200415e919062004175565b5b505050565b604051610c5b806200419e83390190565b6200419a91905b80821115620041965760008160009055506001016200417c565b5090565b905600608060405234801561001057600080fd5b50604051610c5b380380610c5b8339810180604052810190808051906020019092919080519060200190929190805190602001909291908051906020019092919080519060200190929190805190602001909291908051820192919060200180519060200190929190505050876000806101000a81548173ffffffffffffffffffffffffffffffffffffffff021916908373ffffffffffffffffffffffffffffffffffffffff1602179055506000600160006101000a81548173ffffffffffffffffffffffffffffffffffffffff021916908373ffffffffffffffffffffffffffffffffffffffff16021790555086600281905550846003819055508360048190555085600581600019169055508160069080519060200190610134929190610186565b504260088190555082600760016101000a81548160ff02191690831515021790555080600760006101000a81548160ff0219169083600381111561017457fe5b0217905550505050505050505061022b565b828054600181600116156101000203166002900490600052602060002090601f016020900481019282601f106101c757805160ff19168380011785556101f5565b828001600101855582156101f5579182015b828111156101f45782518255916020019190600101906101d9565b5b5090506102029190610206565b5090565b61022891905b8082111561022457600081600090555060010161020c565b5090565b90565b610a218061023a6000396000f3006080604052600436106100d0576000357c0100000000000000000000000000000000000000000000000000000000900463ffffffff16806302c7e7af146100d55780630ad9d0521461010457806317ec5c2d146101375780637150d8ae1461014e5780638da5cb5b146101a55780639f7aee82146101fc578063a035b1fe1461023f578063aca2d4641461026a578063b80777ea14610295578063c19d93fb146102c0578063cce7ec13146102f9578063d81df1ef14610339578063ee4cdb57146103c4578063f326971614610454575b600080fd5b3480156100e157600080fd5b506100ea61047f565b604051808215151515815260200191505060405180910390f35b34801561011057600080fd5b50610119610492565b60405180826000191660001916815260200191505060405180910390f35b34801561014357600080fd5b5061014c610498565b005b34801561015a57600080fd5b5061016361055d565b604051808273ffffffffffffffffffffffffffffffffffffffff1673ffffffffffffffffffffffffffffffffffffffff16815260200191505060405180910390f35b3480156101b157600080fd5b506101ba610583565b604051808273ffffffffffffffffffffffffffffffffffffffff1673ffffffffffffffffffffffffffffffffffffffff16815260200191505060405180910390f35b34801561020857600080fd5b5061023d600480360381019080803573ffffffffffffffffffffffffffffffffffffffff1690602001909291905050506105a8565b005b34801561024b57600080fd5b506102546106c9565b6040518082815260200191505060405180910390f35b34801561027657600080fd5b5061027f6106cf565b6040518082815260200191505060405180910390f35b3480156102a157600080fd5b506102aa6106d5565b6040518082815260200191505060405180910390f35b3480156102cc57600080fd5b506102d56106db565b604051808260038111156102e557fe5b60ff16815260200191505060405180910390f35b610337600480360381019080803573ffffffffffffffffffffffffffffffffffffffff169060200190929190803590602001909291905050506106ee565b005b34801561034557600080fd5b506103c260048036038101908080356000191690602001909291908035906020019092919080359060200190929190803590602001908201803590602001908080601f016020809104026020016040519081016040528093929190818152602001838380828437820191505050505050919291929050505061086f565b005b3480156103d057600080fd5b506103d96108ac565b6040518080602001828103825283818151815260200191508051906020019080838360005b838110156104195780820151818401526020810190506103fe565b50505050905090810190601f1680156104465780820380516001836020036101000a031916815260200191505b509250505060405180910390f35b34801561046057600080fd5b5061046961094a565b6040518082815260200191505060405180910390f35b600760019054906101000a900460ff1681565b60055481565b60018060038111156104a657fe5b600760009054906101000a900460ff1660038111156104c157fe5b141515610536576040517f08c379a000000000000000000000000000000000000000000000000000000000815260040180806020018281038252600d8152602001807f696e76616c69642073746174650000000000000000000000000000000000000081525060200191505060405180910390fd5b6002600760006101000a81548160ff0219169083600381111561055557fe5b021790555050565b600160009054906101000a900473ffffffffffffffffffffffffffffffffffffffff1681565b6000809054906101000a900473ffffffffffffffffffffffffffffffffffffffff1681565b60028060038111156105b657fe5b600760009054906101000a900460ff1660038111156105d157fe5b141515610646576040517f08c379a000000000000000000000000000000000000000000000000000000000815260040180806020018281038252600d8152602001807f696e76616c69642073746174650000000000000000000000000000000000000081525060200191505060405180910390fd5b6003600760006101000a81548160ff0219169083600381111561066557fe5b02179055506001600760016101000a81548160ff021916908315150217905550816000806101000a81548173ffffffffffffffffffffffffffffffffffffffff021916908373ffffffffffffffffffffffffffffffffffffffff1602179055505050565b60045481565b60025481565b60085481565b600760009054906101000a900460ff1681565b60008060038111156106fc57fe5b600760009054906101000a900460ff16600381111561071757fe5b14151561078c576040517f08c379a000000000000000000000000000000000000000000000000000000000815260040180806020018281038252600d8152602001807f696e76616c69642073746174650000000000000000000000000000000000000081525060200191505060405180910390fd5b60045482141515610805576040517f08c379a000000000000000000000000000000000000000000000000000000000815260040180806020018281038252601c8152602001807f616d6f756e74206973206e6f7420657175616c20746f2070726963650000000081525060200191505060405180910390fd5b82600160006101000a81548173ffffffffffffffffffffffffffffffffffffffff021916908373ffffffffffffffffffffffffffffffffffffffff1602179055506001600760006101000a81548160ff0219169083600381111561086557fe5b0217905550505050565b82600381905550816004819055508360058160001916905550806006908051906020019061089e929190610950565b504260088190555050505050565b60068054600181600116156101000203166002900480601f0160208091040260200160405190810160405280929190818152602001828054600181600116156101000203166002900480156109425780601f1061091757610100808354040283529160200191610942565b820191906000526020600020905b81548152906001019060200180831161092557829003601f168201915b505050505081565b60035481565b828054600181600116156101000203166002900490600052602060002090601f016020900481019282601f1061099157805160ff19168380011785556109bf565b828001600101855582156109bf579182015b828111156109be5782518255916020019190600101906109a3565b5b5090506109cc91906109d0565b5090565b6109f291905b808211156109ee5760008160009055506001016109d6565b5090565b905600a165627a7a72305820cfd08de475e36de73c7fa58fcbd6ffb5f5be1ec506c6bcab9c115cda9fd49c090029a165627a7a7230582082c826e7012042d50473c557b8a34afeea0ae696fcb4315e003a235e64bce8b10029",
  "source": "pragma solidity ^0.4.24;\r\n\r\nimport \"./Arbitrator.sol\";\r\nimport \"./Car.sol\";\r\n\r\ncontract CarShop is Arbitrator{\r\n\r\n    //convert from ether to wei\r\n    uint private WEI = 10 ** uint256(18);\r\n\r\n    //---------------------events--------------------------//\r\n    event Delete(uint vin, bool success);\r\n    event Edit(uint vin, bool success);\r\n    event Add (address owner,uint vin, bytes32 model, bool success);\r\n\r\n    event ConfirmSelling(uint vin, uint price,  bool success);\r\n\r\n    //---------------------members--------------------------//\r\n    //uint - VIN\r\n    mapping (address => mapping (uint => bool)) public carAccessibility;\r\n\r\n    //vin => index\r\n    mapping(uint => uint) public carIndex;\r\n\r\n    //vin => amount\r\n    mapping(address => mapping (uint => uint)) buyer;\r\n\r\n    // all  history chain of the car\r\n    mapping (uint => Car []) public carLogger;\r\n    //car list\r\n    Car [] public carsArr;\r\n\r\n    // reward which is allowed to be withdrawn by shop.\r\n    uint public rewardAllowed;\r\n\r\n    //---------------------functions--------------------------//\r\n\r\n    function getOwner() external view returns (address owner){\r\n        return arbitrator;\r\n    }\r\n\r\n    function getContractBalance() external view returns (uint balance){\r\n        return address(this).balance;\r\n    }\r\n\r\n    function getNumberOfCars() external view returns(uint index){\r\n        return carsArr.length;\r\n    }\r\n\r\n    function createCar(address owner, uint vin, bytes32 model, uint year, uint price, string image) private{\r\n\r\n        Car car = new Car( owner,vin, model, year, price, false, image, Car.State.IDLE );\r\n        carsArr.push(car);\r\n\r\n        //create a copy in order to track a full car history.Expensive\r\n        carLogger[vin].push(new Car( owner,vin, model, year, price, false, image,Car.State.IDLE ));\r\n\r\n        carIndex [vin] = carsArr.length;\r\n        carAccessibility[owner][vin] = true;\r\n    }\r\n\r\n    function deleteCar(uint vin) public isOwnerVinAvailability(msg.sender, vin) {\r\n\r\n        uint index = getCarIndex(vin);\r\n\r\n        for(uint i = index; i < carsArr.length - 1; ++i){\r\n            carsArr[i] = carsArr[i+1];\r\n            //update car index respectively\r\n            carIndex[carsArr[i].vin()]--;\r\n        }\r\n\r\n        delete carsArr[carsArr.length-1];\r\n        carsArr.length--;\r\n\r\n        delete carIndex[vin];\r\n\r\n        emit Delete(vin, true);\r\n    }\r\n\r\n    function editCar(uint vin, bytes32 model, uint year, uint price, string  image) external isOwnerVinAvailability(msg.sender, vin)  {\r\n\r\n        Car car = carsArr[ getCarIndex(vin)];\r\n\r\n        car.edit( model, year, price * WEI, image);\r\n\r\n        //create a copy in order to track a full car history.Expensive\r\n        carLogger[vin].push(new Car( msg.sender,vin, model, year, price * WEI, false, image, car.state() ));\r\n\r\n        emit Edit(vin, true);\r\n    }\r\n\r\n    function addCar(uint vin, bytes32 model, uint year, uint price, string image) external isNotVINAvailability(vin) {\r\n\r\n        createCar(msg.sender, vin, model, year, price * WEI, image);\r\n\r\n        emit Add (msg.sender,vin, model,  true);\r\n    }\r\n\r\n    function buy(uint vin) external payable  {\r\n\r\n        Car car = carsArr[ getCarIndex(vin)];\r\n\r\n        require(!car.sold(),\"car is already sold\");\r\n\r\n        car.buy(msg.sender, msg.value);\r\n\r\n        buyer[msg.sender][vin] = msg.value;\r\n    }\r\n\r\n    function sendDelivery(uint vin)  external isOwnerVinAvailability(msg.sender, vin){\r\n\r\n        Car car = carsArr[ getCarIndex(vin)];\r\n\r\n        car.sendDelivery();\r\n    }\r\n\r\n    function confirmDelivery(uint vin) external isBuyerAvailability(msg.sender, vin){\r\n        Car car = carsArr[ getCarIndex(vin)];\r\n\r\n        delete buyer[msg.sender][vin];\r\n\r\n        //company takes 10 percent for service :)\r\n        uint companyReward = car.price() * 10 / 100;\r\n        //send money to seller\r\n        car.owner().transfer(car.price() - companyReward);\r\n\r\n        //change owner\r\n        car.confirmDelivery(msg.sender);\r\n\r\n        rewardAllowed += companyReward;\r\n\r\n        //----------------------------------------------\r\n        //create a copy in order to track a full car history.Expensive\r\n        Car carLog = new Car( msg.sender,vin, car.model(), car.year(), car.price(),\r\n            true, car.image_hash(), Car.State.SEND_DELIVERY);\r\n        carLog.confirmDelivery(msg.sender);\r\n        carLogger[vin].push( carLog);\r\n        //----------------------------------------------\r\n\r\n        emit ConfirmSelling(vin, car.price(), true);\r\n    }\r\n\r\n    function withdrawAllReward() public onlyOwner{\r\n        require(rewardAllowed > 0, \"reward is empty\");\r\n\r\n        msg.sender.transfer(rewardAllowed);\r\n        rewardAllowed = 0;\r\n    }\r\n\r\n    function getCarByVin( uint _vin) external view isVINAvailability(_vin)\r\n    returns (  address  owner, address buyerAdd, uint vin, uint year, uint price, bytes32 model,bool sold,\r\n        string image, Car.State state, uint timestamp ){\r\n\r\n        Car car = carsArr[ getCarIndex(_vin)];\r\n\r\n        return (car.owner(),car.buyer(), car.vin(),car.year(),car.price(),\r\n        car.model(), car.sold(), car.image_hash(),\r\n        car.state(), car.timestamp());\r\n    }\r\n\r\n    function getCarByIndex(uint index) external view\r\n    returns ( address  owner, address buyerAdd, uint vin, uint year, uint price, bytes32 model,bool sold,\r\n        string image, Car.State state, uint timestamp ){\r\n        require(index < carsArr.length, \"index is out of range\");\r\n\r\n        Car car = carsArr[index];\r\n\r\n        return (car.owner(), car.buyer(), car.vin(),car.year(),car.price(),\r\n        car.model(), car.sold(), car.image_hash(),\r\n        car.state(), car.timestamp());\r\n    }\r\n\r\n    function getHistoryLogCarLength(uint _vin) external view isVINAvailability(_vin) returns( uint length){\r\n        return carLogger[_vin].length;\r\n    }\r\n\r\n    function getHistoryLogCar(uint _vin, uint _idx) external view isCarLoggerVINAvailability(_vin)\r\n    returns ( address  owner, address vendee, uint vin, uint year, uint price, bytes32 model,\r\n        string image, Car.State state  ){\r\n\r\n        //use storage keyword to save gas\r\n        Car  [] storage carArray  = carLogger[_vin];\r\n\r\n        require(_idx < carArray.length,\"out of range\");\r\n\r\n        Car car = carArray[_idx];\r\n\r\n        return (car.owner(),car.buyer(), car.vin(),car.year(),car.price(),\r\n        car.model(),  car.image_hash(),\r\n        car.state() );\r\n    }\r\n\r\n\r\n    function getCarIndex(uint vin) private view returns(uint){\r\n        require(0 < carIndex[vin] && carIndex[vin] - 1 < carsArr.length , \"not valid car's vin \");\r\n        return carIndex[vin] - 1; // on purpose to have a correct index\r\n    }\r\n\r\n\r\n    modifier isOwnerVinAvailability(address sender, uint vin) {\r\n        require(carAccessibility[sender][vin] || arbitrator == sender, \"no car found by address/vin\");\r\n        _;\r\n    }\r\n\r\n    modifier isBuyerAvailability(address sender, uint _vin) {\r\n        require(0 < buyer[sender][_vin] || arbitrator == sender, \"no bayer found by address/vin\");\r\n        _;\r\n    }\r\n\r\n    modifier isVINAvailability( uint vin) {\r\n        require(0 < carIndex[vin], \"no car found by vin\");\r\n        _;\r\n    }\r\n\r\n    modifier isNotVINAvailability( uint vin) {\r\n        require(0 == carIndex[vin], \"car is already present by vin\");\r\n        _;\r\n    }\r\n\r\n    modifier isCarLoggerVINAvailability( uint vin) {\r\n        require(0 < carLogger[vin].length, \"no car logger found by vin\");\r\n        _;\r\n    }\r\n}",
  "sourcePath": "D:\\programming\\blockchain\\ethereum\\car_shop\\contracts\\CarShop.sol",
  "compiler": {
    "name": "solc",
    "version": "0.4.25+commit.59dbf8f1.Emscripten.clang"
  },
  "schemaVersion": "2.0.2",
  "updatedAt": "2019-07-27T09:55:48.369Z"
}