{
  "contractName": "CarShop",
  "abi": [
    {
      "constant": true,
      "inputs": [
        {
          "name": "",
          "type": "address"
        },
        {
          "name": "",
          "type": "uint256"
        }
      ],
      "name": "carAccessibility",
      "outputs": [
        {
          "name": "",
          "type": "bool"
        }
      ],
      "payable": false,
      "stateMutability": "view",
      "type": "function"
    },
    {
      "constant": true,
      "inputs": [
        {
          "name": "",
          "type": "uint256"
        },
        {
          "name": "",
          "type": "uint256"
        }
      ],
      "name": "carLogger",
      "outputs": [
        {
          "name": "",
          "type": "address"
        }
      ],
      "payable": false,
      "stateMutability": "view",
      "type": "function"
    },
    {
      "constant": true,
      "inputs": [
        {
          "name": "",
          "type": "uint256"
        }
      ],
      "name": "carIndex",
      "outputs": [
        {
          "name": "",
          "type": "uint256"
        }
      ],
      "payable": false,
      "stateMutability": "view",
      "type": "function"
    },
    {
      "constant": true,
      "inputs": [],
      "name": "arbitrator",
      "outputs": [
        {
          "name": "",
          "type": "address"
        }
      ],
      "payable": false,
      "stateMutability": "view",
      "type": "function"
    },
    {
      "constant": true,
      "inputs": [],
      "name": "rewardAllowed",
      "outputs": [
        {
          "name": "",
          "type": "uint256"
        }
      ],
      "payable": false,
      "stateMutability": "view",
      "type": "function"
    },
    {
      "constant": true,
      "inputs": [
        {
          "name": "",
          "type": "uint256"
        }
      ],
      "name": "carsArr",
      "outputs": [
        {
          "name": "",
          "type": "address"
        }
      ],
      "payable": false,
      "stateMutability": "view",
      "type": "function"
    },
    {
      "inputs": [],
      "payable": false,
      "stateMutability": "nonpayable",
      "type": "constructor"
    },
    {
      "anonymous": false,
      "inputs": [
        {
          "indexed": false,
          "name": "vin",
          "type": "uint256"
        },
        {
          "indexed": false,
          "name": "success",
          "type": "bool"
        }
      ],
      "name": "Delete",
      "type": "event"
    },
    {
      "anonymous": false,
      "inputs": [
        {
          "indexed": false,
          "name": "vin",
          "type": "uint256"
        },
        {
          "indexed": false,
          "name": "success",
          "type": "bool"
        }
      ],
      "name": "Edit",
      "type": "event"
    },
    {
      "anonymous": false,
      "inputs": [
        {
          "indexed": false,
          "name": "owner",
          "type": "address"
        },
        {
          "indexed": false,
          "name": "vin",
          "type": "uint256"
        },
        {
          "indexed": false,
          "name": "model",
          "type": "bytes32"
        },
        {
          "indexed": false,
          "name": "success",
          "type": "bool"
        }
      ],
      "name": "Add",
      "type": "event"
    },
    {
      "anonymous": false,
      "inputs": [
        {
          "indexed": false,
          "name": "vin",
          "type": "uint256"
        },
        {
          "indexed": false,
          "name": "price",
          "type": "uint256"
        },
        {
          "indexed": false,
          "name": "success",
          "type": "bool"
        }
      ],
      "name": "ConfirmSelling",
      "type": "event"
    },
    {
      "constant": true,
      "inputs": [],
      "name": "getOwner",
      "outputs": [
        {
          "name": "owner",
          "type": "address"
        }
      ],
      "payable": false,
      "stateMutability": "view",
      "type": "function"
    },
    {
      "constant": true,
      "inputs": [],
      "name": "getContractBalance",
      "outputs": [
        {
          "name": "balance",
          "type": "uint256"
        }
      ],
      "payable": false,
      "stateMutability": "view",
      "type": "function"
    },
    {
      "constant": true,
      "inputs": [],
      "name": "getNumberOfCars",
      "outputs": [
        {
          "name": "index",
          "type": "uint256"
        }
      ],
      "payable": false,
      "stateMutability": "view",
      "type": "function"
    },
    {
      "constant": false,
      "inputs": [
        {
          "name": "vin",
          "type": "uint256"
        }
      ],
      "name": "deleteCar",
      "outputs": [],
      "payable": false,
      "stateMutability": "nonpayable",
      "type": "function"
    },
    {
      "constant": false,
      "inputs": [
        {
          "name": "vin",
          "type": "uint256"
        },
        {
          "name": "model",
          "type": "bytes32"
        },
        {
          "name": "year",
          "type": "uint256"
        },
        {
          "name": "price",
          "type": "uint256"
        },
        {
          "name": "image",
          "type": "string"
        }
      ],
      "name": "editCar",
      "outputs": [],
      "payable": false,
      "stateMutability": "nonpayable",
      "type": "function"
    },
    {
      "constant": false,
      "inputs": [
        {
          "name": "vin",
          "type": "uint256"
        },
        {
          "name": "model",
          "type": "bytes32"
        },
        {
          "name": "year",
          "type": "uint256"
        },
        {
          "name": "price",
          "type": "uint256"
        },
        {
          "name": "image",
          "type": "string"
        }
      ],
      "name": "addCar",
      "outputs": [],
      "payable": false,
      "stateMutability": "nonpayable",
      "type": "function"
    },
    {
      "constant": false,
      "inputs": [
        {
          "name": "vin",
          "type": "uint256"
        }
      ],
      "name": "buy",
      "outputs": [],
      "payable": true,
      "stateMutability": "payable",
      "type": "function"
    },
    {
      "constant": false,
      "inputs": [
        {
          "name": "vin",
          "type": "uint256"
        }
      ],
      "name": "sendDelivery",
      "outputs": [],
      "payable": false,
      "stateMutability": "nonpayable",
      "type": "function"
    },
    {
      "constant": false,
      "inputs": [
        {
          "name": "vin",
          "type": "uint256"
        }
      ],
      "name": "confirmDelivery",
      "outputs": [],
      "payable": false,
      "stateMutability": "nonpayable",
      "type": "function"
    },
    {
      "constant": false,
      "inputs": [],
      "name": "withdrawAllReward",
      "outputs": [],
      "payable": false,
      "stateMutability": "nonpayable",
      "type": "function"
    },
    {
      "constant": true,
      "inputs": [
        {
          "name": "_vin",
          "type": "uint256"
        }
      ],
      "name": "getCarByVin",
      "outputs": [
        {
          "name": "owner",
          "type": "address"
        },
        {
          "name": "buyerAdd",
          "type": "address"
        },
        {
          "name": "vin",
          "type": "uint256"
        },
        {
          "name": "year",
          "type": "uint256"
        },
        {
          "name": "price",
          "type": "uint256"
        },
        {
          "name": "model",
          "type": "bytes32"
        },
        {
          "name": "sold",
          "type": "bool"
        },
        {
          "name": "image",
          "type": "string"
        },
        {
          "name": "state",
          "type": "uint8"
        },
        {
          "name": "timestamp",
          "type": "uint256"
        }
      ],
      "payable": false,
      "stateMutability": "view",
      "type": "function"
    },
    {
      "constant": true,
      "inputs": [
        {
          "name": "index",
          "type": "uint256"
        }
      ],
      "name": "getCarByIndex",
      "outputs": [
        {
          "name": "owner",
          "type": "address"
        },
        {
          "name": "buyerAdd",
          "type": "address"
        },
        {
          "name": "vin",
          "type": "uint256"
        },
        {
          "name": "year",
          "type": "uint256"
        },
        {
          "name": "price",
          "type": "uint256"
        },
        {
          "name": "model",
          "type": "bytes32"
        },
        {
          "name": "sold",
          "type": "bool"
        },
        {
          "name": "image",
          "type": "string"
        },
        {
          "name": "state",
          "type": "uint8"
        },
        {
          "name": "timestamp",
          "type": "uint256"
        }
      ],
      "payable": false,
      "stateMutability": "view",
      "type": "function"
    },
    {
      "constant": true,
      "inputs": [
        {
          "name": "_vin",
          "type": "uint256"
        }
      ],
      "name": "getHistoryLogCarLength",
      "outputs": [
        {
          "name": "length",
          "type": "uint256"
        }
      ],
      "payable": false,
      "stateMutability": "view",
      "type": "function"
    },
    {
      "constant": true,
      "inputs": [
        {
          "name": "_vin",
          "type": "uint256"
        },
        {
          "name": "_idx",
          "type": "uint256"
        }
      ],
      "name": "getHistoryLogCar",
      "outputs": [
        {
          "name": "owner",
          "type": "address"
        },
        {
          "name": "vin",
          "type": "uint256"
        },
        {
          "name": "year",
          "type": "uint256"
        },
        {
          "name": "price",
          "type": "uint256"
        },
        {
          "name": "model",
          "type": "bytes32"
        },
        {
          "name": "sold",
          "type": "bool"
        },
        {
          "name": "image",
          "type": "string"
        },
        {
          "name": "state",
          "type": "uint8"
        },
        {
          "name": "timestamp",
          "type": "uint256"
        }
      ],
      "payable": false,
      "stateMutability": "view",
      "type": "function"
    }
  ],
  "bytecode": "0x60806040526012600a0a6001553480156200001957600080fd5b50336000806101000a81548173ffffffffffffffffffffffffffffffffffffffff021916908373ffffffffffffffffffffffffffffffffffffffff160217905550620000fd3360007f486f6e64610000000000000000000000000000000000000000000000000000006107d8600154600102606060405190810160405280602e81526020017f516d66334155727676634b44726f4c737177537878434b6e6931544164714e4e81526020017f4d6a376648557578736e3175577900000000000000000000000000000000000081525062000103640100000000026401000000009004565b62000311565b600086868686866000876200011762000300565b808873ffffffffffffffffffffffffffffffffffffffff1673ffffffffffffffffffffffffffffffffffffffff16815260200187815260200186600019166000191681526020018581526020018481526020018315151515815260200180602001828103825283818151815260200191508051906020019080838360005b83811015620001b257808201518184015260208101905062000195565b50505050905090810190601f168015620001e05780820380516001836020036101000a031916815260200191505b5098505050505050505050604051809103906000f08015801562000208573d6000803e3d6000fd5b50905060068190806001815401808255809150509060018203906000526020600020016000909192909190916101000a81548173ffffffffffffffffffffffffffffffffffffffff021916908373ffffffffffffffffffffffffffffffffffffffff1602179055505060068054905060036000888152602001908152602001600020819055506001600260008973ffffffffffffffffffffffffffffffffffffffff1673ffffffffffffffffffffffffffffffffffffffff168152602001908152602001600020600088815260200190815260200160002060006101000a81548160ff02191690831515021790555050505050505050565b604051610c4e8062004cc983390190565b6149a880620003216000396000f30060806040526004361062000127576000357c0100000000000000000000000000000000000000000000000000000000900463ffffffff16806309538940146200012c578063193e364f14620002615780631e3a9f9e14620002c9578063216b39d01462000343578063326181df14620003875780634ec3b05114620003f15780635e3c576214620004355780636009808814620004655780636b37fbaa14620004955780636cc6cde114620004af5780636f9fb98a14620005095780637a8da44c14620005375780638199feb014620005a1578063893d20e814620006ff5780638c0ecc33146200075957806397d411641462000787578063b85ce4e914620008e5578063c6dea50b1462000913578063d96a094a1462000983578063fd84cb9714620009a5575b600080fd5b3480156200013957600080fd5b50620001646004803603810190808035906020019092919080359060200190929190505050620009d5565b604051808a73ffffffffffffffffffffffffffffffffffffffff1673ffffffffffffffffffffffffffffffffffffffff16815260200189815260200188815260200187815260200186600019166000191681526020018515151515815260200180602001846003811115620001d557fe5b60ff168152602001838152602001828103825285818151815260200191508051906020019080838360005b838110156200021d57808201518184015260208101905062000200565b50505050905090810190601f1680156200024b5780820380516001836020036101000a031916815260200191505b509a505050505050505050505060405180910390f35b3480156200026e57600080fd5b50620002af600480360381019080803573ffffffffffffffffffffffffffffffffffffffff1690602001909291908035906020019092919050505062001173565b604051808215151515815260200191505060405180910390f35b348015620002d657600080fd5b50620003016004803603810190808035906020019092919080359060200190929190505050620011a2565b604051808273ffffffffffffffffffffffffffffffffffffffff1673ffffffffffffffffffffffffffffffffffffffff16815260200191505060405180910390f35b3480156200035057600080fd5b506200037160048036038101908080359060200190929190505050620011f0565b6040518082815260200191505060405180910390f35b3480156200039457600080fd5b50620003ef600480360381019080803590602001909291908035600019169060200190929190803590602001909291908035906020019092919080359060200190820180359060200191909192939192939050505062001208565b005b348015620003fe57600080fd5b506200041f60048036038101908080359060200190929190505050620012de565b6040518082815260200191505060405180910390f35b3480156200044257600080fd5b5062000463600480360381019080803590602001909291905050506200138c565b005b3480156200047257600080fd5b50620004936004803603810190808035906020019092919050505062001586565b005b348015620004a257600080fd5b50620004ad62001938565b005b348015620004bc57600080fd5b50620004c762001acc565b604051808273ffffffffffffffffffffffffffffffffffffffff1673ffffffffffffffffffffffffffffffffffffffff16815260200191505060405180910390f35b3480156200051657600080fd5b506200052162001af1565b6040518082815260200191505060405180910390f35b3480156200054457600080fd5b506200059f600480360381019080803590602001909291908035600019169060200190929190803590602001909291908035906020019092919080359060200190820180359060200191909192939192939050505062001b10565b005b348015620005ae57600080fd5b50620005cf6004803603810190808035906020019092919050505062001d9c565b604051808b73ffffffffffffffffffffffffffffffffffffffff1673ffffffffffffffffffffffffffffffffffffffff1681526020018a73ffffffffffffffffffffffffffffffffffffffff1673ffffffffffffffffffffffffffffffffffffffff168152602001898152602001888152602001878152602001866000191660001916815260200185151515158152602001806020018460038111156200067257fe5b60ff168152602001838152602001828103825285818151815260200191508051906020019080838360005b83811015620006ba5780820151818401526020810190506200069d565b50505050905090810190601f168015620006e85780820380516001836020036101000a031916815260200191505b509b50505050505050505050505060405180910390f35b3480156200070c57600080fd5b506200071762002555565b604051808273ffffffffffffffffffffffffffffffffffffffff1673ffffffffffffffffffffffffffffffffffffffff16815260200191505060405180910390f35b3480156200076657600080fd5b50620007716200257e565b6040518082815260200191505060405180910390f35b3480156200079457600080fd5b50620007b56004803603810190808035906020019092919050505062002584565b604051808b73ffffffffffffffffffffffffffffffffffffffff1673ffffffffffffffffffffffffffffffffffffffff1681526020018a73ffffffffffffffffffffffffffffffffffffffff1673ffffffffffffffffffffffffffffffffffffffff168152602001898152602001888152602001878152602001866000191660001916815260200185151515158152602001806020018460038111156200085857fe5b60ff168152602001838152602001828103825285818151815260200191508051906020019080838360005b83811015620008a057808201518184015260208101905062000883565b50505050905090810190601f168015620008ce5780820380516001836020036101000a031916815260200191505b509b50505050505050505050505060405180910390f35b348015620008f257600080fd5b50620008fd62002d22565b6040518082815260200191505060405180910390f35b3480156200092057600080fd5b50620009416004803603810190808035906020019092919050505062002d2f565b604051808273ffffffffffffffffffffffffffffffffffffffff1673ffffffffffffffffffffffffffffffffffffffff16815260200191505060405180910390f35b620009a36004803603810190808035906020019092919050505062002d6e565b005b348015620009b257600080fd5b50620009d36004803603810190808035906020019092919050505062002fe5565b005b60008060008060008060606000806000808c6005600082815260200190815260200160002080549050600010151562000a76576040517f08c379a000000000000000000000000000000000000000000000000000000000815260040180806020018281038252601a8152602001807f6e6f20636172206c6f6767657220666f756e642062792076696e00000000000081525060200191505060405180910390fd5b600560008f8152602001908152602001600020925082805490508d10151562000b07576040517f08c379a000000000000000000000000000000000000000000000000000000000815260040180806020018281038252600c8152602001807f6f7574206f662072616e6765000000000000000000000000000000000000000081525060200191505060405180910390fd5b828d81548110151562000b1657fe5b9060005260206000200160009054906101000a900473ffffffffffffffffffffffffffffffffffffffff1691508173ffffffffffffffffffffffffffffffffffffffff16638da5cb5b6040518163ffffffff167c0100000000000000000000000000000000000000000000000000000000028152600401602060405180830381600087803b15801562000ba857600080fd5b505af115801562000bbd573d6000803e3d6000fd5b505050506040513d602081101562000bd457600080fd5b81019080805190602001909291905050508273ffffffffffffffffffffffffffffffffffffffff1663aca2d4646040518163ffffffff167c0100000000000000000000000000000000000000000000000000000000028152600401602060405180830381600087803b15801562000c4a57600080fd5b505af115801562000c5f573d6000803e3d6000fd5b505050506040513d602081101562000c7657600080fd5b81019080805190602001909291905050508373ffffffffffffffffffffffffffffffffffffffff1663f32697166040518163ffffffff167c0100000000000000000000000000000000000000000000000000000000028152600401602060405180830381600087803b15801562000cec57600080fd5b505af115801562000d01573d6000803e3d6000fd5b505050506040513d602081101562000d1857600080fd5b81019080805190602001909291905050508473ffffffffffffffffffffffffffffffffffffffff1663a035b1fe6040518163ffffffff167c0100000000000000000000000000000000000000000000000000000000028152600401602060405180830381600087803b15801562000d8e57600080fd5b505af115801562000da3573d6000803e3d6000fd5b505050506040513d602081101562000dba57600080fd5b81019080805190602001909291905050508573ffffffffffffffffffffffffffffffffffffffff16630ad9d0526040518163ffffffff167c0100000000000000000000000000000000000000000000000000000000028152600401602060405180830381600087803b15801562000e3057600080fd5b505af115801562000e45573d6000803e3d6000fd5b505050506040513d602081101562000e5c57600080fd5b81019080805190602001909291905050508673ffffffffffffffffffffffffffffffffffffffff166302c7e7af6040518163ffffffff167c0100000000000000000000000000000000000000000000000000000000028152600401602060405180830381600087803b15801562000ed257600080fd5b505af115801562000ee7573d6000803e3d6000fd5b505050506040513d602081101562000efe57600080fd5b81019080805190602001909291905050508773ffffffffffffffffffffffffffffffffffffffff1663ee4cdb576040518163ffffffff167c0100000000000000000000000000000000000000000000000000000000028152600401600060405180830381600087803b15801562000f7457600080fd5b505af115801562000f89573d6000803e3d6000fd5b505050506040513d6000823e3d601f19601f82011682018060405250602081101562000fb457600080fd5b81019080805164010000000081111562000fcd57600080fd5b8281019050602081018481111562000fe457600080fd5b81518560018202830111640100000000821117156200100257600080fd5b50509291905050508873ffffffffffffffffffffffffffffffffffffffff1663c19d93fb6040518163ffffffff167c0100000000000000000000000000000000000000000000000000000000028152600401602060405180830381600087803b1580156200106f57600080fd5b505af115801562001084573d6000803e3d6000fd5b505050506040513d60208110156200109b57600080fd5b81019080805190602001909291905050508973ffffffffffffffffffffffffffffffffffffffff1663b80777ea6040518163ffffffff167c0100000000000000000000000000000000000000000000000000000000028152600401602060405180830381600087803b1580156200111157600080fd5b505af115801562001126573d6000803e3d6000fd5b505050506040513d60208110156200113d57600080fd5b81019080805190602001909291905050508292509b509b509b509b509b509b509b509b509b505050509295985092959850929598565b60026020528160005260406000206020528060005260406000206000915091509054906101000a900460ff1681565b600560205281600052604060002081815481101515620011be57fe5b906000526020600020016000915091509054906101000a900473ffffffffffffffffffffffffffffffffffffffff1681565b60036020528060005260406000206000915090505481565b6200124e33878787600154880287878080601f016020809104026020016040519081016040528093929190818152602001838380828437820191505050505050620039f6565b7f63b00a10149042152be04e4d2aee7b31c951ff8378494ac00362e91131a0188d3387876001604051808573ffffffffffffffffffffffffffffffffffffffff1673ffffffffffffffffffffffffffffffffffffffff16815260200184815260200183600019166000191681526020018215151515815260200194505050505060405180910390a1505050505050565b600081600360008281526020019081526020016000205460001015156200136d576040517f08c379a00000000000000000000000000000000000000000000000000000000081526004018080602001828103825260138152602001807f6e6f2063617220666f756e642062792076696e0000000000000000000000000081525060200191505060405180910390fd5b6005600084815260200190815260200160002080549050915050919050565b60003382600260008373ffffffffffffffffffffffffffffffffffffffff1673ffffffffffffffffffffffffffffffffffffffff168152602001908152602001600020600082815260200190815260200160002060009054906101000a900460ff16806200144657508173ffffffffffffffffffffffffffffffffffffffff166000809054906101000a900473ffffffffffffffffffffffffffffffffffffffff1673ffffffffffffffffffffffffffffffffffffffff16145b1515620014bb576040517f08c379a000000000000000000000000000000000000000000000000000000000815260040180806020018281038252601b8152602001807f6e6f2063617220666f756e6420627920616464726573732f76696e000000000081525060200191505060405180910390fd5b6006620014c88562003bf3565b815481101515620014d557fe5b9060005260206000200160009054906101000a900473ffffffffffffffffffffffffffffffffffffffff1692508273ffffffffffffffffffffffffffffffffffffffff166317ec5c2d6040518163ffffffff167c0100000000000000000000000000000000000000000000000000000000028152600401600060405180830381600087803b1580156200156757600080fd5b505af11580156200157c573d6000803e3d6000fd5b5050505050505050565b6000803383600260008373ffffffffffffffffffffffffffffffffffffffff1673ffffffffffffffffffffffffffffffffffffffff168152602001908152602001600020600082815260200190815260200160002060009054906101000a900460ff16806200164157508173ffffffffffffffffffffffffffffffffffffffff166000809054906101000a900473ffffffffffffffffffffffffffffffffffffffff1673ffffffffffffffffffffffffffffffffffffffff16145b1515620016b6576040517f08c379a000000000000000000000000000000000000000000000000000000000815260040180806020018281038252601b8152602001807f6e6f2063617220666f756e6420627920616464726573732f76696e000000000081525060200191505060405180910390fd5b620016c18562003bf3565b93508392505b6001600680549050038310156200187957600660018401815481101515620016eb57fe5b9060005260206000200160009054906101000a900473ffffffffffffffffffffffffffffffffffffffff166006848154811015156200172657fe5b9060005260206000200160006101000a81548173ffffffffffffffffffffffffffffffffffffffff021916908373ffffffffffffffffffffffffffffffffffffffff160217905550600360006006858154811015156200178257fe5b9060005260206000200160009054906101000a900473ffffffffffffffffffffffffffffffffffffffff1673ffffffffffffffffffffffffffffffffffffffff1663aca2d4646040518163ffffffff167c0100000000000000000000000000000000000000000000000000000000028152600401602060405180830381600087803b1580156200181157600080fd5b505af115801562001826573d6000803e3d6000fd5b505050506040513d60208110156200183d57600080fd5b810190808051906020019092919050505081526020019081526020016000206000815480929190600190039190505550826001019250620016c7565b60066001600680549050038154811015156200189157fe5b9060005260206000200160006101000a81549073ffffffffffffffffffffffffffffffffffffffff02191690556006805480919060019003620018d5919062003cc6565b5060036000868152602001908152602001600020600090557f9d4d9382d16aed709af37f4e1adb50b5a9e0dc3f077e7026f7eff77f0d74d37985600160405180838152602001821515151581526020019250505060405180910390a15050505050565b3373ffffffffffffffffffffffffffffffffffffffff166000809054906101000a900473ffffffffffffffffffffffffffffffffffffffff1673ffffffffffffffffffffffffffffffffffffffff16141515620019fd576040517f08c379a000000000000000000000000000000000000000000000000000000000815260040180806020018281038252601a8152602001807f61726269747261746f7220697320616c6c6f776564206f6e6c7900000000000081525060200191505060405180910390fd5b600060075411151562001a78576040517f08c379a000000000000000000000000000000000000000000000000000000000815260040180806020018281038252600f8152602001807f72657761726420697320656d707479000000000000000000000000000000000081525060200191505060405180910390fd5b3373ffffffffffffffffffffffffffffffffffffffff166108fc6007549081150290604051600060405180830381858888f1935050505015801562001ac1573d6000803e3d6000fd5b506000600781905550565b6000809054906101000a900473ffffffffffffffffffffffffffffffffffffffff1681565b60003073ffffffffffffffffffffffffffffffffffffffff1631905090565b60003387600260008373ffffffffffffffffffffffffffffffffffffffff1673ffffffffffffffffffffffffffffffffffffffff168152602001908152602001600020600082815260200190815260200160002060009054906101000a900460ff168062001bca57508173ffffffffffffffffffffffffffffffffffffffff166000809054906101000a900473ffffffffffffffffffffffffffffffffffffffff1673ffffffffffffffffffffffffffffffffffffffff16145b151562001c3f576040517f08c379a000000000000000000000000000000000000000000000000000000000815260040180806020018281038252601b8152602001807f6e6f2063617220666f756e6420627920616464726573732f76696e000000000081525060200191505060405180910390fd5b600662001c4c8a62003bf3565b81548110151562001c5957fe5b9060005260206000200160009054906101000a900473ffffffffffffffffffffffffffffffffffffffff1692508273ffffffffffffffffffffffffffffffffffffffff1663d81df1ef89896001548a0289896040518663ffffffff167c010000000000000000000000000000000000000000000000000000000002815260040180866000191660001916815260200185815260200184815260200180602001828103825284848281815260200192508082843782019150509650505050505050600060405180830381600087803b15801562001d3457600080fd5b505af115801562001d49573d6000803e3d6000fd5b505050507f9896bfaa4b5c77185f664c6d5d6fd8cae37c6b31b0b9b45a9faccd50b0c8c35c89600160405180838152602001821515151581526020019250505060405180910390a1505050505050505050565b6000806000806000806000606060008060008b6003600082815260200190815260200160002054600010151562001e3b576040517f08c379a00000000000000000000000000000000000000000000000000000000081526004018080602001828103825260138152602001807f6e6f2063617220666f756e642062792076696e0000000000000000000000000081525060200191505060405180910390fd5b600662001e488e62003bf3565b81548110151562001e5557fe5b9060005260206000200160009054906101000a900473ffffffffffffffffffffffffffffffffffffffff1691508173ffffffffffffffffffffffffffffffffffffffff16638da5cb5b6040518163ffffffff167c0100000000000000000000000000000000000000000000000000000000028152600401602060405180830381600087803b15801562001ee757600080fd5b505af115801562001efc573d6000803e3d6000fd5b505050506040513d602081101562001f1357600080fd5b81019080805190602001909291905050508273ffffffffffffffffffffffffffffffffffffffff16637150d8ae6040518163ffffffff167c0100000000000000000000000000000000000000000000000000000000028152600401602060405180830381600087803b15801562001f8957600080fd5b505af115801562001f9e573d6000803e3d6000fd5b505050506040513d602081101562001fb557600080fd5b81019080805190602001909291905050508373ffffffffffffffffffffffffffffffffffffffff1663aca2d4646040518163ffffffff167c0100000000000000000000000000000000000000000000000000000000028152600401602060405180830381600087803b1580156200202b57600080fd5b505af115801562002040573d6000803e3d6000fd5b505050506040513d60208110156200205757600080fd5b81019080805190602001909291905050508473ffffffffffffffffffffffffffffffffffffffff1663f32697166040518163ffffffff167c0100000000000000000000000000000000000000000000000000000000028152600401602060405180830381600087803b158015620020cd57600080fd5b505af1158015620020e2573d6000803e3d6000fd5b505050506040513d6020811015620020f957600080fd5b81019080805190602001909291905050508573ffffffffffffffffffffffffffffffffffffffff1663a035b1fe6040518163ffffffff167c0100000000000000000000000000000000000000000000000000000000028152600401602060405180830381600087803b1580156200216f57600080fd5b505af115801562002184573d6000803e3d6000fd5b505050506040513d60208110156200219b57600080fd5b81019080805190602001909291905050508673ffffffffffffffffffffffffffffffffffffffff16630ad9d0526040518163ffffffff167c0100000000000000000000000000000000000000000000000000000000028152600401602060405180830381600087803b1580156200221157600080fd5b505af115801562002226573d6000803e3d6000fd5b505050506040513d60208110156200223d57600080fd5b81019080805190602001909291905050508773ffffffffffffffffffffffffffffffffffffffff166302c7e7af6040518163ffffffff167c0100000000000000000000000000000000000000000000000000000000028152600401602060405180830381600087803b158015620022b357600080fd5b505af1158015620022c8573d6000803e3d6000fd5b505050506040513d6020811015620022df57600080fd5b81019080805190602001909291905050508873ffffffffffffffffffffffffffffffffffffffff1663ee4cdb576040518163ffffffff167c0100000000000000000000000000000000000000000000000000000000028152600401600060405180830381600087803b1580156200235557600080fd5b505af11580156200236a573d6000803e3d6000fd5b505050506040513d6000823e3d601f19601f8201168201806040525060208110156200239557600080fd5b810190808051640100000000811115620023ae57600080fd5b82810190506020810184811115620023c557600080fd5b8151856001820283011164010000000082111715620023e357600080fd5b50509291905050508973ffffffffffffffffffffffffffffffffffffffff1663c19d93fb6040518163ffffffff167c0100000000000000000000000000000000000000000000000000000000028152600401602060405180830381600087803b1580156200245057600080fd5b505af115801562002465573d6000803e3d6000fd5b505050506040513d60208110156200247c57600080fd5b81019080805190602001909291905050508a73ffffffffffffffffffffffffffffffffffffffff1663b80777ea6040518163ffffffff167c0100000000000000000000000000000000000000000000000000000000028152600401602060405180830381600087803b158015620024f257600080fd5b505af115801562002507573d6000803e3d6000fd5b505050506040513d60208110156200251e57600080fd5b81019080805190602001909291905050508292509b509b509b509b509b509b509b509b509b509b5050509193959799509193959799565b60008060009054906101000a900473ffffffffffffffffffffffffffffffffffffffff16905090565b60075481565b6000806000806000806000606060008060006006805490508c10151562002613576040517f08c379a00000000000000000000000000000000000000000000000000000000081526004018080602001828103825260158152602001807f696e646578206973206f7574206f662072616e6765000000000000000000000081525060200191505060405180910390fd5b60068c8154811015156200262357fe5b9060005260206000200160009054906101000a900473ffffffffffffffffffffffffffffffffffffffff1690508073ffffffffffffffffffffffffffffffffffffffff16638da5cb5b6040518163ffffffff167c0100000000000000000000000000000000000000000000000000000000028152600401602060405180830381600087803b158015620026b557600080fd5b505af1158015620026ca573d6000803e3d6000fd5b505050506040513d6020811015620026e157600080fd5b81019080805190602001909291905050508173ffffffffffffffffffffffffffffffffffffffff16637150d8ae6040518163ffffffff167c0100000000000000000000000000000000000000000000000000000000028152600401602060405180830381600087803b1580156200275757600080fd5b505af11580156200276c573d6000803e3d6000fd5b505050506040513d60208110156200278357600080fd5b81019080805190602001909291905050508273ffffffffffffffffffffffffffffffffffffffff1663aca2d4646040518163ffffffff167c0100000000000000000000000000000000000000000000000000000000028152600401602060405180830381600087803b158015620027f957600080fd5b505af11580156200280e573d6000803e3d6000fd5b505050506040513d60208110156200282557600080fd5b81019080805190602001909291905050508373ffffffffffffffffffffffffffffffffffffffff1663f32697166040518163ffffffff167c0100000000000000000000000000000000000000000000000000000000028152600401602060405180830381600087803b1580156200289b57600080fd5b505af1158015620028b0573d6000803e3d6000fd5b505050506040513d6020811015620028c757600080fd5b81019080805190602001909291905050508473ffffffffffffffffffffffffffffffffffffffff1663a035b1fe6040518163ffffffff167c0100000000000000000000000000000000000000000000000000000000028152600401602060405180830381600087803b1580156200293d57600080fd5b505af115801562002952573d6000803e3d6000fd5b505050506040513d60208110156200296957600080fd5b81019080805190602001909291905050508573ffffffffffffffffffffffffffffffffffffffff16630ad9d0526040518163ffffffff167c0100000000000000000000000000000000000000000000000000000000028152600401602060405180830381600087803b158015620029df57600080fd5b505af1158015620029f4573d6000803e3d6000fd5b505050506040513d602081101562002a0b57600080fd5b81019080805190602001909291905050508673ffffffffffffffffffffffffffffffffffffffff166302c7e7af6040518163ffffffff167c0100000000000000000000000000000000000000000000000000000000028152600401602060405180830381600087803b15801562002a8157600080fd5b505af115801562002a96573d6000803e3d6000fd5b505050506040513d602081101562002aad57600080fd5b81019080805190602001909291905050508773ffffffffffffffffffffffffffffffffffffffff1663ee4cdb576040518163ffffffff167c0100000000000000000000000000000000000000000000000000000000028152600401600060405180830381600087803b15801562002b2357600080fd5b505af115801562002b38573d6000803e3d6000fd5b505050506040513d6000823e3d601f19601f82011682018060405250602081101562002b6357600080fd5b81019080805164010000000081111562002b7c57600080fd5b8281019050602081018481111562002b9357600080fd5b815185600182028301116401000000008211171562002bb157600080fd5b50509291905050508873ffffffffffffffffffffffffffffffffffffffff1663c19d93fb6040518163ffffffff167c0100000000000000000000000000000000000000000000000000000000028152600401602060405180830381600087803b15801562002c1e57600080fd5b505af115801562002c33573d6000803e3d6000fd5b505050506040513d602081101562002c4a57600080fd5b81019080805190602001909291905050508973ffffffffffffffffffffffffffffffffffffffff1663b80777ea6040518163ffffffff167c0100000000000000000000000000000000000000000000000000000000028152600401602060405180830381600087803b15801562002cc057600080fd5b505af115801562002cd5573d6000803e3d6000fd5b505050506040513d602081101562002cec57600080fd5b81019080805190602001909291905050508292509a509a509a509a509a509a509a509a509a509a50509193959799509193959799565b6000600680549050905090565b60068181548110151562002d3f57fe5b906000526020600020016000915054906101000a900473ffffffffffffffffffffffffffffffffffffffff1681565b6000600662002d7d8362003bf3565b81548110151562002d8a57fe5b9060005260206000200160009054906101000a900473ffffffffffffffffffffffffffffffffffffffff1690508073ffffffffffffffffffffffffffffffffffffffff166302c7e7af6040518163ffffffff167c0100000000000000000000000000000000000000000000000000000000028152600401602060405180830381600087803b15801562002e1c57600080fd5b505af115801562002e31573d6000803e3d6000fd5b505050506040513d602081101562002e4857600080fd5b810190808051906020019092919050505015151562002ecf576040517f08c379a00000000000000000000000000000000000000000000000000000000081526004018080602001828103825260138152602001807f63617220697320616c726561647920736f6c640000000000000000000000000081525060200191505060405180910390fd5b8073ffffffffffffffffffffffffffffffffffffffff1663cce7ec1333346040518363ffffffff167c0100000000000000000000000000000000000000000000000000000000028152600401808373ffffffffffffffffffffffffffffffffffffffff1673ffffffffffffffffffffffffffffffffffffffff16815260200182815260200192505050600060405180830381600087803b15801562002f7357600080fd5b505af115801562002f88573d6000803e3d6000fd5b5050505034600460003373ffffffffffffffffffffffffffffffffffffffff1673ffffffffffffffffffffffffffffffffffffffff1681526020019081526020016000206000848152602001908152602001600020819055505050565b6000803383600460008373ffffffffffffffffffffffffffffffffffffffff1673ffffffffffffffffffffffffffffffffffffffff168152602001908152602001600020600082815260200190815260200160002054600010806200309657508173ffffffffffffffffffffffffffffffffffffffff166000809054906101000a900473ffffffffffffffffffffffffffffffffffffffff1673ffffffffffffffffffffffffffffffffffffffff16145b15156200310b576040517f08c379a000000000000000000000000000000000000000000000000000000000815260040180806020018281038252601d8152602001807f6e6f20626179657220666f756e6420627920616464726573732f76696e00000081525060200191505060405180910390fd5b6006620031188662003bf3565b8154811015156200312557fe5b9060005260206000200160009054906101000a900473ffffffffffffffffffffffffffffffffffffffff169350600460003373ffffffffffffffffffffffffffffffffffffffff1673ffffffffffffffffffffffffffffffffffffffff1681526020019081526020016000206000868152602001908152602001600020600090556064600a8573ffffffffffffffffffffffffffffffffffffffff1663a035b1fe6040518163ffffffff167c0100000000000000000000000000000000000000000000000000000000028152600401602060405180830381600087803b1580156200320f57600080fd5b505af115801562003224573d6000803e3d6000fd5b505050506040513d60208110156200323b57600080fd5b8101908080519060200190929190505050028115156200325757fe5b0492508373ffffffffffffffffffffffffffffffffffffffff16638da5cb5b6040518163ffffffff167c0100000000000000000000000000000000000000000000000000000000028152600401602060405180830381600087803b158015620032bf57600080fd5b505af1158015620032d4573d6000803e3d6000fd5b505050506040513d6020811015620032eb57600080fd5b810190808051906020019092919050505073ffffffffffffffffffffffffffffffffffffffff166108fc848673ffffffffffffffffffffffffffffffffffffffff1663a035b1fe6040518163ffffffff167c0100000000000000000000000000000000000000000000000000000000028152600401602060405180830381600087803b1580156200337b57600080fd5b505af115801562003390573d6000803e3d6000fd5b505050506040513d6020811015620033a757600080fd5b8101908080519060200190929190505050039081150290604051600060405180830381858888f19350505050158015620033e5573d6000803e3d6000fd5b508373ffffffffffffffffffffffffffffffffffffffff16639f7aee82336040518263ffffffff167c0100000000000000000000000000000000000000000000000000000000028152600401808273ffffffffffffffffffffffffffffffffffffffff1673ffffffffffffffffffffffffffffffffffffffff168152602001915050600060405180830381600087803b1580156200348257600080fd5b505af115801562003497573d6000803e3d6000fd5b50505050826007600082825401925050819055506005600086815260200190815260200160002033868673ffffffffffffffffffffffffffffffffffffffff16630ad9d0526040518163ffffffff167c0100000000000000000000000000000000000000000000000000000000028152600401602060405180830381600087803b1580156200352557600080fd5b505af11580156200353a573d6000803e3d6000fd5b505050506040513d60208110156200355157600080fd5b81019080805190602001909291905050508773ffffffffffffffffffffffffffffffffffffffff1663f32697166040518163ffffffff167c0100000000000000000000000000000000000000000000000000000000028152600401602060405180830381600087803b158015620035c757600080fd5b505af1158015620035dc573d6000803e3d6000fd5b505050506040513d6020811015620035f357600080fd5b81019080805190602001909291905050508873ffffffffffffffffffffffffffffffffffffffff1663a035b1fe6040518163ffffffff167c0100000000000000000000000000000000000000000000000000000000028152600401602060405180830381600087803b1580156200366957600080fd5b505af11580156200367e573d6000803e3d6000fd5b505050506040513d60208110156200369557600080fd5b810190808051906020019092919050505060018a73ffffffffffffffffffffffffffffffffffffffff1663ee4cdb576040518163ffffffff167c0100000000000000000000000000000000000000000000000000000000028152600401600060405180830381600087803b1580156200370d57600080fd5b505af115801562003722573d6000803e3d6000fd5b505050506040513d6000823e3d601f19601f8201168201806040525060208110156200374d57600080fd5b8101908080516401000000008111156200376657600080fd5b828101905060208101848111156200377d57600080fd5b81518560018202830111640100000000821117156200379b57600080fd5b5050929190505050620037ad62003cf5565b808873ffffffffffffffffffffffffffffffffffffffff1673ffffffffffffffffffffffffffffffffffffffff16815260200187815260200186600019166000191681526020018581526020018481526020018315151515815260200180602001828103825283818151815260200191508051906020019080838360005b83811015620038485780820151818401526020810190506200382b565b50505050905090810190601f168015620038765780820380516001836020036101000a031916815260200191505b5098505050505050505050604051809103906000f0801580156200389e573d6000803e3d6000fd5b5090806001815401808255809150509060018203906000526020600020016000909192909190916101000a81548173ffffffffffffffffffffffffffffffffffffffff021916908373ffffffffffffffffffffffffffffffffffffffff160217905550507fb8699cbbf451aa7e830582e308398b69613831fd8d851865054406a655da4c37858573ffffffffffffffffffffffffffffffffffffffff1663a035b1fe6040518163ffffffff167c0100000000000000000000000000000000000000000000000000000000028152600401602060405180830381600087803b1580156200398957600080fd5b505af11580156200399e573d6000803e3d6000fd5b505050506040513d6020811015620039b557600080fd5b810190808051906020019092919050505060016040518084815260200183815260200182151515158152602001935050505060405180910390a15050505050565b6000868686868660008762003a0a62003cf5565b808873ffffffffffffffffffffffffffffffffffffffff1673ffffffffffffffffffffffffffffffffffffffff16815260200187815260200186600019166000191681526020018581526020018481526020018315151515815260200180602001828103825283818151815260200191508051906020019080838360005b8381101562003aa557808201518184015260208101905062003a88565b50505050905090810190601f16801562003ad35780820380516001836020036101000a031916815260200191505b5098505050505050505050604051809103906000f08015801562003afb573d6000803e3d6000fd5b50905060068190806001815401808255809150509060018203906000526020600020016000909192909190916101000a81548173ffffffffffffffffffffffffffffffffffffffff021916908373ffffffffffffffffffffffffffffffffffffffff1602179055505060068054905060036000888152602001908152602001600020819055506001600260008973ffffffffffffffffffffffffffffffffffffffff1673ffffffffffffffffffffffffffffffffffffffff168152602001908152602001600020600088815260200190815260200160002060006101000a81548160ff02191690831515021790555050505050505050565b60006003600083815260200190815260200160002054600010801562003c3357506006805490506001600360008581526020019081526020016000205403105b151562003ca8576040517f08c379a00000000000000000000000000000000000000000000000000000000081526004018080602001828103825260148152602001807f6e6f742076616c69642063617227732076696e2000000000000000000000000081525060200191505060405180910390fd5b60016003600084815260200190815260200160002054039050919050565b81548183558181111562003cf05781836000526020600020918201910162003cef919062003d06565b5b505050565b604051610c4e8062003d2f83390190565b62003d2b91905b8082111562003d2757600081600090555060010162003d0d565b5090565b905600608060405234801561001057600080fd5b50604051610c4e380380610c4e83398101806040528101908080519060200190929190805190602001909291908051906020019092919080519060200190929190805190602001909291908051906020019092919080518201929190505050866000806101000a81548173ffffffffffffffffffffffffffffffffffffffff021916908373ffffffffffffffffffffffffffffffffffffffff1602179055506000600160006101000a81548173ffffffffffffffffffffffffffffffffffffffff021916908373ffffffffffffffffffffffffffffffffffffffff16021790555085600281905550836003819055508260048190555084600581600019169055508060069080519060200190610127929190610179565b504260088190555081600760016101000a81548160ff0219169083151502179055506000600760006101000a81548160ff0219169083600381111561016857fe5b02179055505050505050505061021e565b828054600181600116156101000203166002900490600052602060002090601f016020900481019282601f106101ba57805160ff19168380011785556101e8565b828001600101855582156101e8579182015b828111156101e75782518255916020019190600101906101cc565b5b5090506101f591906101f9565b5090565b61021b91905b808211156102175760008160009055506001016101ff565b5090565b90565b610a218061022d6000396000f3006080604052600436106100d0576000357c0100000000000000000000000000000000000000000000000000000000900463ffffffff16806302c7e7af146100d55780630ad9d0521461010457806317ec5c2d146101375780637150d8ae1461014e5780638da5cb5b146101a55780639f7aee82146101fc578063a035b1fe1461023f578063aca2d4641461026a578063b80777ea14610295578063c19d93fb146102c0578063cce7ec13146102f9578063d81df1ef14610339578063ee4cdb57146103c4578063f326971614610454575b600080fd5b3480156100e157600080fd5b506100ea61047f565b604051808215151515815260200191505060405180910390f35b34801561011057600080fd5b50610119610492565b60405180826000191660001916815260200191505060405180910390f35b34801561014357600080fd5b5061014c610498565b005b34801561015a57600080fd5b5061016361055d565b604051808273ffffffffffffffffffffffffffffffffffffffff1673ffffffffffffffffffffffffffffffffffffffff16815260200191505060405180910390f35b3480156101b157600080fd5b506101ba610583565b604051808273ffffffffffffffffffffffffffffffffffffffff1673ffffffffffffffffffffffffffffffffffffffff16815260200191505060405180910390f35b34801561020857600080fd5b5061023d600480360381019080803573ffffffffffffffffffffffffffffffffffffffff1690602001909291905050506105a8565b005b34801561024b57600080fd5b506102546106c9565b6040518082815260200191505060405180910390f35b34801561027657600080fd5b5061027f6106cf565b6040518082815260200191505060405180910390f35b3480156102a157600080fd5b506102aa6106d5565b6040518082815260200191505060405180910390f35b3480156102cc57600080fd5b506102d56106db565b604051808260038111156102e557fe5b60ff16815260200191505060405180910390f35b610337600480360381019080803573ffffffffffffffffffffffffffffffffffffffff169060200190929190803590602001909291905050506106ee565b005b34801561034557600080fd5b506103c260048036038101908080356000191690602001909291908035906020019092919080359060200190929190803590602001908201803590602001908080601f016020809104026020016040519081016040528093929190818152602001838380828437820191505050505050919291929050505061086f565b005b3480156103d057600080fd5b506103d96108ac565b6040518080602001828103825283818151815260200191508051906020019080838360005b838110156104195780820151818401526020810190506103fe565b50505050905090810190601f1680156104465780820380516001836020036101000a031916815260200191505b509250505060405180910390f35b34801561046057600080fd5b5061046961094a565b6040518082815260200191505060405180910390f35b600760019054906101000a900460ff1681565b60055481565b60018060038111156104a657fe5b600760009054906101000a900460ff1660038111156104c157fe5b141515610536576040517f08c379a000000000000000000000000000000000000000000000000000000000815260040180806020018281038252600f8152602001807f6e6f742076616c6964207374617465000000000000000000000000000000000081525060200191505060405180910390fd5b6002600760006101000a81548160ff0219169083600381111561055557fe5b021790555050565b600160009054906101000a900473ffffffffffffffffffffffffffffffffffffffff1681565b6000809054906101000a900473ffffffffffffffffffffffffffffffffffffffff1681565b60028060038111156105b657fe5b600760009054906101000a900460ff1660038111156105d157fe5b141515610646576040517f08c379a000000000000000000000000000000000000000000000000000000000815260040180806020018281038252600f8152602001807f6e6f742076616c6964207374617465000000000000000000000000000000000081525060200191505060405180910390fd5b6003600760006101000a81548160ff0219169083600381111561066557fe5b02179055506001600760016101000a81548160ff021916908315150217905550816000806101000a81548173ffffffffffffffffffffffffffffffffffffffff021916908373ffffffffffffffffffffffffffffffffffffffff1602179055505050565b60045481565b60025481565b60085481565b600760009054906101000a900460ff1681565b60008060038111156106fc57fe5b600760009054906101000a900460ff16600381111561071757fe5b14151561078c576040517f08c379a000000000000000000000000000000000000000000000000000000000815260040180806020018281038252600f8152602001807f6e6f742076616c6964207374617465000000000000000000000000000000000081525060200191505060405180910390fd5b60045482141515610805576040517f08c379a000000000000000000000000000000000000000000000000000000000815260040180806020018281038252601c8152602001807f616d6f756e74206973206e6f7420657175616c20746f2070726963650000000081525060200191505060405180910390fd5b82600160006101000a81548173ffffffffffffffffffffffffffffffffffffffff021916908373ffffffffffffffffffffffffffffffffffffffff1602179055506001600760006101000a81548160ff0219169083600381111561086557fe5b0217905550505050565b82600381905550816004819055508360058160001916905550806006908051906020019061089e929190610950565b504260088190555050505050565b60068054600181600116156101000203166002900480601f0160208091040260200160405190810160405280929190818152602001828054600181600116156101000203166002900480156109425780601f1061091757610100808354040283529160200191610942565b820191906000526020600020905b81548152906001019060200180831161092557829003601f168201915b505050505081565b60035481565b828054600181600116156101000203166002900490600052602060002090601f016020900481019282601f1061099157805160ff19168380011785556109bf565b828001600101855582156109bf579182015b828111156109be5782518255916020019190600101906109a3565b5b5090506109cc91906109d0565b5090565b6109f291905b808211156109ee5760008160009055506001016109d6565b5090565b905600a165627a7a72305820366bf3507e4bfa92e019e272d54b6318d9c9bf29f9c33d8ffa4b124fcd5d30e30029a165627a7a7230582060526832fbd97f226adfb6ea01292470a14fe97e5ffdb0719434b75b46d008e60029608060405234801561001057600080fd5b50604051610c4e380380610c4e83398101806040528101908080519060200190929190805190602001909291908051906020019092919080519060200190929190805190602001909291908051906020019092919080518201929190505050866000806101000a81548173ffffffffffffffffffffffffffffffffffffffff021916908373ffffffffffffffffffffffffffffffffffffffff1602179055506000600160006101000a81548173ffffffffffffffffffffffffffffffffffffffff021916908373ffffffffffffffffffffffffffffffffffffffff16021790555085600281905550836003819055508260048190555084600581600019169055508060069080519060200190610127929190610179565b504260088190555081600760016101000a81548160ff0219169083151502179055506000600760006101000a81548160ff0219169083600381111561016857fe5b02179055505050505050505061021e565b828054600181600116156101000203166002900490600052602060002090601f016020900481019282601f106101ba57805160ff19168380011785556101e8565b828001600101855582156101e8579182015b828111156101e75782518255916020019190600101906101cc565b5b5090506101f591906101f9565b5090565b61021b91905b808211156102175760008160009055506001016101ff565b5090565b90565b610a218061022d6000396000f3006080604052600436106100d0576000357c0100000000000000000000000000000000000000000000000000000000900463ffffffff16806302c7e7af146100d55780630ad9d0521461010457806317ec5c2d146101375780637150d8ae1461014e5780638da5cb5b146101a55780639f7aee82146101fc578063a035b1fe1461023f578063aca2d4641461026a578063b80777ea14610295578063c19d93fb146102c0578063cce7ec13146102f9578063d81df1ef14610339578063ee4cdb57146103c4578063f326971614610454575b600080fd5b3480156100e157600080fd5b506100ea61047f565b604051808215151515815260200191505060405180910390f35b34801561011057600080fd5b50610119610492565b60405180826000191660001916815260200191505060405180910390f35b34801561014357600080fd5b5061014c610498565b005b34801561015a57600080fd5b5061016361055d565b604051808273ffffffffffffffffffffffffffffffffffffffff1673ffffffffffffffffffffffffffffffffffffffff16815260200191505060405180910390f35b3480156101b157600080fd5b506101ba610583565b604051808273ffffffffffffffffffffffffffffffffffffffff1673ffffffffffffffffffffffffffffffffffffffff16815260200191505060405180910390f35b34801561020857600080fd5b5061023d600480360381019080803573ffffffffffffffffffffffffffffffffffffffff1690602001909291905050506105a8565b005b34801561024b57600080fd5b506102546106c9565b6040518082815260200191505060405180910390f35b34801561027657600080fd5b5061027f6106cf565b6040518082815260200191505060405180910390f35b3480156102a157600080fd5b506102aa6106d5565b6040518082815260200191505060405180910390f35b3480156102cc57600080fd5b506102d56106db565b604051808260038111156102e557fe5b60ff16815260200191505060405180910390f35b610337600480360381019080803573ffffffffffffffffffffffffffffffffffffffff169060200190929190803590602001909291905050506106ee565b005b34801561034557600080fd5b506103c260048036038101908080356000191690602001909291908035906020019092919080359060200190929190803590602001908201803590602001908080601f016020809104026020016040519081016040528093929190818152602001838380828437820191505050505050919291929050505061086f565b005b3480156103d057600080fd5b506103d96108ac565b6040518080602001828103825283818151815260200191508051906020019080838360005b838110156104195780820151818401526020810190506103fe565b50505050905090810190601f1680156104465780820380516001836020036101000a031916815260200191505b509250505060405180910390f35b34801561046057600080fd5b5061046961094a565b6040518082815260200191505060405180910390f35b600760019054906101000a900460ff1681565b60055481565b60018060038111156104a657fe5b600760009054906101000a900460ff1660038111156104c157fe5b141515610536576040517f08c379a000000000000000000000000000000000000000000000000000000000815260040180806020018281038252600f8152602001807f6e6f742076616c6964207374617465000000000000000000000000000000000081525060200191505060405180910390fd5b6002600760006101000a81548160ff0219169083600381111561055557fe5b021790555050565b600160009054906101000a900473ffffffffffffffffffffffffffffffffffffffff1681565b6000809054906101000a900473ffffffffffffffffffffffffffffffffffffffff1681565b60028060038111156105b657fe5b600760009054906101000a900460ff1660038111156105d157fe5b141515610646576040517f08c379a000000000000000000000000000000000000000000000000000000000815260040180806020018281038252600f8152602001807f6e6f742076616c6964207374617465000000000000000000000000000000000081525060200191505060405180910390fd5b6003600760006101000a81548160ff0219169083600381111561066557fe5b02179055506001600760016101000a81548160ff021916908315150217905550816000806101000a81548173ffffffffffffffffffffffffffffffffffffffff021916908373ffffffffffffffffffffffffffffffffffffffff1602179055505050565b60045481565b60025481565b60085481565b600760009054906101000a900460ff1681565b60008060038111156106fc57fe5b600760009054906101000a900460ff16600381111561071757fe5b14151561078c576040517f08c379a000000000000000000000000000000000000000000000000000000000815260040180806020018281038252600f8152602001807f6e6f742076616c6964207374617465000000000000000000000000000000000081525060200191505060405180910390fd5b60045482141515610805576040517f08c379a000000000000000000000000000000000000000000000000000000000815260040180806020018281038252601c8152602001807f616d6f756e74206973206e6f7420657175616c20746f2070726963650000000081525060200191505060405180910390fd5b82600160006101000a81548173ffffffffffffffffffffffffffffffffffffffff021916908373ffffffffffffffffffffffffffffffffffffffff1602179055506001600760006101000a81548160ff0219169083600381111561086557fe5b0217905550505050565b82600381905550816004819055508360058160001916905550806006908051906020019061089e929190610950565b504260088190555050505050565b60068054600181600116156101000203166002900480601f0160208091040260200160405190810160405280929190818152602001828054600181600116156101000203166002900480156109425780601f1061091757610100808354040283529160200191610942565b820191906000526020600020905b81548152906001019060200180831161092557829003601f168201915b505050505081565b60035481565b828054600181600116156101000203166002900490600052602060002090601f016020900481019282601f1061099157805160ff19168380011785556109bf565b828001600101855582156109bf579182015b828111156109be5782518255916020019190600101906109a3565b5b5090506109cc91906109d0565b5090565b6109f291905b808211156109ee5760008160009055506001016109d6565b5090565b905600a165627a7a72305820366bf3507e4bfa92e019e272d54b6318d9c9bf29f9c33d8ffa4b124fcd5d30e30029",
  "source": "pragma solidity ^0.4.24;\r\n\r\nimport \"./Arbitrator.sol\";\r\nimport \"./Car.sol\";\r\n\r\ncontract CarShop is Arbitrator{\r\n\r\n    //convert from ether to wei\r\n    uint private WEI = 10 ** uint256(18);\r\n\r\n    //---------------------events--------------------------//\r\n    event Delete(uint vin, bool success);\r\n    event Edit(uint vin, bool success);\r\n    event Add (address owner,uint vin, bytes32 model, bool success);\r\n\r\n    event ConfirmSelling(uint vin, uint price,  bool success);\r\n\r\n    //---------------------members--------------------------//\r\n    //uint - VIN\r\n    mapping (address => mapping (uint => bool)) public carAccessibility;\r\n\r\n    //vin => index\r\n    mapping(uint => uint) public carIndex;\r\n\r\n    //vin => amount\r\n    mapping(address => mapping (uint => uint)) buyer;\r\n\r\n    // all  history chain of the car\r\n    mapping (uint => Car []) public carLogger;\r\n    //car list\r\n    Car [] public carsArr;\r\n\r\n    // reward which is allowed to be withdrawn by shop.\r\n    uint public rewardAllowed;\r\n\r\n    //---------------------functions--------------------------//\r\n\r\n    function getOwner() external view returns (address owner){\r\n        return arbitrator;\r\n    }\r\n\r\n    function getContractBalance() external view returns (uint balance){\r\n        return address(this).balance;\r\n    }\r\n\r\n    function getNumberOfCars() external view returns(uint index){\r\n        return carsArr.length;\r\n    }\r\n\r\n    function createCar(address owner, uint vin, bytes32 model, uint year, uint price, string image) private{\r\n\r\n        Car car = new Car( owner,vin, model, year, price, false, image );\r\n        carsArr.push(car);\r\n\r\n        //create a copy in order to track a full car history.Expensive\r\n        //carLogger[vin].push(new Car( owner,vin, model, year, price, false, image ));\r\n\r\n        carIndex [vin] = carsArr.length;\r\n        carAccessibility[owner][vin] = true;\r\n    }\r\n\r\n    constructor( )   public {\r\n        createCar(msg.sender, 0, \"Honda\", 2008, 1 * WEI,\"Qmf3AUrvvcKDroLsqwSxxCKni1TAdqNNMj7fHUuxsn1uWy\");\r\n        //createCar(msg.sender, 1, \"BMW\",   2010, 2 * WEI,\"\");\r\n        //createCar(msg.sender, 2, \"Merc\",  2012, 3 * WEI);\r\n    }\r\n\r\n    function deleteCar(uint vin) public isOwnerVinAvailability(msg.sender, vin) {\r\n\r\n        uint index = getCarIndex(vin);\r\n\r\n        for(uint i = index; i < carsArr.length - 1; ++i){\r\n            carsArr[i] = carsArr[i+1];\r\n            //update car index respectively\r\n            carIndex[carsArr[i].vin()]--;\r\n        }\r\n\r\n        delete carsArr[carsArr.length-1];\r\n        carsArr.length--;\r\n\r\n        delete carIndex[vin];\r\n\r\n        emit Delete(vin, true);\r\n    }\r\n\r\n    function editCar(uint vin, bytes32 model, uint year, uint price, string  image) external isOwnerVinAvailability(msg.sender, vin)  {\r\n\r\n        Car car = carsArr[ getCarIndex(vin)];\r\n\r\n        car.edit( model, year, price * WEI, image);\r\n\r\n        //create a copy in order to track a full car history.Expensive\r\n       // carLogger[vin].push(new Car( msg.sender,vin, model, year, price * WEI, false, image ));\r\n\r\n        emit Edit(vin, true);\r\n    }\r\n\r\n    function addCar(uint vin, bytes32 model, uint year, uint price, string image) external {\r\n\r\n        createCar(msg.sender, vin, model, year, price * WEI, image);\r\n\r\n        emit Add (msg.sender,vin, model,  true);\r\n    }\r\n\r\n    function buy(uint vin) external payable {\r\n\r\n        Car car = carsArr[ getCarIndex(vin)];\r\n\r\n        require(!car.sold(),\"car is already sold\");\r\n\r\n        car.buy(msg.sender, msg.value);\r\n\r\n        buyer[msg.sender][vin] = msg.value;\r\n    }\r\n\r\n    function sendDelivery(uint vin)  external isOwnerVinAvailability(msg.sender, vin){\r\n\r\n        Car car = carsArr[ getCarIndex(vin)];\r\n\r\n        car.sendDelivery();\r\n    }\r\n\r\n    function confirmDelivery(uint vin) external isBuyerAvailability(msg.sender, vin){\r\n        Car car = carsArr[ getCarIndex(vin)];\r\n\r\n        delete buyer[msg.sender][vin];\r\n\r\n        //company takes 10 percent for service :)\r\n        uint companyReward = car.price() * 10 / 100;\r\n        //send money to seller\r\n        car.owner().transfer(car.price() - companyReward);\r\n\r\n        //change owner\r\n        car.confirmDelivery(msg.sender);\r\n\r\n        rewardAllowed += companyReward;\r\n\r\n        //create a copy in order to track a full car history.Expensive\r\n        carLogger[vin].push(new Car( msg.sender,vin, car.model(), car.year(), car.price(), true, car.image_hash() ));\r\n\r\n        emit ConfirmSelling(vin, car.price(), true);\r\n    }\r\n\r\n    function withdrawAllReward() public onlyOwner{\r\n        require(rewardAllowed > 0, \"reward is empty\");\r\n\r\n        msg.sender.transfer(rewardAllowed);\r\n        rewardAllowed = 0;\r\n    }\r\n\r\n    function getCarByVin( uint _vin) external view isVINAvailability(_vin)\r\n    returns (  address  owner, address buyerAdd, uint vin, uint year, uint price, bytes32 model,bool sold,\r\n        string image, Car.State state, uint timestamp ){\r\n\r\n        Car car = carsArr[ getCarIndex(_vin)];\r\n\r\n        return (car.owner(),car.buyer(), car.vin(),car.year(),car.price(),\r\n        car.model(), car.sold(), car.image_hash(),\r\n        car.state(), car.timestamp());\r\n    }\r\n\r\n    function getCarByIndex(uint index) external view\r\n    returns ( address  owner, address buyerAdd, uint vin, uint year, uint price, bytes32 model,bool sold,\r\n        string image, Car.State state, uint timestamp ){\r\n        require(index < carsArr.length, \"index is out of range\");\r\n\r\n        Car car = carsArr[index];\r\n\r\n        return (car.owner(), car.buyer(), car.vin(),car.year(),car.price(),\r\n        car.model(), car.sold(), car.image_hash(),\r\n        car.state(), car.timestamp());\r\n    }\r\n\r\n    function getHistoryLogCarLength(uint _vin) external view isVINAvailability(_vin) returns( uint length){\r\n        return carLogger[_vin].length;\r\n    }\r\n\r\n    function getHistoryLogCar(uint _vin, uint _idx) external view isCarLoggerVINAvailability(_vin)\r\n    returns ( address  owner, uint vin, uint year, uint price, bytes32 model,bool sold,\r\n        string image, Car.State state, uint timestamp ){\r\n\r\n        //use storage to save gas\r\n        Car  [] storage carArray  = carLogger[_vin];\r\n\r\n        require(_idx < carArray.length,\"out of range\");\r\n\r\n        Car car = carArray[_idx];\r\n\r\n        return (car.owner(), car.vin(),car.year(),car.price(),\r\n        car.model(), car.sold(), car.image_hash(),\r\n        car.state(), car.timestamp());\r\n    }\r\n\r\n\r\n    function getCarIndex(uint vin) private view returns(uint){\r\n        require(0 < carIndex[vin] && carIndex[vin] - 1 < carsArr.length , \"not valid car's vin \");\r\n        return carIndex[vin] - 1; // on purpose to have a correct index\r\n    }\r\n\r\n\r\n    modifier isOwnerVinAvailability(address sender, uint vin) {\r\n        require(carAccessibility[sender][vin] || arbitrator == sender, \"no car found by address/vin\");\r\n        _;\r\n    }\r\n\r\n    modifier isBuyerAvailability(address sender, uint _vin) {\r\n        require(0 < buyer[sender][_vin] || arbitrator == sender, \"no bayer found by address/vin\");\r\n        _;\r\n    }\r\n\r\n    modifier isVINAvailability( uint vin) {\r\n        require(0 < carIndex[vin], \"no car found by vin\");\r\n        _;\r\n    }\r\n\r\n    modifier isCarLoggerVINAvailability( uint vin) {\r\n        require(0 < carLogger[vin].length, \"no car logger found by vin\");\r\n        _;\r\n    }\r\n}",
  "sourcePath": "D:\\MyProgrames\\blockchain\\ethereum\\car_shop\\contracts\\CarShop.sol",
  "compiler": {
    "name": "solc",
    "version": "0.4.25+commit.59dbf8f1.Emscripten.clang"
  },
  "schemaVersion": "2.0.2",
  "updatedAt": "2019-07-24T15:46:49.566Z"
}