{
  "contractName": "CarShop",
  "abi": [
    {
      "constant": true,
      "inputs": [
        {
          "name": "",
          "type": "address"
        },
        {
          "name": "",
          "type": "uint256"
        }
      ],
      "name": "carAccessibility",
      "outputs": [
        {
          "name": "",
          "type": "bool"
        }
      ],
      "payable": false,
      "stateMutability": "view",
      "type": "function"
    },
    {
      "constant": true,
      "inputs": [
        {
          "name": "",
          "type": "uint256"
        }
      ],
      "name": "carIndex",
      "outputs": [
        {
          "name": "",
          "type": "uint256"
        }
      ],
      "payable": false,
      "stateMutability": "view",
      "type": "function"
    },
    {
      "constant": true,
      "inputs": [],
      "name": "arbitrator",
      "outputs": [
        {
          "name": "",
          "type": "address"
        }
      ],
      "payable": false,
      "stateMutability": "view",
      "type": "function"
    },
    {
      "constant": true,
      "inputs": [],
      "name": "rewardAllowed",
      "outputs": [
        {
          "name": "",
          "type": "uint256"
        }
      ],
      "payable": false,
      "stateMutability": "view",
      "type": "function"
    },
    {
      "constant": true,
      "inputs": [
        {
          "name": "",
          "type": "uint256"
        }
      ],
      "name": "carsArr",
      "outputs": [
        {
          "name": "",
          "type": "address"
        }
      ],
      "payable": false,
      "stateMutability": "view",
      "type": "function"
    },
    {
      "inputs": [],
      "payable": false,
      "stateMutability": "nonpayable",
      "type": "constructor"
    },
    {
      "anonymous": false,
      "inputs": [
        {
          "indexed": false,
          "name": "vin",
          "type": "uint256"
        },
        {
          "indexed": false,
          "name": "success",
          "type": "bool"
        }
      ],
      "name": "Delete",
      "type": "event"
    },
    {
      "anonymous": false,
      "inputs": [
        {
          "indexed": false,
          "name": "vin",
          "type": "uint256"
        },
        {
          "indexed": false,
          "name": "success",
          "type": "bool"
        }
      ],
      "name": "Edit",
      "type": "event"
    },
    {
      "anonymous": false,
      "inputs": [
        {
          "indexed": false,
          "name": "owner",
          "type": "address"
        },
        {
          "indexed": false,
          "name": "vin",
          "type": "uint256"
        },
        {
          "indexed": false,
          "name": "model",
          "type": "string"
        },
        {
          "indexed": false,
          "name": "success",
          "type": "bool"
        }
      ],
      "name": "Add",
      "type": "event"
    },
    {
      "anonymous": false,
      "inputs": [
        {
          "indexed": false,
          "name": "vin",
          "type": "uint256"
        },
        {
          "indexed": false,
          "name": "success",
          "type": "bool"
        }
      ],
      "name": "ConfirmSelling",
      "type": "event"
    },
    {
      "constant": true,
      "inputs": [],
      "name": "getContractBalance",
      "outputs": [
        {
          "name": "balance",
          "type": "uint256"
        }
      ],
      "payable": false,
      "stateMutability": "view",
      "type": "function"
    },
    {
      "constant": true,
      "inputs": [],
      "name": "getNumberOfCars",
      "outputs": [
        {
          "name": "index",
          "type": "uint256"
        }
      ],
      "payable": false,
      "stateMutability": "view",
      "type": "function"
    },
    {
      "constant": false,
      "inputs": [
        {
          "name": "vin",
          "type": "uint256"
        }
      ],
      "name": "deleteCar",
      "outputs": [],
      "payable": false,
      "stateMutability": "nonpayable",
      "type": "function"
    },
    {
      "constant": false,
      "inputs": [
        {
          "name": "vin",
          "type": "uint256"
        },
        {
          "name": "model",
          "type": "string"
        },
        {
          "name": "year",
          "type": "uint256"
        },
        {
          "name": "price",
          "type": "uint256"
        }
      ],
      "name": "editCar",
      "outputs": [],
      "payable": false,
      "stateMutability": "nonpayable",
      "type": "function"
    },
    {
      "constant": false,
      "inputs": [
        {
          "name": "vin",
          "type": "uint256"
        },
        {
          "name": "model",
          "type": "string"
        },
        {
          "name": "year",
          "type": "uint256"
        },
        {
          "name": "price",
          "type": "uint256"
        }
      ],
      "name": "addCar",
      "outputs": [],
      "payable": false,
      "stateMutability": "nonpayable",
      "type": "function"
    },
    {
      "constant": false,
      "inputs": [
        {
          "name": "vin",
          "type": "uint256"
        }
      ],
      "name": "buy",
      "outputs": [],
      "payable": true,
      "stateMutability": "payable",
      "type": "function"
    },
    {
      "constant": false,
      "inputs": [
        {
          "name": "vin",
          "type": "uint256"
        }
      ],
      "name": "sendDelivery",
      "outputs": [],
      "payable": false,
      "stateMutability": "nonpayable",
      "type": "function"
    },
    {
      "constant": false,
      "inputs": [
        {
          "name": "vin",
          "type": "uint256"
        }
      ],
      "name": "confirmDelivery",
      "outputs": [],
      "payable": false,
      "stateMutability": "nonpayable",
      "type": "function"
    },
    {
      "constant": false,
      "inputs": [],
      "name": "withdrawAllReward",
      "outputs": [],
      "payable": false,
      "stateMutability": "nonpayable",
      "type": "function"
    },
    {
      "constant": true,
      "inputs": [
        {
          "name": "_vin",
          "type": "uint256"
        }
      ],
      "name": "getCarByVin",
      "outputs": [
        {
          "name": "owner",
          "type": "address"
        },
        {
          "name": "vin",
          "type": "uint256"
        },
        {
          "name": "year",
          "type": "uint256"
        },
        {
          "name": "price",
          "type": "uint256"
        },
        {
          "name": "model",
          "type": "string"
        },
        {
          "name": "sold",
          "type": "bool"
        },
        {
          "name": "state",
          "type": "uint8"
        }
      ],
      "payable": false,
      "stateMutability": "view",
      "type": "function"
    },
    {
      "constant": true,
      "inputs": [
        {
          "name": "index",
          "type": "uint256"
        }
      ],
      "name": "getCarByIndex",
      "outputs": [
        {
          "name": "owner",
          "type": "address"
        },
        {
          "name": "vin",
          "type": "uint256"
        },
        {
          "name": "year",
          "type": "uint256"
        },
        {
          "name": "price",
          "type": "uint256"
        },
        {
          "name": "model",
          "type": "string"
        },
        {
          "name": "sold",
          "type": "bool"
        }
      ],
      "payable": false,
      "stateMutability": "view",
      "type": "function"
    }
  ],
  "bytecode": "0x60806040523480156200001157600080fd5b50336000806101000a81548173ffffffffffffffffffffffffffffffffffffffff021916908373ffffffffffffffffffffffffffffffffffffffff160217905550620000af3360006040805190810160405280600581526020017f486f6e64610000000000000000000000000000000000000000000000000000008152506107d86012600a0a6001026200016f640100000000026401000000009004565b6200010c3360016040805190810160405280600381526020017f424d5700000000000000000000000000000000000000000000000000000000008152506107da6012600a0a6002026200016f640100000000026401000000009004565b620001693360026040805190810160405280600481526020017f4d657263000000000000000000000000000000000000000000000000000000008152506107dc6012600a0a6003026200016f640100000000026401000000009004565b6200035e565b60008585858585620001806200034d565b808673ffffffffffffffffffffffffffffffffffffffff1673ffffffffffffffffffffffffffffffffffffffff16815260200185815260200180602001848152602001838152602001828103825285818151815260200191508051906020019080838360005b8381101562000203578082015181840152602081019050620001e6565b50505050905090810190601f168015620002315780820380516001836020036101000a031916815260200191505b509650505050505050604051809103906000f08015801562000257573d6000803e3d6000fd5b50905060048190806001815401808255809150509060018203906000526020600020016000909192909190916101000a81548173ffffffffffffffffffffffffffffffffffffffff021916908373ffffffffffffffffffffffffffffffffffffffff16021790555050600480549050600260008781526020019081526020016000208190555060018060008873ffffffffffffffffffffffffffffffffffffffff1673ffffffffffffffffffffffffffffffffffffffff168152602001908152602001600020600087815260200190815260200160002060006101000a81548160ff021916908315150217905550505050505050565b6040516109f0806200349383390190565b613125806200036e6000396000f300608060405260043610620000f7576000357c0100000000000000000000000000000000000000000000000000000000900463ffffffff168063193e364f14620000fc5780631b2680f31462000164578063216b39d014620001c05780635e3c5762146200020457806360098088146200023457806368ce1a0f14620002645780636b37fbaa14620002c05780636cc6cde114620002da5780636f9fb98a14620003345780638199feb014620003625780638c0ecc33146200047757806397d4116414620004a5578063b85ce4e914620005a4578063c6dea50b14620005d2578063d96a094a1462000642578063fd84cb971462000664575b600080fd5b3480156200010957600080fd5b506200014a600480360381019080803573ffffffffffffffffffffffffffffffffffffffff1690602001909291908035906020019092919050505062000694565b604051808215151515815260200191505060405180910390f35b3480156200017157600080fd5b50620001be600480360381019080803590602001909291908035906020019082018035906020019190919293919293908035906020019092919080359060200190929190505050620006c3565b005b348015620001cd57600080fd5b50620001ee600480360381019080803590602001909291905050506200093a565b6040518082815260200191505060405180910390f35b3480156200021157600080fd5b50620002326004803603810190808035906020019092919050505062000952565b005b3480156200024157600080fd5b50620002626004803603810190808035906020019092919050505062000b4c565b005b3480156200027157600080fd5b50620002be60048036038101908080359060200190929190803590602001908201803590602001919091929391929390803590602001909291908035906020019092919050505062000efe565b005b348015620002cd57600080fd5b50620002d862000fe0565b005b348015620002e757600080fd5b50620002f262001174565b604051808273ffffffffffffffffffffffffffffffffffffffff1673ffffffffffffffffffffffffffffffffffffffff16815260200191505060405180910390f35b3480156200034157600080fd5b506200034c62001199565b6040518082815260200191505060405180910390f35b3480156200036f57600080fd5b506200039060048036038101908080359060200190929190505050620011b8565b604051808873ffffffffffffffffffffffffffffffffffffffff1673ffffffffffffffffffffffffffffffffffffffff1681526020018781526020018681526020018581526020018060200184151515158152602001836003811115620003f357fe5b60ff168152602001828103825285818151815260200191508051906020019080838360005b838110156200043557808201518184015260208101905062000418565b50505050905090810190601f168015620004635780820380516001836020036101000a031916815260200191505b509850505050505050505060405180910390f35b3480156200048457600080fd5b506200048f6200177e565b6040518082815260200191505060405180910390f35b348015620004b257600080fd5b50620004d36004803603810190808035906020019092919050505062001784565b604051808773ffffffffffffffffffffffffffffffffffffffff1673ffffffffffffffffffffffffffffffffffffffff1681526020018681526020018581526020018481526020018060200183151515158152602001828103825284818151815260200191508051906020019080838360005b838110156200056357808201518184015260208101905062000546565b50505050905090810190601f168015620005915780820380516001836020036101000a031916815260200191505b5097505050505050505060405180910390f35b348015620005b157600080fd5b50620005bc62001c87565b6040518082815260200191505060405180910390f35b348015620005df57600080fd5b50620006006004803603810190808035906020019092919050505062001c94565b604051808273ffffffffffffffffffffffffffffffffffffffff1673ffffffffffffffffffffffffffffffffffffffff16815260200191505060405180910390f35b620006626004803603810190808035906020019092919050505062001cd3565b005b3480156200067157600080fd5b50620006926004803603810190808035906020019092919050505062001f16565b005b60016020528160005260406000206020528060005260406000206000915091509054906101000a900460ff1681565b60003386600160008373ffffffffffffffffffffffffffffffffffffffff1673ffffffffffffffffffffffffffffffffffffffff168152602001908152602001600020600082815260200190815260200160002060009054906101000a900460ff16806200077d57508173ffffffffffffffffffffffffffffffffffffffff166000809054906101000a900473ffffffffffffffffffffffffffffffffffffffff1673ffffffffffffffffffffffffffffffffffffffff16145b1515620007f2576040517f08c379a000000000000000000000000000000000000000000000000000000000815260040180806020018281038252601b8152602001807f6e6f2063617220666f756e6420627920616464726573732f76696e000000000081525060200191505060405180910390fd5b6004620007ff89620023f0565b8154811015156200080c57fe5b9060005260206000200160009054906101000a900473ffffffffffffffffffffffffffffffffffffffff1692508273ffffffffffffffffffffffffffffffffffffffff1663ae9a6137888888886040518563ffffffff167c010000000000000000000000000000000000000000000000000000000002815260040180806020018481526020018381526020018281038252868682818152602001925080828437820191505095505050505050600060405180830381600087803b158015620008d357600080fd5b505af1158015620008e8573d6000803e3d6000fd5b505050507f9896bfaa4b5c77185f664c6d5d6fd8cae37c6b31b0b9b45a9faccd50b0c8c35c88600160405180838152602001821515151581526020019250505060405180910390a15050505050505050565b60026020528060005260406000206000915090505481565b60003382600160008373ffffffffffffffffffffffffffffffffffffffff1673ffffffffffffffffffffffffffffffffffffffff168152602001908152602001600020600082815260200190815260200160002060009054906101000a900460ff168062000a0c57508173ffffffffffffffffffffffffffffffffffffffff166000809054906101000a900473ffffffffffffffffffffffffffffffffffffffff1673ffffffffffffffffffffffffffffffffffffffff16145b151562000a81576040517f08c379a000000000000000000000000000000000000000000000000000000000815260040180806020018281038252601b8152602001807f6e6f2063617220666f756e6420627920616464726573732f76696e000000000081525060200191505060405180910390fd5b600462000a8e85620023f0565b81548110151562000a9b57fe5b9060005260206000200160009054906101000a900473ffffffffffffffffffffffffffffffffffffffff1692508273ffffffffffffffffffffffffffffffffffffffff166317ec5c2d6040518163ffffffff167c0100000000000000000000000000000000000000000000000000000000028152600401600060405180830381600087803b15801562000b2d57600080fd5b505af115801562000b42573d6000803e3d6000fd5b5050505050505050565b6000803383600160008373ffffffffffffffffffffffffffffffffffffffff1673ffffffffffffffffffffffffffffffffffffffff168152602001908152602001600020600082815260200190815260200160002060009054906101000a900460ff168062000c0757508173ffffffffffffffffffffffffffffffffffffffff166000809054906101000a900473ffffffffffffffffffffffffffffffffffffffff1673ffffffffffffffffffffffffffffffffffffffff16145b151562000c7c576040517f08c379a000000000000000000000000000000000000000000000000000000000815260040180806020018281038252601b8152602001807f6e6f2063617220666f756e6420627920616464726573732f76696e000000000081525060200191505060405180910390fd5b62000c8785620023f0565b93508392505b60016004805490500383101562000e3f5760046001840181548110151562000cb157fe5b9060005260206000200160009054906101000a900473ffffffffffffffffffffffffffffffffffffffff1660048481548110151562000cec57fe5b9060005260206000200160006101000a81548173ffffffffffffffffffffffffffffffffffffffff021916908373ffffffffffffffffffffffffffffffffffffffff1602179055506002600060048581548110151562000d4857fe5b9060005260206000200160009054906101000a900473ffffffffffffffffffffffffffffffffffffffff1673ffffffffffffffffffffffffffffffffffffffff1663aca2d4646040518163ffffffff167c0100000000000000000000000000000000000000000000000000000000028152600401602060405180830381600087803b15801562000dd757600080fd5b505af115801562000dec573d6000803e3d6000fd5b505050506040513d602081101562000e0357600080fd5b81019080805190602001909291905050508152602001908152602001600020600081548092919060019003919050555082600101925062000c8d565b600460016004805490500381548110151562000e5757fe5b9060005260206000200160006101000a81549073ffffffffffffffffffffffffffffffffffffffff0219169055600480548091906001900362000e9b9190620026a1565b5060026000868152602001908152602001600020600090557f9d4d9382d16aed709af37f4e1adb50b5a9e0dc3f077e7026f7eff77f0d74d37985600160405180838152602001821515151581526020019250505060405180910390a15050505050565b62000f3f338686868080601f0160208091040260200160405190810160405280939291908181526020018383808284378201915050505050508585620024c3565b7f510a1a3aad32aaf580a0ad8c8ff8a5b1f5125e9971e11d946226d04f2ee794ae338686866001604051808673ffffffffffffffffffffffffffffffffffffffff1673ffffffffffffffffffffffffffffffffffffffff168152602001858152602001806020018315151515815260200182810382528585828181526020019250808284378201915050965050505050505060405180910390a15050505050565b3373ffffffffffffffffffffffffffffffffffffffff166000809054906101000a900473ffffffffffffffffffffffffffffffffffffffff1673ffffffffffffffffffffffffffffffffffffffff16141515620010a5576040517f08c379a000000000000000000000000000000000000000000000000000000000815260040180806020018281038252601a8152602001807f61726269747261746f7220697320616c6c6f776564206f6e6c7900000000000081525060200191505060405180910390fd5b600060055411151562001120576040517f08c379a000000000000000000000000000000000000000000000000000000000815260040180806020018281038252600f8152602001807f72657761726420697320656d707479000000000000000000000000000000000081525060200191505060405180910390fd5b3373ffffffffffffffffffffffffffffffffffffffff166108fc6005549081150290604051600060405180830381858888f1935050505015801562001169573d6000803e3d6000fd5b506000600581905550565b6000809054906101000a900473ffffffffffffffffffffffffffffffffffffffff1681565b60003073ffffffffffffffffffffffffffffffffffffffff1631905090565b60008060008060606000806000886002600082815260200190815260200160002054600010151562001252576040517f08c379a00000000000000000000000000000000000000000000000000000000081526004018080602001828103825260138152602001807f6e6f2063617220666f756e642062792076696e0000000000000000000000000081525060200191505060405180910390fd5b60046200125f8b620023f0565b8154811015156200126c57fe5b9060005260206000200160009054906101000a900473ffffffffffffffffffffffffffffffffffffffff1691508173ffffffffffffffffffffffffffffffffffffffff16638da5cb5b6040518163ffffffff167c0100000000000000000000000000000000000000000000000000000000028152600401602060405180830381600087803b158015620012fe57600080fd5b505af115801562001313573d6000803e3d6000fd5b505050506040513d60208110156200132a57600080fd5b81019080805190602001909291905050508273ffffffffffffffffffffffffffffffffffffffff1663aca2d4646040518163ffffffff167c0100000000000000000000000000000000000000000000000000000000028152600401602060405180830381600087803b158015620013a057600080fd5b505af1158015620013b5573d6000803e3d6000fd5b505050506040513d6020811015620013cc57600080fd5b81019080805190602001909291905050508373ffffffffffffffffffffffffffffffffffffffff1663f32697166040518163ffffffff167c0100000000000000000000000000000000000000000000000000000000028152600401602060405180830381600087803b1580156200144257600080fd5b505af115801562001457573d6000803e3d6000fd5b505050506040513d60208110156200146e57600080fd5b81019080805190602001909291905050508473ffffffffffffffffffffffffffffffffffffffff1663a035b1fe6040518163ffffffff167c0100000000000000000000000000000000000000000000000000000000028152600401602060405180830381600087803b158015620014e457600080fd5b505af1158015620014f9573d6000803e3d6000fd5b505050506040513d60208110156200151057600080fd5b81019080805190602001909291905050508573ffffffffffffffffffffffffffffffffffffffff16630ad9d0526040518163ffffffff167c0100000000000000000000000000000000000000000000000000000000028152600401600060405180830381600087803b1580156200158657600080fd5b505af11580156200159b573d6000803e3d6000fd5b505050506040513d6000823e3d601f19601f820116820180604052506020811015620015c657600080fd5b810190808051640100000000811115620015df57600080fd5b82810190506020810184811115620015f657600080fd5b81518560018202830111640100000000821117156200161457600080fd5b50509291905050508673ffffffffffffffffffffffffffffffffffffffff166302c7e7af6040518163ffffffff167c0100000000000000000000000000000000000000000000000000000000028152600401602060405180830381600087803b1580156200168157600080fd5b505af115801562001696573d6000803e3d6000fd5b505050506040513d6020811015620016ad57600080fd5b81019080805190602001909291905050508773ffffffffffffffffffffffffffffffffffffffff1663c19d93fb6040518163ffffffff167c0100000000000000000000000000000000000000000000000000000000028152600401602060405180830381600087803b1580156200172357600080fd5b505af115801562001738573d6000803e3d6000fd5b505050506040513d60208110156200174f57600080fd5b810190808051906020019092919050505082925098509850985098509850985098505050919395979092949650565b60055481565b6000806000806060600080600480549050881015156200180c576040517f08c379a00000000000000000000000000000000000000000000000000000000081526004018080602001828103825260158152602001807f696e646578206973206f7574206f662072616e6765000000000000000000000081525060200191505060405180910390fd5b6004888154811015156200181c57fe5b9060005260206000200160009054906101000a900473ffffffffffffffffffffffffffffffffffffffff1690508073ffffffffffffffffffffffffffffffffffffffff16638da5cb5b6040518163ffffffff167c0100000000000000000000000000000000000000000000000000000000028152600401602060405180830381600087803b158015620018ae57600080fd5b505af1158015620018c3573d6000803e3d6000fd5b505050506040513d6020811015620018da57600080fd5b81019080805190602001909291905050508173ffffffffffffffffffffffffffffffffffffffff1663aca2d4646040518163ffffffff167c0100000000000000000000000000000000000000000000000000000000028152600401602060405180830381600087803b1580156200195057600080fd5b505af115801562001965573d6000803e3d6000fd5b505050506040513d60208110156200197c57600080fd5b81019080805190602001909291905050508273ffffffffffffffffffffffffffffffffffffffff1663f32697166040518163ffffffff167c0100000000000000000000000000000000000000000000000000000000028152600401602060405180830381600087803b158015620019f257600080fd5b505af115801562001a07573d6000803e3d6000fd5b505050506040513d602081101562001a1e57600080fd5b81019080805190602001909291905050508373ffffffffffffffffffffffffffffffffffffffff1663a035b1fe6040518163ffffffff167c0100000000000000000000000000000000000000000000000000000000028152600401602060405180830381600087803b15801562001a9457600080fd5b505af115801562001aa9573d6000803e3d6000fd5b505050506040513d602081101562001ac057600080fd5b81019080805190602001909291905050508473ffffffffffffffffffffffffffffffffffffffff16630ad9d0526040518163ffffffff167c0100000000000000000000000000000000000000000000000000000000028152600401600060405180830381600087803b15801562001b3657600080fd5b505af115801562001b4b573d6000803e3d6000fd5b505050506040513d6000823e3d601f19601f82011682018060405250602081101562001b7657600080fd5b81019080805164010000000081111562001b8f57600080fd5b8281019050602081018481111562001ba657600080fd5b815185600182028301116401000000008211171562001bc457600080fd5b50509291905050508573ffffffffffffffffffffffffffffffffffffffff166302c7e7af6040518163ffffffff167c0100000000000000000000000000000000000000000000000000000000028152600401602060405180830381600087803b15801562001c3157600080fd5b505af115801562001c46573d6000803e3d6000fd5b505050506040513d602081101562001c5d57600080fd5b81019080805190602001909291905050508191509650965096509650965096505091939550919395565b6000600480549050905090565b60048181548110151562001ca457fe5b906000526020600020016000915054906101000a900473ffffffffffffffffffffffffffffffffffffffff1681565b6000600462001ce283620023f0565b81548110151562001cef57fe5b9060005260206000200160009054906101000a900473ffffffffffffffffffffffffffffffffffffffff1690508073ffffffffffffffffffffffffffffffffffffffff166302c7e7af6040518163ffffffff167c0100000000000000000000000000000000000000000000000000000000028152600401602060405180830381600087803b15801562001d8157600080fd5b505af115801562001d96573d6000803e3d6000fd5b505050506040513d602081101562001dad57600080fd5b810190808051906020019092919050505015151562001e34576040517f08c379a00000000000000000000000000000000000000000000000000000000081526004018080602001828103825260138152602001807f63617220697320616c726561647920736f6c640000000000000000000000000081525060200191505060405180910390fd5b8073ffffffffffffffffffffffffffffffffffffffff1663c99bf814346040518263ffffffff167c010000000000000000000000000000000000000000000000000000000002815260040180828152602001915050600060405180830381600087803b15801562001ea457600080fd5b505af115801562001eb9573d6000803e3d6000fd5b5050505034600360003373ffffffffffffffffffffffffffffffffffffffff1673ffffffffffffffffffffffffffffffffffffffff1681526020019081526020016000206000848152602001908152602001600020819055505050565b6000803383600360008373ffffffffffffffffffffffffffffffffffffffff1673ffffffffffffffffffffffffffffffffffffffff1681526020019081526020016000206000828152602001908152602001600020546000108062001fc757508173ffffffffffffffffffffffffffffffffffffffff166000809054906101000a900473ffffffffffffffffffffffffffffffffffffffff1673ffffffffffffffffffffffffffffffffffffffff16145b15156200203c576040517f08c379a000000000000000000000000000000000000000000000000000000000815260040180806020018281038252601d8152602001807f6e6f20626179657220666f756e6420627920616464726573732f76696e00000081525060200191505060405180910390fd5b60046200204986620023f0565b8154811015156200205657fe5b9060005260206000200160009054906101000a900473ffffffffffffffffffffffffffffffffffffffff1693508373ffffffffffffffffffffffffffffffffffffffff16635e10177b6040518163ffffffff167c0100000000000000000000000000000000000000000000000000000000028152600401600060405180830381600087803b158015620020e857600080fd5b505af1158015620020fd573d6000803e3d6000fd5b50505050600360003373ffffffffffffffffffffffffffffffffffffffff1673ffffffffffffffffffffffffffffffffffffffff1681526020019081526020016000206000868152602001908152602001600020600090556064600a8573ffffffffffffffffffffffffffffffffffffffff1663a035b1fe6040518163ffffffff167c0100000000000000000000000000000000000000000000000000000000028152600401602060405180830381600087803b158015620021be57600080fd5b505af1158015620021d3573d6000803e3d6000fd5b505050506040513d6020811015620021ea57600080fd5b8101908080519060200190929190505050028115156200220657fe5b0492508373ffffffffffffffffffffffffffffffffffffffff16638da5cb5b6040518163ffffffff167c0100000000000000000000000000000000000000000000000000000000028152600401602060405180830381600087803b1580156200226e57600080fd5b505af115801562002283573d6000803e3d6000fd5b505050506040513d60208110156200229a57600080fd5b810190808051906020019092919050505073ffffffffffffffffffffffffffffffffffffffff166108fc848673ffffffffffffffffffffffffffffffffffffffff1663a035b1fe6040518163ffffffff167c0100000000000000000000000000000000000000000000000000000000028152600401602060405180830381600087803b1580156200232a57600080fd5b505af11580156200233f573d6000803e3d6000fd5b505050506040513d60208110156200235657600080fd5b8101908080519060200190929190505050039081150290604051600060405180830381858888f1935050505015801562002394573d6000803e3d6000fd5b50826005600082825401925050819055507fbe60e1cf5c702a77ecd8897d2b7f87cbb403689f9f1b4427fc1d939bf257db6f85600160405180838152602001821515151581526020019250505060405180910390a15050505050565b6000600260008381526020019081526020016000205460001080156200243057506004805490506001600260008581526020019081526020016000205403105b1515620024a5576040517f08c379a00000000000000000000000000000000000000000000000000000000081526004018080602001828103825260148152602001807f6e6f742076616c69642063617227732076696e2000000000000000000000000081525060200191505060405180910390fd5b60016002600084815260200190815260200160002054039050919050565b60008585858585620024d4620026d0565b808673ffffffffffffffffffffffffffffffffffffffff1673ffffffffffffffffffffffffffffffffffffffff16815260200185815260200180602001848152602001838152602001828103825285818151815260200191508051906020019080838360005b83811015620025575780820151818401526020810190506200253a565b50505050905090810190601f168015620025855780820380516001836020036101000a031916815260200191505b509650505050505050604051809103906000f080158015620025ab573d6000803e3d6000fd5b50905060048190806001815401808255809150509060018203906000526020600020016000909192909190916101000a81548173ffffffffffffffffffffffffffffffffffffffff021916908373ffffffffffffffffffffffffffffffffffffffff16021790555050600480549050600260008781526020019081526020016000208190555060018060008873ffffffffffffffffffffffffffffffffffffffff1673ffffffffffffffffffffffffffffffffffffffff168152602001908152602001600020600087815260200190815260200160002060006101000a81548160ff021916908315150217905550505050505050565b815481835581811115620026cb57818360005260206000209182019101620026ca9190620026e1565b5b505050565b6040516109f0806200270a83390190565b6200270691905b8082111562002702576000816000905550600101620026e8565b5090565b905600608060405234801561001057600080fd5b506040516109f03803806109f08339810180604052810190808051906020019092919080519060200190929190805182019291906020018051906020019092919080519060200190929190505050846000806101000a81548173ffffffffffffffffffffffffffffffffffffffff021916908373ffffffffffffffffffffffffffffffffffffffff16021790555083600181905550816002819055508060038190555082600490805190602001906100c9929190610113565b506000600560016101000a81548160ff0219169083151502179055506000600560006101000a81548160ff0219169083600381111561010457fe5b021790555050505050506101b8565b828054600181600116156101000203166002900490600052602060002090601f016020900481019282601f1061015457805160ff1916838001178555610182565b82800160010185558215610182579182015b82811115610181578251825591602001919060010190610166565b5b50905061018f9190610193565b5090565b6101b591905b808211156101b1576000816000905550600101610199565b5090565b90565b610829806101c76000396000f3006080604052600436106100af576000357c0100000000000000000000000000000000000000000000000000000000900463ffffffff16806302c7e7af146100b45780630ad9d052146100e357806317ec5c2d146101735780635e10177b1461018a5780638da5cb5b146101a1578063a035b1fe146101f8578063aca2d46414610223578063ae9a61371461024e578063c19d93fb146102cb578063c99bf81414610304578063f326971614610324575b600080fd5b3480156100c057600080fd5b506100c961034f565b604051808215151515815260200191505060405180910390f35b3480156100ef57600080fd5b506100f8610362565b6040518080602001828103825283818151815260200191508051906020019080838360005b8381101561013857808201518184015260208101905061011d565b50505050905090810190601f1680156101655780820380516001836020036101000a031916815260200191505b509250505060405180910390f35b34801561017f57600080fd5b50610188610400565b005b34801561019657600080fd5b5061019f6104c5565b005b3480156101ad57600080fd5b506101b66105a5565b604051808273ffffffffffffffffffffffffffffffffffffffff1673ffffffffffffffffffffffffffffffffffffffff16815260200191505060405180910390f35b34801561020457600080fd5b5061020d6105ca565b6040518082815260200191505060405180910390f35b34801561022f57600080fd5b506102386105d0565b6040518082815260200191505060405180910390f35b34801561025a57600080fd5b506102c9600480360381019080803590602001908201803590602001908080601f016020809104026020016040519081016040528093929190818152602001838380828437820191505050505050919291929080359060200190929190803590602001909291905050506105d6565b005b3480156102d757600080fd5b506102e0610600565b604051808260038111156102f057fe5b60ff16815260200191505060405180910390f35b61032260048036038101908080359060200190929190505050610613565b005b34801561033057600080fd5b50610339610752565b6040518082815260200191505060405180910390f35b600560019054906101000a900460ff1681565b60048054600181600116156101000203166002900480601f0160208091040260200160405190810160405280929190818152602001828054600181600116156101000203166002900480156103f85780601f106103cd576101008083540402835291602001916103f8565b820191906000526020600020905b8154815290600101906020018083116103db57829003601f168201915b505050505081565b600180600381111561040e57fe5b600560009054906101000a900460ff16600381111561042957fe5b14151561049e576040517f08c379a000000000000000000000000000000000000000000000000000000000815260040180806020018281038252600f8152602001807f6e6f742076616c6964207374617465000000000000000000000000000000000081525060200191505060405180910390fd5b6002600560006101000a81548160ff021916908360038111156104bd57fe5b021790555050565b60028060038111156104d357fe5b600560009054906101000a900460ff1660038111156104ee57fe5b141515610563576040517f08c379a000000000000000000000000000000000000000000000000000000000815260040180806020018281038252600f8152602001807f6e6f742076616c6964207374617465000000000000000000000000000000000081525060200191505060405180910390fd5b6003600560006101000a81548160ff0219169083600381111561058257fe5b02179055506001600560016101000a81548160ff02191690831515021790555050565b6000809054906101000a900473ffffffffffffffffffffffffffffffffffffffff1681565b60035481565b60015481565b816002819055508060038190555082600490805190602001906105fa929190610758565b50505050565b600560009054906101000a900460ff1681565b600080600381111561062157fe5b600560009054906101000a900460ff16600381111561063c57fe5b1415156106b1576040517f08c379a000000000000000000000000000000000000000000000000000000000815260040180806020018281038252600f8152602001807f6e6f742076616c6964207374617465000000000000000000000000000000000081525060200191505060405180910390fd5b6003548214151561072a576040517f08c379a000000000000000000000000000000000000000000000000000000000815260040180806020018281038252601c8152602001807f616d6f756e74206973206e6f7420657175616c20746f2070726963650000000081525060200191505060405180910390fd5b6001600560006101000a81548160ff0219169083600381111561074957fe5b02179055505050565b60025481565b828054600181600116156101000203166002900490600052602060002090601f016020900481019282601f1061079957805160ff19168380011785556107c7565b828001600101855582156107c7579182015b828111156107c65782518255916020019190600101906107ab565b5b5090506107d491906107d8565b5090565b6107fa91905b808211156107f65760008160009055506001016107de565b5090565b905600a165627a7a7230582062d6b574c16cf6c089d90b31e29174029d73a4f38925d1dcb92c855f8231f5210029a165627a7a723058208eb3772c3cb603a018a33bb5fbccd79813b5e60d14dfb4dcb7991739a871d3200029608060405234801561001057600080fd5b506040516109f03803806109f08339810180604052810190808051906020019092919080519060200190929190805182019291906020018051906020019092919080519060200190929190505050846000806101000a81548173ffffffffffffffffffffffffffffffffffffffff021916908373ffffffffffffffffffffffffffffffffffffffff16021790555083600181905550816002819055508060038190555082600490805190602001906100c9929190610113565b506000600560016101000a81548160ff0219169083151502179055506000600560006101000a81548160ff0219169083600381111561010457fe5b021790555050505050506101b8565b828054600181600116156101000203166002900490600052602060002090601f016020900481019282601f1061015457805160ff1916838001178555610182565b82800160010185558215610182579182015b82811115610181578251825591602001919060010190610166565b5b50905061018f9190610193565b5090565b6101b591905b808211156101b1576000816000905550600101610199565b5090565b90565b610829806101c76000396000f3006080604052600436106100af576000357c0100000000000000000000000000000000000000000000000000000000900463ffffffff16806302c7e7af146100b45780630ad9d052146100e357806317ec5c2d146101735780635e10177b1461018a5780638da5cb5b146101a1578063a035b1fe146101f8578063aca2d46414610223578063ae9a61371461024e578063c19d93fb146102cb578063c99bf81414610304578063f326971614610324575b600080fd5b3480156100c057600080fd5b506100c961034f565b604051808215151515815260200191505060405180910390f35b3480156100ef57600080fd5b506100f8610362565b6040518080602001828103825283818151815260200191508051906020019080838360005b8381101561013857808201518184015260208101905061011d565b50505050905090810190601f1680156101655780820380516001836020036101000a031916815260200191505b509250505060405180910390f35b34801561017f57600080fd5b50610188610400565b005b34801561019657600080fd5b5061019f6104c5565b005b3480156101ad57600080fd5b506101b66105a5565b604051808273ffffffffffffffffffffffffffffffffffffffff1673ffffffffffffffffffffffffffffffffffffffff16815260200191505060405180910390f35b34801561020457600080fd5b5061020d6105ca565b6040518082815260200191505060405180910390f35b34801561022f57600080fd5b506102386105d0565b6040518082815260200191505060405180910390f35b34801561025a57600080fd5b506102c9600480360381019080803590602001908201803590602001908080601f016020809104026020016040519081016040528093929190818152602001838380828437820191505050505050919291929080359060200190929190803590602001909291905050506105d6565b005b3480156102d757600080fd5b506102e0610600565b604051808260038111156102f057fe5b60ff16815260200191505060405180910390f35b61032260048036038101908080359060200190929190505050610613565b005b34801561033057600080fd5b50610339610752565b6040518082815260200191505060405180910390f35b600560019054906101000a900460ff1681565b60048054600181600116156101000203166002900480601f0160208091040260200160405190810160405280929190818152602001828054600181600116156101000203166002900480156103f85780601f106103cd576101008083540402835291602001916103f8565b820191906000526020600020905b8154815290600101906020018083116103db57829003601f168201915b505050505081565b600180600381111561040e57fe5b600560009054906101000a900460ff16600381111561042957fe5b14151561049e576040517f08c379a000000000000000000000000000000000000000000000000000000000815260040180806020018281038252600f8152602001807f6e6f742076616c6964207374617465000000000000000000000000000000000081525060200191505060405180910390fd5b6002600560006101000a81548160ff021916908360038111156104bd57fe5b021790555050565b60028060038111156104d357fe5b600560009054906101000a900460ff1660038111156104ee57fe5b141515610563576040517f08c379a000000000000000000000000000000000000000000000000000000000815260040180806020018281038252600f8152602001807f6e6f742076616c6964207374617465000000000000000000000000000000000081525060200191505060405180910390fd5b6003600560006101000a81548160ff0219169083600381111561058257fe5b02179055506001600560016101000a81548160ff02191690831515021790555050565b6000809054906101000a900473ffffffffffffffffffffffffffffffffffffffff1681565b60035481565b60015481565b816002819055508060038190555082600490805190602001906105fa929190610758565b50505050565b600560009054906101000a900460ff1681565b600080600381111561062157fe5b600560009054906101000a900460ff16600381111561063c57fe5b1415156106b1576040517f08c379a000000000000000000000000000000000000000000000000000000000815260040180806020018281038252600f8152602001807f6e6f742076616c6964207374617465000000000000000000000000000000000081525060200191505060405180910390fd5b6003548214151561072a576040517f08c379a000000000000000000000000000000000000000000000000000000000815260040180806020018281038252601c8152602001807f616d6f756e74206973206e6f7420657175616c20746f2070726963650000000081525060200191505060405180910390fd5b6001600560006101000a81548160ff0219169083600381111561074957fe5b02179055505050565b60025481565b828054600181600116156101000203166002900490600052602060002090601f016020900481019282601f1061079957805160ff19168380011785556107c7565b828001600101855582156107c7579182015b828111156107c65782518255916020019190600101906107ab565b5b5090506107d491906107d8565b5090565b6107fa91905b808211156107f65760008160009055506001016107de565b5090565b905600a165627a7a7230582062d6b574c16cf6c089d90b31e29174029d73a4f38925d1dcb92c855f8231f5210029",
  "source": "pragma solidity ^0.4.24;\r\n\r\nimport \"./Arbitrator.sol\";\r\nimport \"./Car.sol\";\r\n\r\ncontract CarShop is Arbitrator{\r\n    //---------------------events--------------------------//\r\n    event Delete(uint vin, bool success);\r\n    event Edit(uint vin, bool success);\r\n    event Add (address owner,uint vin, string model, bool success);\r\n      \r\n    event ConfirmSelling(uint vin, bool success); \r\n    \r\n    //---------------------members--------------------------//\r\n                                //uint - VIN\r\n    mapping (address => mapping (uint => bool)) public carAccessibility;\r\n    \r\n             //vin => index\r\n    mapping(uint => uint) public carIndex;\r\n \r\n                                //vin => amount\r\n    mapping(address => mapping (uint => uint)) buyer;\r\n    \r\n \r\n    \r\n    //car list\r\n    Car [] public carsArr;\r\n    \r\n    // reward which is allowed to be withdrawn by shop.\r\n    uint public rewardAllowed;\r\n    \r\n     //---------------------functions--------------------------//\r\n     \r\n    function getContractBalance() external view returns (uint balance){\r\n       return address(this).balance;\r\n    }\r\n    \r\n    function getNumberOfCars() external view returns(uint index){\r\n        return carsArr.length;\r\n    }\r\n    \r\n    function setCar(address owner, uint vin, string model, uint year, uint price) private{\r\n        \r\n         Car car = new Car( owner,vin, model, year, price );\r\n         carsArr.push(car);\r\n         \r\n         carIndex[vin] = carsArr.length;\r\n         carAccessibility[owner][vin] = true;\r\n    }\r\n    \r\n    constructor( )   public {\r\n        setCar(msg.sender, 0, \"Honda\", 2008,  1 * 10 ** uint256(18));\r\n        setCar(msg.sender, 1, \"BMW\",   2010,  2 * 10 ** uint256(18));\r\n        setCar(msg.sender, 2, \"Merc\",   2012, 3 * 10 ** uint256(18));\r\n    }\r\n    \r\n    function deleteCar(uint vin) public isOwnerVinAvailability(msg.sender, vin) {\r\n    \r\n        uint index = getCarIndex(vin);\r\n        \r\n        for(uint i = index; i < carsArr.length - 1; ++i){\r\n             carsArr[i] = carsArr[i+1];\r\n             //update car index respectively\r\n             carIndex[carsArr[i].vin()]--;\r\n        }\r\n        \r\n        delete carsArr[carsArr.length-1];\r\n        carsArr.length--;\r\n        \r\n        delete carIndex[vin];\r\n        \r\n        emit Delete(vin, true);\r\n    }\r\n    \r\n    function editCar(uint vin, string model, uint year, uint price) external isOwnerVinAvailability(msg.sender, vin) {\r\n        \r\n        Car car = carsArr[ getCarIndex(vin)];\r\n \r\n\r\n        car.edit( model, year, price);\r\n        \r\n        emit Edit(vin, true);\r\n    }\r\n    \r\n    function addCar(uint vin, string model, uint year, uint price) external {\r\n    \r\n        setCar(msg.sender, vin, model, year, price);\r\n\r\n        emit Add (msg.sender,vin, model,  true);\r\n    }\r\n      \r\n    function buy(uint vin) external payable {\r\n          \r\n       Car car = carsArr[ getCarIndex(vin)];\r\n      \r\n       require(!car.sold(),\"car is already sold\");\r\n      \r\n       car.buying(msg.value);\r\n       \r\n       buyer[msg.sender][vin] = msg.value;\r\n    }\r\n    \r\n    function sendDelivery(uint vin)  external isOwnerVinAvailability(msg.sender, vin){\r\n          \r\n       Car car = carsArr[ getCarIndex(vin)];\r\n       \r\n       car.sendDelivery();\r\n    }\r\n    \r\n    function confirmDelivery(uint vin) external isBuyerAvailability(msg.sender, vin){\r\n        Car car = carsArr[ getCarIndex(vin)];\r\n    \r\n        car.confirmDelivery();\r\n        \r\n        delete buyer[msg.sender][vin];\r\n        \r\n        uint companyReward = car.price() * 10 / 100;\r\n        \r\n        car.owner().transfer(car.price() - companyReward);\r\n        \r\n        rewardAllowed += companyReward;\r\n        \r\n        emit ConfirmSelling(vin, true);\r\n    }\r\n    \r\n    function withdrawAllReward() public onlyOwner{\r\n        require(rewardAllowed > 0, \"reward is empty\");\r\n        \r\n        msg.sender.transfer(rewardAllowed);\r\n        rewardAllowed = 0;\r\n    }\r\n    \r\n    function getCarByVin( uint _vin) external view isVINAvailability(_vin) \r\n    returns (  address  owner, uint vin, uint year, uint price, string model,bool sold, Car.State state ){\r\n            \r\n        Car car = carsArr[ getCarIndex(_vin)];\r\n        \r\n        return (car.owner(), car.vin(),car.year(),car.price(),car.model(), car.sold(), car.state());\r\n    }\r\n    \r\n    function getCarByIndex(uint index) external view \r\n    returns ( address  owner, uint vin, uint year, uint price, string model, bool sold ){\r\n        require(index < carsArr.length, \"index is out of range\");\r\n        \r\n        Car car = carsArr[index];\r\n              \r\n        return (car.owner(), car.vin(),car.year(),car.price(),car.model(), car.sold());\r\n    }\r\n    \r\n\r\n    \r\n    function getCarIndex(uint vin) private view returns(uint){\r\n        require(0 < carIndex[vin] && carIndex[vin] - 1 < carsArr.length , \"not valid car's vin \");\r\n        return carIndex[vin] - 1; // on purpuse to have a correct index\r\n    }\r\n\r\n    \r\n    modifier isOwnerVinAvailability(address sender, uint vin) {\r\n          require(carAccessibility[sender][vin] || arbitrator == sender, \"no car found by address/vin\");\r\n          _;\r\n    }\r\n    \r\n    modifier isBuyerAvailability(address sender, uint _vin) {\r\n        require(0 < buyer[sender][_vin] || arbitrator == sender, \"no bayer found by address/vin\");\r\n        _;\r\n    }\r\n    \r\n    modifier isVINAvailability( uint vin) {\r\n          require(0 < carIndex[vin], \"no car found by vin\");\r\n          _;\r\n    }\r\n}",
  "sourcePath": "D:\\MyProgrames\\blockchain\\ethereum\\car_shop\\contracts\\CarShop.sol",
  "compiler": {
    "name": "solc",
    "version": "0.4.25+commit.59dbf8f1.Emscripten.clang"
  },
  "schemaVersion": "2.0.2",
  "updatedAt": "2019-07-16T12:45:31.699Z"
}