{
  "contractName": "CarShop",
  "abi": [
    {
      "constant": true,
      "inputs": [
        {
          "name": "",
          "type": "address"
        },
        {
          "name": "",
          "type": "uint256"
        }
      ],
      "name": "carAccessibility",
      "outputs": [
        {
          "name": "",
          "type": "bool"
        }
      ],
      "payable": false,
      "stateMutability": "view",
      "type": "function"
    },
    {
      "constant": true,
      "inputs": [
        {
          "name": "",
          "type": "uint256"
        },
        {
          "name": "",
          "type": "uint256"
        }
      ],
      "name": "carLogger",
      "outputs": [
        {
          "name": "",
          "type": "address"
        }
      ],
      "payable": false,
      "stateMutability": "view",
      "type": "function"
    },
    {
      "constant": true,
      "inputs": [
        {
          "name": "",
          "type": "uint256"
        }
      ],
      "name": "carIndex",
      "outputs": [
        {
          "name": "",
          "type": "uint256"
        }
      ],
      "payable": false,
      "stateMutability": "view",
      "type": "function"
    },
    {
      "constant": false,
      "inputs": [
        {
          "name": "_str",
          "type": "string"
        }
      ],
      "name": "set",
      "outputs": [],
      "payable": false,
      "stateMutability": "nonpayable",
      "type": "function"
    },
    {
      "constant": true,
      "inputs": [],
      "name": "arbitrator",
      "outputs": [
        {
          "name": "",
          "type": "address"
        }
      ],
      "payable": false,
      "stateMutability": "view",
      "type": "function"
    },
    {
      "constant": true,
      "inputs": [],
      "name": "rewardAllowed",
      "outputs": [
        {
          "name": "",
          "type": "uint256"
        }
      ],
      "payable": false,
      "stateMutability": "view",
      "type": "function"
    },
    {
      "constant": true,
      "inputs": [],
      "name": "str",
      "outputs": [
        {
          "name": "",
          "type": "string"
        }
      ],
      "payable": false,
      "stateMutability": "view",
      "type": "function"
    },
    {
      "constant": true,
      "inputs": [
        {
          "name": "",
          "type": "uint256"
        }
      ],
      "name": "carsArr",
      "outputs": [
        {
          "name": "",
          "type": "address"
        }
      ],
      "payable": false,
      "stateMutability": "view",
      "type": "function"
    },
    {
      "inputs": [],
      "payable": false,
      "stateMutability": "nonpayable",
      "type": "constructor"
    },
    {
      "anonymous": false,
      "inputs": [
        {
          "indexed": false,
          "name": "vin",
          "type": "uint256"
        },
        {
          "indexed": false,
          "name": "success",
          "type": "bool"
        }
      ],
      "name": "Delete",
      "type": "event"
    },
    {
      "anonymous": false,
      "inputs": [
        {
          "indexed": false,
          "name": "vin",
          "type": "uint256"
        },
        {
          "indexed": false,
          "name": "success",
          "type": "bool"
        }
      ],
      "name": "Edit",
      "type": "event"
    },
    {
      "anonymous": false,
      "inputs": [
        {
          "indexed": false,
          "name": "owner",
          "type": "address"
        },
        {
          "indexed": false,
          "name": "vin",
          "type": "uint256"
        },
        {
          "indexed": false,
          "name": "model",
          "type": "bytes32"
        },
        {
          "indexed": false,
          "name": "success",
          "type": "bool"
        }
      ],
      "name": "Add",
      "type": "event"
    },
    {
      "anonymous": false,
      "inputs": [
        {
          "indexed": false,
          "name": "vin",
          "type": "uint256"
        },
        {
          "indexed": false,
          "name": "price",
          "type": "uint256"
        },
        {
          "indexed": false,
          "name": "success",
          "type": "bool"
        }
      ],
      "name": "ConfirmSelling",
      "type": "event"
    },
    {
      "constant": true,
      "inputs": [],
      "name": "getContractBalance",
      "outputs": [
        {
          "name": "balance",
          "type": "uint256"
        }
      ],
      "payable": false,
      "stateMutability": "view",
      "type": "function"
    },
    {
      "constant": true,
      "inputs": [],
      "name": "getNumberOfCars",
      "outputs": [
        {
          "name": "index",
          "type": "uint256"
        }
      ],
      "payable": false,
      "stateMutability": "view",
      "type": "function"
    },
    {
      "constant": false,
      "inputs": [
        {
          "name": "vin",
          "type": "uint256"
        }
      ],
      "name": "deleteCar",
      "outputs": [],
      "payable": false,
      "stateMutability": "nonpayable",
      "type": "function"
    },
    {
      "constant": false,
      "inputs": [
        {
          "name": "vin",
          "type": "uint256"
        },
        {
          "name": "model",
          "type": "bytes32"
        },
        {
          "name": "year",
          "type": "uint256"
        },
        {
          "name": "price",
          "type": "uint256"
        },
        {
          "name": "image",
          "type": "string"
        }
      ],
      "name": "editCar",
      "outputs": [],
      "payable": false,
      "stateMutability": "nonpayable",
      "type": "function"
    },
    {
      "constant": false,
      "inputs": [
        {
          "name": "vin",
          "type": "uint256"
        },
        {
          "name": "model",
          "type": "bytes32"
        },
        {
          "name": "year",
          "type": "uint256"
        },
        {
          "name": "price",
          "type": "uint256"
        },
        {
          "name": "image",
          "type": "string"
        }
      ],
      "name": "addCar",
      "outputs": [],
      "payable": false,
      "stateMutability": "nonpayable",
      "type": "function"
    },
    {
      "constant": false,
      "inputs": [
        {
          "name": "vin",
          "type": "uint256"
        }
      ],
      "name": "buy",
      "outputs": [],
      "payable": true,
      "stateMutability": "payable",
      "type": "function"
    },
    {
      "constant": false,
      "inputs": [
        {
          "name": "vin",
          "type": "uint256"
        }
      ],
      "name": "sendDelivery",
      "outputs": [],
      "payable": false,
      "stateMutability": "nonpayable",
      "type": "function"
    },
    {
      "constant": false,
      "inputs": [
        {
          "name": "vin",
          "type": "uint256"
        }
      ],
      "name": "confirmDelivery",
      "outputs": [],
      "payable": false,
      "stateMutability": "nonpayable",
      "type": "function"
    },
    {
      "constant": false,
      "inputs": [],
      "name": "withdrawAllReward",
      "outputs": [],
      "payable": false,
      "stateMutability": "nonpayable",
      "type": "function"
    },
    {
      "constant": true,
      "inputs": [
        {
          "name": "_vin",
          "type": "uint256"
        }
      ],
      "name": "getCarByVin",
      "outputs": [
        {
          "name": "owner",
          "type": "address"
        },
        {
          "name": "vin",
          "type": "uint256"
        },
        {
          "name": "year",
          "type": "uint256"
        },
        {
          "name": "price",
          "type": "uint256"
        },
        {
          "name": "model",
          "type": "bytes32"
        },
        {
          "name": "sold",
          "type": "bool"
        },
        {
          "name": "image",
          "type": "string"
        },
        {
          "name": "state",
          "type": "uint8"
        },
        {
          "name": "timestamp",
          "type": "uint256"
        }
      ],
      "payable": false,
      "stateMutability": "view",
      "type": "function"
    },
    {
      "constant": true,
      "inputs": [
        {
          "name": "index",
          "type": "uint256"
        }
      ],
      "name": "getCarByIndex",
      "outputs": [
        {
          "name": "owner",
          "type": "address"
        },
        {
          "name": "vin",
          "type": "uint256"
        },
        {
          "name": "year",
          "type": "uint256"
        },
        {
          "name": "price",
          "type": "uint256"
        },
        {
          "name": "model",
          "type": "bytes32"
        },
        {
          "name": "sold",
          "type": "bool"
        },
        {
          "name": "image",
          "type": "string"
        },
        {
          "name": "state",
          "type": "uint8"
        },
        {
          "name": "timestamp",
          "type": "uint256"
        }
      ],
      "payable": false,
      "stateMutability": "view",
      "type": "function"
    },
    {
      "constant": true,
      "inputs": [
        {
          "name": "_vin",
          "type": "uint256"
        }
      ],
      "name": "getHistoryLogCarLength",
      "outputs": [
        {
          "name": "length",
          "type": "uint256"
        }
      ],
      "payable": false,
      "stateMutability": "view",
      "type": "function"
    },
    {
      "constant": true,
      "inputs": [
        {
          "name": "_vin",
          "type": "uint256"
        },
        {
          "name": "_idx",
          "type": "uint256"
        }
      ],
      "name": "getHistoryLogCar",
      "outputs": [
        {
          "name": "owner",
          "type": "address"
        },
        {
          "name": "vin",
          "type": "uint256"
        },
        {
          "name": "year",
          "type": "uint256"
        },
        {
          "name": "price",
          "type": "uint256"
        },
        {
          "name": "model",
          "type": "bytes32"
        },
        {
          "name": "sold",
          "type": "bool"
        },
        {
          "name": "image",
          "type": "string"
        },
        {
          "name": "state",
          "type": "uint8"
        },
        {
          "name": "timestamp",
          "type": "uint256"
        }
      ],
      "payable": false,
      "stateMutability": "view",
      "type": "function"
    }
  ],
  "bytecode": "0x60806040526012600a0a6002553480156200001957600080fd5b50336000806101000a81548173ffffffffffffffffffffffffffffffffffffffff021916908373ffffffffffffffffffffffffffffffffffffffff160217905550620000fd3360007f486f6e64610000000000000000000000000000000000000000000000000000006107d8600254600102606060405190810160405280602e81526020017f516d66334155727676634b44726f4c737177537878434b6e6931544164714e4e81526020017f4d6a376648557578736e3175577900000000000000000000000000000000000081525062000103640100000000026401000000009004565b62000311565b600086868686866000876200011762000300565b808873ffffffffffffffffffffffffffffffffffffffff1673ffffffffffffffffffffffffffffffffffffffff16815260200187815260200186600019166000191681526020018581526020018481526020018315151515815260200180602001828103825283818151815260200191508051906020019080838360005b83811015620001b257808201518184015260208101905062000195565b50505050905090810190601f168015620001e05780820380516001836020036101000a031916815260200191505b5098505050505050505050604051809103906000f08015801562000208573d6000803e3d6000fd5b50905060078190806001815401808255809150509060018203906000526020600020016000909192909190916101000a81548173ffffffffffffffffffffffffffffffffffffffff021916908373ffffffffffffffffffffffffffffffffffffffff1602179055505060078054905060046000888152602001908152602001600020819055506001600360008973ffffffffffffffffffffffffffffffffffffffff1673ffffffffffffffffffffffffffffffffffffffff168152602001908152602001600020600088815260200190815260200160002060006101000a81548160ff02191690831515021790555050505050505050565b604051610b228062004b8783390190565b61486680620003216000396000f30060806040526004361062000133576000357c0100000000000000000000000000000000000000000000000000000000900463ffffffff168063095389401462000138578063193e364f146200026d5780631e3a9f9e14620002d5578063216b39d0146200034f578063326181df14620003935780634ec3b05114620003fd5780634ed3885e14620004415780635e3c576214620004ad5780636009808814620004dd5780636b37fbaa146200050d5780636cc6cde114620005275780636f9fb98a14620005815780637a8da44c14620005af5780638199feb014620006195780638c0ecc33146200074457806397d411641462000772578063b85ce4e9146200089d578063c15bae8414620008cb578063c6dea50b1462000961578063d96a094a14620009d1578063fd84cb9714620009f3575b600080fd5b3480156200014557600080fd5b5062000170600480360381019080803590602001909291908035906020019092919050505062000a23565b604051808a73ffffffffffffffffffffffffffffffffffffffff1673ffffffffffffffffffffffffffffffffffffffff16815260200189815260200188815260200187815260200186600019166000191681526020018515151515815260200180602001846003811115620001e157fe5b60ff168152602001838152602001828103825285818151815260200191508051906020019080838360005b83811015620002295780820151818401526020810190506200020c565b50505050905090810190601f168015620002575780820380516001836020036101000a031916815260200191505b509a505050505050505050505060405180910390f35b3480156200027a57600080fd5b50620002bb600480360381019080803573ffffffffffffffffffffffffffffffffffffffff16906020019092919080359060200190929190505050620011c1565b604051808215151515815260200191505060405180910390f35b348015620002e257600080fd5b506200030d6004803603810190808035906020019092919080359060200190929190505050620011f0565b604051808273ffffffffffffffffffffffffffffffffffffffff1673ffffffffffffffffffffffffffffffffffffffff16815260200191505060405180910390f35b3480156200035c57600080fd5b506200037d600480360381019080803590602001909291905050506200123e565b6040518082815260200191505060405180910390f35b348015620003a057600080fd5b50620003fb600480360381019080803590602001909291908035600019169060200190929190803590602001909291908035906020019092919080359060200190820180359060200191909192939192939050505062001256565b005b3480156200040a57600080fd5b506200042b600480360381019080803590602001909291905050506200132c565b6040518082815260200191505060405180910390f35b3480156200044e57600080fd5b50620004ab600480360381019080803590602001908201803590602001908080601f0160208091040260200160405190810160405280939291908181526020018383808284378201915050505050509192919290505050620013da565b005b348015620004ba57600080fd5b50620004db60048036038101908080359060200190929190505050620013f6565b005b348015620004ea57600080fd5b506200050b60048036038101908080359060200190929190505050620015f0565b005b3480156200051a57600080fd5b5062000525620019a2565b005b3480156200053457600080fd5b506200053f62001b36565b604051808273ffffffffffffffffffffffffffffffffffffffff1673ffffffffffffffffffffffffffffffffffffffff16815260200191505060405180910390f35b3480156200058e57600080fd5b506200059962001b5b565b6040518082815260200191505060405180910390f35b348015620005bc57600080fd5b5062000617600480360381019080803590602001909291908035600019169060200190929190803590602001909291908035906020019092919080359060200190820180359060200191909192939192939050505062001b7a565b005b3480156200062657600080fd5b50620006476004803603810190808035906020019092919050505062001e06565b604051808a73ffffffffffffffffffffffffffffffffffffffff1673ffffffffffffffffffffffffffffffffffffffff16815260200189815260200188815260200187815260200186600019166000191681526020018515151515815260200180602001846003811115620006b857fe5b60ff168152602001838152602001828103825285818151815260200191508051906020019080838360005b8381101562000700578082015181840152602081019050620006e3565b50505050905090810190601f1680156200072e5780820380516001836020036101000a031916815260200191505b509a505050505050505050505060405180910390f35b3480156200075157600080fd5b506200075c62002519565b6040518082815260200191505060405180910390f35b3480156200077f57600080fd5b50620007a0600480360381019080803590602001909291905050506200251f565b604051808a73ffffffffffffffffffffffffffffffffffffffff1673ffffffffffffffffffffffffffffffffffffffff168152602001898152602001888152602001878152602001866000191660001916815260200185151515158152602001806020018460038111156200081157fe5b60ff168152602001838152602001828103825285818151815260200191508051906020019080838360005b83811015620008595780820151818401526020810190506200083c565b50505050905090810190601f168015620008875780820380516001836020036101000a031916815260200191505b509a505050505050505050505060405180910390f35b348015620008aa57600080fd5b50620008b562002c17565b6040518082815260200191505060405180910390f35b348015620008d857600080fd5b50620008e362002c24565b6040518080602001828103825283818151815260200191508051906020019080838360005b838110156200092557808201518184015260208101905062000908565b50505050905090810190601f168015620009535780820380516001836020036101000a031916815260200191505b509250505060405180910390f35b3480156200096e57600080fd5b506200098f6004803603810190808035906020019092919050505062002cc6565b604051808273ffffffffffffffffffffffffffffffffffffffff1673ffffffffffffffffffffffffffffffffffffffff16815260200191505060405180910390f35b620009f16004803603810190808035906020019092919050505062002d05565b005b34801562000a0057600080fd5b5062000a216004803603810190808035906020019092919050505062002f48565b005b60008060008060008060606000806000808c6006600082815260200190815260200160002080549050600010151562000ac4576040517f08c379a000000000000000000000000000000000000000000000000000000000815260040180806020018281038252601a8152602001807f6e6f20636172206c6f6767657220666f756e642062792076696e00000000000081525060200191505060405180910390fd5b600660008f8152602001908152602001600020925082805490508d10151562000b55576040517f08c379a000000000000000000000000000000000000000000000000000000000815260040180806020018281038252600c8152602001807f6f7574206f662072616e6765000000000000000000000000000000000000000081525060200191505060405180910390fd5b828d81548110151562000b6457fe5b9060005260206000200160009054906101000a900473ffffffffffffffffffffffffffffffffffffffff1691508173ffffffffffffffffffffffffffffffffffffffff16638da5cb5b6040518163ffffffff167c0100000000000000000000000000000000000000000000000000000000028152600401602060405180830381600087803b15801562000bf657600080fd5b505af115801562000c0b573d6000803e3d6000fd5b505050506040513d602081101562000c2257600080fd5b81019080805190602001909291905050508273ffffffffffffffffffffffffffffffffffffffff1663aca2d4646040518163ffffffff167c0100000000000000000000000000000000000000000000000000000000028152600401602060405180830381600087803b15801562000c9857600080fd5b505af115801562000cad573d6000803e3d6000fd5b505050506040513d602081101562000cc457600080fd5b81019080805190602001909291905050508373ffffffffffffffffffffffffffffffffffffffff1663f32697166040518163ffffffff167c0100000000000000000000000000000000000000000000000000000000028152600401602060405180830381600087803b15801562000d3a57600080fd5b505af115801562000d4f573d6000803e3d6000fd5b505050506040513d602081101562000d6657600080fd5b81019080805190602001909291905050508473ffffffffffffffffffffffffffffffffffffffff1663a035b1fe6040518163ffffffff167c0100000000000000000000000000000000000000000000000000000000028152600401602060405180830381600087803b15801562000ddc57600080fd5b505af115801562000df1573d6000803e3d6000fd5b505050506040513d602081101562000e0857600080fd5b81019080805190602001909291905050508573ffffffffffffffffffffffffffffffffffffffff16630ad9d0526040518163ffffffff167c0100000000000000000000000000000000000000000000000000000000028152600401602060405180830381600087803b15801562000e7e57600080fd5b505af115801562000e93573d6000803e3d6000fd5b505050506040513d602081101562000eaa57600080fd5b81019080805190602001909291905050508673ffffffffffffffffffffffffffffffffffffffff166302c7e7af6040518163ffffffff167c0100000000000000000000000000000000000000000000000000000000028152600401602060405180830381600087803b15801562000f2057600080fd5b505af115801562000f35573d6000803e3d6000fd5b505050506040513d602081101562000f4c57600080fd5b81019080805190602001909291905050508773ffffffffffffffffffffffffffffffffffffffff1663ee4cdb576040518163ffffffff167c0100000000000000000000000000000000000000000000000000000000028152600401600060405180830381600087803b15801562000fc257600080fd5b505af115801562000fd7573d6000803e3d6000fd5b505050506040513d6000823e3d601f19601f8201168201806040525060208110156200100257600080fd5b8101908080516401000000008111156200101b57600080fd5b828101905060208101848111156200103257600080fd5b81518560018202830111640100000000821117156200105057600080fd5b50509291905050508873ffffffffffffffffffffffffffffffffffffffff1663c19d93fb6040518163ffffffff167c0100000000000000000000000000000000000000000000000000000000028152600401602060405180830381600087803b158015620010bd57600080fd5b505af1158015620010d2573d6000803e3d6000fd5b505050506040513d6020811015620010e957600080fd5b81019080805190602001909291905050508973ffffffffffffffffffffffffffffffffffffffff1663b80777ea6040518163ffffffff167c0100000000000000000000000000000000000000000000000000000000028152600401602060405180830381600087803b1580156200115f57600080fd5b505af115801562001174573d6000803e3d6000fd5b505050506040513d60208110156200118b57600080fd5b81019080805190602001909291905050508292509b509b509b509b509b509b509b509b509b505050509295985092959850929598565b60036020528160005260406000206020528060005260406000206000915091509054906101000a900460ff1681565b6006602052816000526040600020818154811015156200120c57fe5b906000526020600020016000915091509054906101000a900473ffffffffffffffffffffffffffffffffffffffff1681565b60046020528060005260406000206000915090505481565b6200129c33878787600254880287878080601f01602080910402602001604051908101604052809392919081815260200183838082843782019150505050505062003959565b7f63b00a10149042152be04e4d2aee7b31c951ff8378494ac00362e91131a0188d3387876001604051808573ffffffffffffffffffffffffffffffffffffffff1673ffffffffffffffffffffffffffffffffffffffff16815260200184815260200183600019166000191681526020018215151515815260200194505050505060405180910390a1505050505050565b60008160046000828152602001908152602001600020546000101515620013bb576040517f08c379a00000000000000000000000000000000000000000000000000000000081526004018080602001828103825260138152602001807f6e6f2063617220666f756e642062792076696e0000000000000000000000000081525060200191505060405180910390fd5b6006600084815260200190815260200160002080549050915050919050565b8060019080519060200190620013f292919062003c29565b5050565b60003382600360008373ffffffffffffffffffffffffffffffffffffffff1673ffffffffffffffffffffffffffffffffffffffff168152602001908152602001600020600082815260200190815260200160002060009054906101000a900460ff1680620014b057508173ffffffffffffffffffffffffffffffffffffffff166000809054906101000a900473ffffffffffffffffffffffffffffffffffffffff1673ffffffffffffffffffffffffffffffffffffffff16145b151562001525576040517f08c379a000000000000000000000000000000000000000000000000000000000815260040180806020018281038252601b8152602001807f6e6f2063617220666f756e6420627920616464726573732f76696e000000000081525060200191505060405180910390fd5b6007620015328562003b56565b8154811015156200153f57fe5b9060005260206000200160009054906101000a900473ffffffffffffffffffffffffffffffffffffffff1692508273ffffffffffffffffffffffffffffffffffffffff166317ec5c2d6040518163ffffffff167c0100000000000000000000000000000000000000000000000000000000028152600401600060405180830381600087803b158015620015d157600080fd5b505af1158015620015e6573d6000803e3d6000fd5b5050505050505050565b6000803383600360008373ffffffffffffffffffffffffffffffffffffffff1673ffffffffffffffffffffffffffffffffffffffff168152602001908152602001600020600082815260200190815260200160002060009054906101000a900460ff1680620016ab57508173ffffffffffffffffffffffffffffffffffffffff166000809054906101000a900473ffffffffffffffffffffffffffffffffffffffff1673ffffffffffffffffffffffffffffffffffffffff16145b151562001720576040517f08c379a000000000000000000000000000000000000000000000000000000000815260040180806020018281038252601b8152602001807f6e6f2063617220666f756e6420627920616464726573732f76696e000000000081525060200191505060405180910390fd5b6200172b8562003b56565b93508392505b600160078054905003831015620018e3576007600184018154811015156200175557fe5b9060005260206000200160009054906101000a900473ffffffffffffffffffffffffffffffffffffffff166007848154811015156200179057fe5b9060005260206000200160006101000a81548173ffffffffffffffffffffffffffffffffffffffff021916908373ffffffffffffffffffffffffffffffffffffffff16021790555060046000600785815481101515620017ec57fe5b9060005260206000200160009054906101000a900473ffffffffffffffffffffffffffffffffffffffff1673ffffffffffffffffffffffffffffffffffffffff1663aca2d4646040518163ffffffff167c0100000000000000000000000000000000000000000000000000000000028152600401602060405180830381600087803b1580156200187b57600080fd5b505af115801562001890573d6000803e3d6000fd5b505050506040513d6020811015620018a757600080fd5b81019080805190602001909291905050508152602001908152602001600020600081548092919060019003919050555082600101925062001731565b6007600160078054905003815481101515620018fb57fe5b9060005260206000200160006101000a81549073ffffffffffffffffffffffffffffffffffffffff021916905560078054809190600190036200193f919062003cb0565b5060046000868152602001908152602001600020600090557f9d4d9382d16aed709af37f4e1adb50b5a9e0dc3f077e7026f7eff77f0d74d37985600160405180838152602001821515151581526020019250505060405180910390a15050505050565b3373ffffffffffffffffffffffffffffffffffffffff166000809054906101000a900473ffffffffffffffffffffffffffffffffffffffff1673ffffffffffffffffffffffffffffffffffffffff1614151562001a67576040517f08c379a000000000000000000000000000000000000000000000000000000000815260040180806020018281038252601a8152602001807f61726269747261746f7220697320616c6c6f776564206f6e6c7900000000000081525060200191505060405180910390fd5b600060085411151562001ae2576040517f08c379a000000000000000000000000000000000000000000000000000000000815260040180806020018281038252600f8152602001807f72657761726420697320656d707479000000000000000000000000000000000081525060200191505060405180910390fd5b3373ffffffffffffffffffffffffffffffffffffffff166108fc6008549081150290604051600060405180830381858888f1935050505015801562001b2b573d6000803e3d6000fd5b506000600881905550565b6000809054906101000a900473ffffffffffffffffffffffffffffffffffffffff1681565b60003073ffffffffffffffffffffffffffffffffffffffff1631905090565b60003387600360008373ffffffffffffffffffffffffffffffffffffffff1673ffffffffffffffffffffffffffffffffffffffff168152602001908152602001600020600082815260200190815260200160002060009054906101000a900460ff168062001c3457508173ffffffffffffffffffffffffffffffffffffffff166000809054906101000a900473ffffffffffffffffffffffffffffffffffffffff1673ffffffffffffffffffffffffffffffffffffffff16145b151562001ca9576040517f08c379a000000000000000000000000000000000000000000000000000000000815260040180806020018281038252601b8152602001807f6e6f2063617220666f756e6420627920616464726573732f76696e000000000081525060200191505060405180910390fd5b600762001cb68a62003b56565b81548110151562001cc357fe5b9060005260206000200160009054906101000a900473ffffffffffffffffffffffffffffffffffffffff1692508273ffffffffffffffffffffffffffffffffffffffff1663d81df1ef89896002548a0289896040518663ffffffff167c010000000000000000000000000000000000000000000000000000000002815260040180866000191660001916815260200185815260200184815260200180602001828103825284848281815260200192508082843782019150509650505050505050600060405180830381600087803b15801562001d9e57600080fd5b505af115801562001db3573d6000803e3d6000fd5b505050507f9896bfaa4b5c77185f664c6d5d6fd8cae37c6b31b0b9b45a9faccd50b0c8c35c89600160405180838152602001821515151581526020019250505060405180910390a1505050505050505050565b600080600080600080606060008060008a6004600082815260200190815260200160002054600010151562001ea3576040517f08c379a00000000000000000000000000000000000000000000000000000000081526004018080602001828103825260138152602001807f6e6f2063617220666f756e642062792076696e0000000000000000000000000081525060200191505060405180910390fd5b600762001eb08d62003b56565b81548110151562001ebd57fe5b9060005260206000200160009054906101000a900473ffffffffffffffffffffffffffffffffffffffff1691508173ffffffffffffffffffffffffffffffffffffffff16638da5cb5b6040518163ffffffff167c0100000000000000000000000000000000000000000000000000000000028152600401602060405180830381600087803b15801562001f4f57600080fd5b505af115801562001f64573d6000803e3d6000fd5b505050506040513d602081101562001f7b57600080fd5b81019080805190602001909291905050508273ffffffffffffffffffffffffffffffffffffffff1663aca2d4646040518163ffffffff167c0100000000000000000000000000000000000000000000000000000000028152600401602060405180830381600087803b15801562001ff157600080fd5b505af115801562002006573d6000803e3d6000fd5b505050506040513d60208110156200201d57600080fd5b81019080805190602001909291905050508373ffffffffffffffffffffffffffffffffffffffff1663f32697166040518163ffffffff167c0100000000000000000000000000000000000000000000000000000000028152600401602060405180830381600087803b1580156200209357600080fd5b505af1158015620020a8573d6000803e3d6000fd5b505050506040513d6020811015620020bf57600080fd5b81019080805190602001909291905050508473ffffffffffffffffffffffffffffffffffffffff1663a035b1fe6040518163ffffffff167c0100000000000000000000000000000000000000000000000000000000028152600401602060405180830381600087803b1580156200213557600080fd5b505af11580156200214a573d6000803e3d6000fd5b505050506040513d60208110156200216157600080fd5b81019080805190602001909291905050508573ffffffffffffffffffffffffffffffffffffffff16630ad9d0526040518163ffffffff167c0100000000000000000000000000000000000000000000000000000000028152600401602060405180830381600087803b158015620021d757600080fd5b505af1158015620021ec573d6000803e3d6000fd5b505050506040513d60208110156200220357600080fd5b81019080805190602001909291905050508673ffffffffffffffffffffffffffffffffffffffff166302c7e7af6040518163ffffffff167c0100000000000000000000000000000000000000000000000000000000028152600401602060405180830381600087803b1580156200227957600080fd5b505af11580156200228e573d6000803e3d6000fd5b505050506040513d6020811015620022a557600080fd5b81019080805190602001909291905050508773ffffffffffffffffffffffffffffffffffffffff1663ee4cdb576040518163ffffffff167c0100000000000000000000000000000000000000000000000000000000028152600401600060405180830381600087803b1580156200231b57600080fd5b505af115801562002330573d6000803e3d6000fd5b505050506040513d6000823e3d601f19601f8201168201806040525060208110156200235b57600080fd5b8101908080516401000000008111156200237457600080fd5b828101905060208101848111156200238b57600080fd5b8151856001820283011164010000000082111715620023a957600080fd5b50509291905050508873ffffffffffffffffffffffffffffffffffffffff1663c19d93fb6040518163ffffffff167c0100000000000000000000000000000000000000000000000000000000028152600401602060405180830381600087803b1580156200241657600080fd5b505af11580156200242b573d6000803e3d6000fd5b505050506040513d60208110156200244257600080fd5b81019080805190602001909291905050508973ffffffffffffffffffffffffffffffffffffffff1663b80777ea6040518163ffffffff167c0100000000000000000000000000000000000000000000000000000000028152600401602060405180830381600087803b158015620024b857600080fd5b505af1158015620024cd573d6000803e3d6000fd5b505050506040513d6020811015620024e457600080fd5b81019080805190602001909291905050508292509a509a509a509a509a509a509a509a509a5050509193959799909294969850565b60085481565b600080600080600080606060008060006007805490508b101515620025ac576040517f08c379a00000000000000000000000000000000000000000000000000000000081526004018080602001828103825260158152602001807f696e646578206973206f7574206f662072616e6765000000000000000000000081525060200191505060405180910390fd5b60078b815481101515620025bc57fe5b9060005260206000200160009054906101000a900473ffffffffffffffffffffffffffffffffffffffff1690508073ffffffffffffffffffffffffffffffffffffffff16638da5cb5b6040518163ffffffff167c0100000000000000000000000000000000000000000000000000000000028152600401602060405180830381600087803b1580156200264e57600080fd5b505af115801562002663573d6000803e3d6000fd5b505050506040513d60208110156200267a57600080fd5b81019080805190602001909291905050508173ffffffffffffffffffffffffffffffffffffffff1663aca2d4646040518163ffffffff167c0100000000000000000000000000000000000000000000000000000000028152600401602060405180830381600087803b158015620026f057600080fd5b505af115801562002705573d6000803e3d6000fd5b505050506040513d60208110156200271c57600080fd5b81019080805190602001909291905050508273ffffffffffffffffffffffffffffffffffffffff1663f32697166040518163ffffffff167c0100000000000000000000000000000000000000000000000000000000028152600401602060405180830381600087803b1580156200279257600080fd5b505af1158015620027a7573d6000803e3d6000fd5b505050506040513d6020811015620027be57600080fd5b81019080805190602001909291905050508373ffffffffffffffffffffffffffffffffffffffff1663a035b1fe6040518163ffffffff167c0100000000000000000000000000000000000000000000000000000000028152600401602060405180830381600087803b1580156200283457600080fd5b505af115801562002849573d6000803e3d6000fd5b505050506040513d60208110156200286057600080fd5b81019080805190602001909291905050508473ffffffffffffffffffffffffffffffffffffffff16630ad9d0526040518163ffffffff167c0100000000000000000000000000000000000000000000000000000000028152600401602060405180830381600087803b158015620028d657600080fd5b505af1158015620028eb573d6000803e3d6000fd5b505050506040513d60208110156200290257600080fd5b81019080805190602001909291905050508573ffffffffffffffffffffffffffffffffffffffff166302c7e7af6040518163ffffffff167c0100000000000000000000000000000000000000000000000000000000028152600401602060405180830381600087803b1580156200297857600080fd5b505af11580156200298d573d6000803e3d6000fd5b505050506040513d6020811015620029a457600080fd5b81019080805190602001909291905050508673ffffffffffffffffffffffffffffffffffffffff1663ee4cdb576040518163ffffffff167c0100000000000000000000000000000000000000000000000000000000028152600401600060405180830381600087803b15801562002a1a57600080fd5b505af115801562002a2f573d6000803e3d6000fd5b505050506040513d6000823e3d601f19601f82011682018060405250602081101562002a5a57600080fd5b81019080805164010000000081111562002a7357600080fd5b8281019050602081018481111562002a8a57600080fd5b815185600182028301116401000000008211171562002aa857600080fd5b50509291905050508773ffffffffffffffffffffffffffffffffffffffff1663c19d93fb6040518163ffffffff167c0100000000000000000000000000000000000000000000000000000000028152600401602060405180830381600087803b15801562002b1557600080fd5b505af115801562002b2a573d6000803e3d6000fd5b505050506040513d602081101562002b4157600080fd5b81019080805190602001909291905050508873ffffffffffffffffffffffffffffffffffffffff1663b80777ea6040518163ffffffff167c0100000000000000000000000000000000000000000000000000000000028152600401602060405180830381600087803b15801562002bb757600080fd5b505af115801562002bcc573d6000803e3d6000fd5b505050506040513d602081101562002be357600080fd5b8101908080519060200190929190505050829250995099509950995099509950995099509950509193959799909294969850565b6000600780549050905090565b60018054600181600116156101000203166002900480601f01602080910402602001604051908101604052809291908181526020018280546001816001161561010002031660029004801562002cbe5780601f1062002c925761010080835404028352916020019162002cbe565b820191906000526020600020905b81548152906001019060200180831162002ca057829003601f168201915b505050505081565b60078181548110151562002cd657fe5b906000526020600020016000915054906101000a900473ffffffffffffffffffffffffffffffffffffffff1681565b6000600762002d148362003b56565b81548110151562002d2157fe5b9060005260206000200160009054906101000a900473ffffffffffffffffffffffffffffffffffffffff1690508073ffffffffffffffffffffffffffffffffffffffff166302c7e7af6040518163ffffffff167c0100000000000000000000000000000000000000000000000000000000028152600401602060405180830381600087803b15801562002db357600080fd5b505af115801562002dc8573d6000803e3d6000fd5b505050506040513d602081101562002ddf57600080fd5b810190808051906020019092919050505015151562002e66576040517f08c379a00000000000000000000000000000000000000000000000000000000081526004018080602001828103825260138152602001807f63617220697320616c726561647920736f6c640000000000000000000000000081525060200191505060405180910390fd5b8073ffffffffffffffffffffffffffffffffffffffff1663d96a094a346040518263ffffffff167c010000000000000000000000000000000000000000000000000000000002815260040180828152602001915050600060405180830381600087803b15801562002ed657600080fd5b505af115801562002eeb573d6000803e3d6000fd5b5050505034600560003373ffffffffffffffffffffffffffffffffffffffff1673ffffffffffffffffffffffffffffffffffffffff1681526020019081526020016000206000848152602001908152602001600020819055505050565b6000803383600560008373ffffffffffffffffffffffffffffffffffffffff1673ffffffffffffffffffffffffffffffffffffffff1681526020019081526020016000206000828152602001908152602001600020546000108062002ff957508173ffffffffffffffffffffffffffffffffffffffff166000809054906101000a900473ffffffffffffffffffffffffffffffffffffffff1673ffffffffffffffffffffffffffffffffffffffff16145b15156200306e576040517f08c379a000000000000000000000000000000000000000000000000000000000815260040180806020018281038252601d8152602001807f6e6f20626179657220666f756e6420627920616464726573732f76696e00000081525060200191505060405180910390fd5b60076200307b8662003b56565b8154811015156200308857fe5b9060005260206000200160009054906101000a900473ffffffffffffffffffffffffffffffffffffffff169350600560003373ffffffffffffffffffffffffffffffffffffffff1673ffffffffffffffffffffffffffffffffffffffff1681526020019081526020016000206000868152602001908152602001600020600090556064600a8573ffffffffffffffffffffffffffffffffffffffff1663a035b1fe6040518163ffffffff167c0100000000000000000000000000000000000000000000000000000000028152600401602060405180830381600087803b1580156200317257600080fd5b505af115801562003187573d6000803e3d6000fd5b505050506040513d60208110156200319e57600080fd5b810190808051906020019092919050505002811515620031ba57fe5b0492508373ffffffffffffffffffffffffffffffffffffffff16638da5cb5b6040518163ffffffff167c0100000000000000000000000000000000000000000000000000000000028152600401602060405180830381600087803b1580156200322257600080fd5b505af115801562003237573d6000803e3d6000fd5b505050506040513d60208110156200324e57600080fd5b810190808051906020019092919050505073ffffffffffffffffffffffffffffffffffffffff166108fc848673ffffffffffffffffffffffffffffffffffffffff1663a035b1fe6040518163ffffffff167c0100000000000000000000000000000000000000000000000000000000028152600401602060405180830381600087803b158015620032de57600080fd5b505af1158015620032f3573d6000803e3d6000fd5b505050506040513d60208110156200330a57600080fd5b8101908080519060200190929190505050039081150290604051600060405180830381858888f1935050505015801562003348573d6000803e3d6000fd5b508373ffffffffffffffffffffffffffffffffffffffff16639f7aee82336040518263ffffffff167c0100000000000000000000000000000000000000000000000000000000028152600401808273ffffffffffffffffffffffffffffffffffffffff1673ffffffffffffffffffffffffffffffffffffffff168152602001915050600060405180830381600087803b158015620033e557600080fd5b505af1158015620033fa573d6000803e3d6000fd5b50505050826008600082825401925050819055506006600086815260200190815260200160002033868673ffffffffffffffffffffffffffffffffffffffff16630ad9d0526040518163ffffffff167c0100000000000000000000000000000000000000000000000000000000028152600401602060405180830381600087803b1580156200348857600080fd5b505af11580156200349d573d6000803e3d6000fd5b505050506040513d6020811015620034b457600080fd5b81019080805190602001909291905050508773ffffffffffffffffffffffffffffffffffffffff1663f32697166040518163ffffffff167c0100000000000000000000000000000000000000000000000000000000028152600401602060405180830381600087803b1580156200352a57600080fd5b505af11580156200353f573d6000803e3d6000fd5b505050506040513d60208110156200355657600080fd5b81019080805190602001909291905050508873ffffffffffffffffffffffffffffffffffffffff1663a035b1fe6040518163ffffffff167c0100000000000000000000000000000000000000000000000000000000028152600401602060405180830381600087803b158015620035cc57600080fd5b505af1158015620035e1573d6000803e3d6000fd5b505050506040513d6020811015620035f857600080fd5b810190808051906020019092919050505060018a73ffffffffffffffffffffffffffffffffffffffff1663ee4cdb576040518163ffffffff167c0100000000000000000000000000000000000000000000000000000000028152600401600060405180830381600087803b1580156200367057600080fd5b505af115801562003685573d6000803e3d6000fd5b505050506040513d6000823e3d601f19601f820116820180604052506020811015620036b057600080fd5b810190808051640100000000811115620036c957600080fd5b82810190506020810184811115620036e057600080fd5b8151856001820283011164010000000082111715620036fe57600080fd5b50509291905050506200371062003cdf565b808873ffffffffffffffffffffffffffffffffffffffff1673ffffffffffffffffffffffffffffffffffffffff16815260200187815260200186600019166000191681526020018581526020018481526020018315151515815260200180602001828103825283818151815260200191508051906020019080838360005b83811015620037ab5780820151818401526020810190506200378e565b50505050905090810190601f168015620037d95780820380516001836020036101000a031916815260200191505b5098505050505050505050604051809103906000f08015801562003801573d6000803e3d6000fd5b5090806001815401808255809150509060018203906000526020600020016000909192909190916101000a81548173ffffffffffffffffffffffffffffffffffffffff021916908373ffffffffffffffffffffffffffffffffffffffff160217905550507fb8699cbbf451aa7e830582e308398b69613831fd8d851865054406a655da4c37858573ffffffffffffffffffffffffffffffffffffffff1663a035b1fe6040518163ffffffff167c0100000000000000000000000000000000000000000000000000000000028152600401602060405180830381600087803b158015620038ec57600080fd5b505af115801562003901573d6000803e3d6000fd5b505050506040513d60208110156200391857600080fd5b810190808051906020019092919050505060016040518084815260200183815260200182151515158152602001935050505060405180910390a15050505050565b600086868686866000876200396d62003cdf565b808873ffffffffffffffffffffffffffffffffffffffff1673ffffffffffffffffffffffffffffffffffffffff16815260200187815260200186600019166000191681526020018581526020018481526020018315151515815260200180602001828103825283818151815260200191508051906020019080838360005b8381101562003a08578082015181840152602081019050620039eb565b50505050905090810190601f16801562003a365780820380516001836020036101000a031916815260200191505b5098505050505050505050604051809103906000f08015801562003a5e573d6000803e3d6000fd5b50905060078190806001815401808255809150509060018203906000526020600020016000909192909190916101000a81548173ffffffffffffffffffffffffffffffffffffffff021916908373ffffffffffffffffffffffffffffffffffffffff1602179055505060078054905060046000888152602001908152602001600020819055506001600360008973ffffffffffffffffffffffffffffffffffffffff1673ffffffffffffffffffffffffffffffffffffffff168152602001908152602001600020600088815260200190815260200160002060006101000a81548160ff02191690831515021790555050505050505050565b60006004600083815260200190815260200160002054600010801562003b9657506007805490506001600460008581526020019081526020016000205403105b151562003c0b576040517f08c379a00000000000000000000000000000000000000000000000000000000081526004018080602001828103825260148152602001807f6e6f742076616c69642063617227732076696e2000000000000000000000000081525060200191505060405180910390fd5b60016004600084815260200190815260200160002054039050919050565b828054600181600116156101000203166002900490600052602060002090601f016020900481019282601f1062003c6c57805160ff191683800117855562003c9d565b8280016001018555821562003c9d579182015b8281111562003c9c57825182559160200191906001019062003c7f565b5b50905062003cac919062003cf0565b5090565b81548183558181111562003cda5781836000526020600020918201910162003cd9919062003cf0565b5b505050565b604051610b228062003d1983390190565b62003d1591905b8082111562003d1157600081600090555060010162003cf7565b5090565b905600608060405234801561001057600080fd5b50604051610b22380380610b2283398101806040528101908080519060200190929190805190602001909291908051906020019092919080519060200190929190805190602001909291908051906020019092919080518201929190505050866000806101000a81548173ffffffffffffffffffffffffffffffffffffffff021916908373ffffffffffffffffffffffffffffffffffffffff160217905550856001819055508360028190555082600381905550846004816000191690555080600590805190602001906100e5929190610137565b504260078190555081600660016101000a81548160ff0219169083151502179055506000600660006101000a81548160ff0219169083600381111561012657fe5b0217905550505050505050506101dc565b828054600181600116156101000203166002900490600052602060002090601f016020900481019282601f1061017857805160ff19168380011785556101a6565b828001600101855582156101a6579182015b828111156101a557825182559160200191906001019061018a565b5b5090506101b391906101b7565b5090565b6101d991905b808211156101d55760008160009055506001016101bd565b5090565b90565b610937806101eb6000396000f3006080604052600436106100c5576000357c0100000000000000000000000000000000000000000000000000000000900463ffffffff16806302c7e7af146100ca5780630ad9d052146100f957806317ec5c2d1461012c5780638da5cb5b146101435780639f7aee821461019a578063a035b1fe146101dd578063aca2d46414610208578063b80777ea14610233578063c19d93fb1461025e578063d81df1ef14610297578063d96a094a14610322578063ee4cdb5714610342578063f3269716146103d2575b600080fd5b3480156100d657600080fd5b506100df6103fd565b604051808215151515815260200191505060405180910390f35b34801561010557600080fd5b5061010e610410565b60405180826000191660001916815260200191505060405180910390f35b34801561013857600080fd5b50610141610416565b005b34801561014f57600080fd5b506101586104db565b604051808273ffffffffffffffffffffffffffffffffffffffff1673ffffffffffffffffffffffffffffffffffffffff16815260200191505060405180910390f35b3480156101a657600080fd5b506101db600480360381019080803573ffffffffffffffffffffffffffffffffffffffff169060200190929190505050610500565b005b3480156101e957600080fd5b506101f2610621565b6040518082815260200191505060405180910390f35b34801561021457600080fd5b5061021d610627565b6040518082815260200191505060405180910390f35b34801561023f57600080fd5b5061024861062d565b6040518082815260200191505060405180910390f35b34801561026a57600080fd5b50610273610633565b6040518082600381111561028357fe5b60ff16815260200191505060405180910390f35b3480156102a357600080fd5b5061032060048036038101908080356000191690602001909291908035906020019092919080359060200190929190803590602001908201803590602001908080601f0160208091040260200160405190810160405280939291908181526020018383808284378201915050505050509192919290505050610646565b005b61034060048036038101908080359060200190929190505050610683565b005b34801561034e57600080fd5b506103576107c2565b6040518080602001828103825283818151815260200191508051906020019080838360005b8381101561039757808201518184015260208101905061037c565b50505050905090810190601f1680156103c45780820380516001836020036101000a031916815260200191505b509250505060405180910390f35b3480156103de57600080fd5b506103e7610860565b6040518082815260200191505060405180910390f35b600660019054906101000a900460ff1681565b60045481565b600180600381111561042457fe5b600660009054906101000a900460ff16600381111561043f57fe5b1415156104b4576040517f08c379a000000000000000000000000000000000000000000000000000000000815260040180806020018281038252600f8152602001807f6e6f742076616c6964207374617465000000000000000000000000000000000081525060200191505060405180910390fd5b6002600660006101000a81548160ff021916908360038111156104d357fe5b021790555050565b6000809054906101000a900473ffffffffffffffffffffffffffffffffffffffff1681565b600280600381111561050e57fe5b600660009054906101000a900460ff16600381111561052957fe5b14151561059e576040517f08c379a000000000000000000000000000000000000000000000000000000000815260040180806020018281038252600f8152602001807f6e6f742076616c6964207374617465000000000000000000000000000000000081525060200191505060405180910390fd5b6003600660006101000a81548160ff021916908360038111156105bd57fe5b02179055506001600660016101000a81548160ff021916908315150217905550816000806101000a81548173ffffffffffffffffffffffffffffffffffffffff021916908373ffffffffffffffffffffffffffffffffffffffff1602179055505050565b60035481565b60015481565b60075481565b600660009054906101000a900460ff1681565b826002819055508160038190555083600481600019169055508060059080519060200190610675929190610866565b504260078190555050505050565b600080600381111561069157fe5b600660009054906101000a900460ff1660038111156106ac57fe5b141515610721576040517f08c379a000000000000000000000000000000000000000000000000000000000815260040180806020018281038252600f8152602001807f6e6f742076616c6964207374617465000000000000000000000000000000000081525060200191505060405180910390fd5b6003548214151561079a576040517f08c379a000000000000000000000000000000000000000000000000000000000815260040180806020018281038252601c8152602001807f616d6f756e74206973206e6f7420657175616c20746f2070726963650000000081525060200191505060405180910390fd5b6001600660006101000a81548160ff021916908360038111156107b957fe5b02179055505050565b60058054600181600116156101000203166002900480601f0160208091040260200160405190810160405280929190818152602001828054600181600116156101000203166002900480156108585780601f1061082d57610100808354040283529160200191610858565b820191906000526020600020905b81548152906001019060200180831161083b57829003601f168201915b505050505081565b60025481565b828054600181600116156101000203166002900490600052602060002090601f016020900481019282601f106108a757805160ff19168380011785556108d5565b828001600101855582156108d5579182015b828111156108d45782518255916020019190600101906108b9565b5b5090506108e291906108e6565b5090565b61090891905b808211156109045760008160009055506001016108ec565b5090565b905600a165627a7a72305820eca3cf37f102c7ba0a545649aac8605a976b7ae612a4ea92b2ae0844e56991c20029a165627a7a7230582079561eaed928aac0e2b4ddb74f1368f926f34d9896122c0ebc6962d81aba888d0029608060405234801561001057600080fd5b50604051610b22380380610b2283398101806040528101908080519060200190929190805190602001909291908051906020019092919080519060200190929190805190602001909291908051906020019092919080518201929190505050866000806101000a81548173ffffffffffffffffffffffffffffffffffffffff021916908373ffffffffffffffffffffffffffffffffffffffff160217905550856001819055508360028190555082600381905550846004816000191690555080600590805190602001906100e5929190610137565b504260078190555081600660016101000a81548160ff0219169083151502179055506000600660006101000a81548160ff0219169083600381111561012657fe5b0217905550505050505050506101dc565b828054600181600116156101000203166002900490600052602060002090601f016020900481019282601f1061017857805160ff19168380011785556101a6565b828001600101855582156101a6579182015b828111156101a557825182559160200191906001019061018a565b5b5090506101b391906101b7565b5090565b6101d991905b808211156101d55760008160009055506001016101bd565b5090565b90565b610937806101eb6000396000f3006080604052600436106100c5576000357c0100000000000000000000000000000000000000000000000000000000900463ffffffff16806302c7e7af146100ca5780630ad9d052146100f957806317ec5c2d1461012c5780638da5cb5b146101435780639f7aee821461019a578063a035b1fe146101dd578063aca2d46414610208578063b80777ea14610233578063c19d93fb1461025e578063d81df1ef14610297578063d96a094a14610322578063ee4cdb5714610342578063f3269716146103d2575b600080fd5b3480156100d657600080fd5b506100df6103fd565b604051808215151515815260200191505060405180910390f35b34801561010557600080fd5b5061010e610410565b60405180826000191660001916815260200191505060405180910390f35b34801561013857600080fd5b50610141610416565b005b34801561014f57600080fd5b506101586104db565b604051808273ffffffffffffffffffffffffffffffffffffffff1673ffffffffffffffffffffffffffffffffffffffff16815260200191505060405180910390f35b3480156101a657600080fd5b506101db600480360381019080803573ffffffffffffffffffffffffffffffffffffffff169060200190929190505050610500565b005b3480156101e957600080fd5b506101f2610621565b6040518082815260200191505060405180910390f35b34801561021457600080fd5b5061021d610627565b6040518082815260200191505060405180910390f35b34801561023f57600080fd5b5061024861062d565b6040518082815260200191505060405180910390f35b34801561026a57600080fd5b50610273610633565b6040518082600381111561028357fe5b60ff16815260200191505060405180910390f35b3480156102a357600080fd5b5061032060048036038101908080356000191690602001909291908035906020019092919080359060200190929190803590602001908201803590602001908080601f0160208091040260200160405190810160405280939291908181526020018383808284378201915050505050509192919290505050610646565b005b61034060048036038101908080359060200190929190505050610683565b005b34801561034e57600080fd5b506103576107c2565b6040518080602001828103825283818151815260200191508051906020019080838360005b8381101561039757808201518184015260208101905061037c565b50505050905090810190601f1680156103c45780820380516001836020036101000a031916815260200191505b509250505060405180910390f35b3480156103de57600080fd5b506103e7610860565b6040518082815260200191505060405180910390f35b600660019054906101000a900460ff1681565b60045481565b600180600381111561042457fe5b600660009054906101000a900460ff16600381111561043f57fe5b1415156104b4576040517f08c379a000000000000000000000000000000000000000000000000000000000815260040180806020018281038252600f8152602001807f6e6f742076616c6964207374617465000000000000000000000000000000000081525060200191505060405180910390fd5b6002600660006101000a81548160ff021916908360038111156104d357fe5b021790555050565b6000809054906101000a900473ffffffffffffffffffffffffffffffffffffffff1681565b600280600381111561050e57fe5b600660009054906101000a900460ff16600381111561052957fe5b14151561059e576040517f08c379a000000000000000000000000000000000000000000000000000000000815260040180806020018281038252600f8152602001807f6e6f742076616c6964207374617465000000000000000000000000000000000081525060200191505060405180910390fd5b6003600660006101000a81548160ff021916908360038111156105bd57fe5b02179055506001600660016101000a81548160ff021916908315150217905550816000806101000a81548173ffffffffffffffffffffffffffffffffffffffff021916908373ffffffffffffffffffffffffffffffffffffffff1602179055505050565b60035481565b60015481565b60075481565b600660009054906101000a900460ff1681565b826002819055508160038190555083600481600019169055508060059080519060200190610675929190610866565b504260078190555050505050565b600080600381111561069157fe5b600660009054906101000a900460ff1660038111156106ac57fe5b141515610721576040517f08c379a000000000000000000000000000000000000000000000000000000000815260040180806020018281038252600f8152602001807f6e6f742076616c6964207374617465000000000000000000000000000000000081525060200191505060405180910390fd5b6003548214151561079a576040517f08c379a000000000000000000000000000000000000000000000000000000000815260040180806020018281038252601c8152602001807f616d6f756e74206973206e6f7420657175616c20746f2070726963650000000081525060200191505060405180910390fd5b6001600660006101000a81548160ff021916908360038111156107b957fe5b02179055505050565b60058054600181600116156101000203166002900480601f0160208091040260200160405190810160405280929190818152602001828054600181600116156101000203166002900480156108585780601f1061082d57610100808354040283529160200191610858565b820191906000526020600020905b81548152906001019060200180831161083b57829003601f168201915b505050505081565b60025481565b828054600181600116156101000203166002900490600052602060002090601f016020900481019282601f106108a757805160ff19168380011785556108d5565b828001600101855582156108d5579182015b828111156108d45782518255916020019190600101906108b9565b5b5090506108e291906108e6565b5090565b61090891905b808211156109045760008160009055506001016108ec565b5090565b905600a165627a7a72305820eca3cf37f102c7ba0a545649aac8605a976b7ae612a4ea92b2ae0844e56991c20029",
  "source": "pragma solidity ^0.4.24;\r\n\r\nimport \"./Arbitrator.sol\";\r\nimport \"./Car.sol\";\r\n\r\ncontract CarShop is Arbitrator{\r\n\r\n    //convert from ether to wei\r\n    uint private WEI = 10 ** uint256(18);\r\n\r\n    //---------------------events--------------------------//\r\n    event Delete(uint vin, bool success);\r\n    event Edit(uint vin, bool success);\r\n    event Add (address owner,uint vin, bytes32 model, bool success);\r\n\r\n    event ConfirmSelling(uint vin, uint price,  bool success);\r\n\r\n    //---------------------members--------------------------//\r\n    //uint - VIN\r\n    mapping (address => mapping (uint => bool)) public carAccessibility;\r\n\r\n    //vin => index\r\n    mapping(uint => uint) public carIndex;\r\n\r\n    //vin => amount\r\n    mapping(address => mapping (uint => uint)) buyer;\r\n\r\n    // all  history chain of the car\r\n    mapping (uint => Car []) public carLogger;\r\n    //car list\r\n    Car [] public carsArr;\r\n\r\n    // reward which is allowed to be withdrawn by shop.\r\n    uint public rewardAllowed;\r\n\r\n    //---------------------functions--------------------------//\r\n\r\n    function getContractBalance() external view returns (uint balance){\r\n        return address(this).balance;\r\n    }\r\n\r\n    function getNumberOfCars() external view returns(uint index){\r\n        return carsArr.length;\r\n    }\r\n\r\n    function createCar(address owner, uint vin, bytes32 model, uint year, uint price, string image) private{\r\n\r\n        Car car = new Car( owner,vin, model, year, price, false, image );\r\n        carsArr.push(car);\r\n\r\n        //create a copy in order to track a full car history.Expensive\r\n        //carLogger[vin].push(new Car( owner,vin, model, year, price, false, image ));\r\n\r\n        carIndex [vin] = carsArr.length;\r\n        carAccessibility[owner][vin] = true;\r\n    }\r\n\r\n    constructor( )   public {\r\n        createCar(msg.sender, 0, \"Honda\", 2008, 1 * WEI,\"Qmf3AUrvvcKDroLsqwSxxCKni1TAdqNNMj7fHUuxsn1uWy\");\r\n        //createCar(msg.sender, 1, \"BMW\",   2010, 2 * WEI,\"\");\r\n        //createCar(msg.sender, 2, \"Merc\",  2012, 3 * WEI);\r\n    }\r\n\r\n    function deleteCar(uint vin) public isOwnerVinAvailability(msg.sender, vin) {\r\n\r\n        uint index = getCarIndex(vin);\r\n\r\n        for(uint i = index; i < carsArr.length - 1; ++i){\r\n            carsArr[i] = carsArr[i+1];\r\n            //update car index respectively\r\n            carIndex[carsArr[i].vin()]--;\r\n        }\r\n\r\n        delete carsArr[carsArr.length-1];\r\n        carsArr.length--;\r\n\r\n        delete carIndex[vin];\r\n\r\n        emit Delete(vin, true);\r\n    }\r\n\r\n    function editCar(uint vin, bytes32 model, uint year, uint price, string  image) external isOwnerVinAvailability(msg.sender, vin)  {\r\n\r\n        Car car = carsArr[ getCarIndex(vin)];\r\n\r\n        car.edit( model, year, price * WEI, image);\r\n\r\n        //create a copy in order to track a full car history.Expensive\r\n       // carLogger[vin].push(new Car( msg.sender,vin, model, year, price * WEI, false, image ));\r\n\r\n        emit Edit(vin, true);\r\n    }\r\n\r\n    function addCar(uint vin, bytes32 model, uint year, uint price, string image) external {\r\n\r\n        createCar(msg.sender, vin, model, year, price * WEI, image);\r\n\r\n        emit Add (msg.sender,vin, model,  true);\r\n    }\r\n\r\n    function buy(uint vin) external payable {\r\n\r\n        Car car = carsArr[ getCarIndex(vin)];\r\n\r\n        require(!car.sold(),\"car is already sold\");\r\n\r\n        car.buy(msg.value);\r\n\r\n        buyer[msg.sender][vin] = msg.value;\r\n    }\r\n\r\n    function sendDelivery(uint vin)  external isOwnerVinAvailability(msg.sender, vin){\r\n\r\n        Car car = carsArr[ getCarIndex(vin)];\r\n\r\n        car.sendDelivery();\r\n    }\r\n\r\n    function confirmDelivery(uint vin) external isBuyerAvailability(msg.sender, vin){\r\n        Car car = carsArr[ getCarIndex(vin)];\r\n\r\n        delete buyer[msg.sender][vin];\r\n\r\n        //company takes 10 percent for service :)\r\n        uint companyReward = car.price() * 10 / 100;\r\n        //send money to seller\r\n        car.owner().transfer(car.price() - companyReward);\r\n\r\n        //change owner\r\n        car.confirmDelivery(msg.sender);\r\n\r\n        rewardAllowed += companyReward;\r\n\r\n        //create a copy in order to track a full car history.Expensive\r\n        carLogger[vin].push(new Car( msg.sender,vin, car.model(), car.year(), car.price(), true, car.image_hash() ));\r\n\r\n        emit ConfirmSelling(vin, car.price(), true);\r\n    }\r\n\r\n    function withdrawAllReward() public onlyOwner{\r\n        require(rewardAllowed > 0, \"reward is empty\");\r\n\r\n        msg.sender.transfer(rewardAllowed);\r\n        rewardAllowed = 0;\r\n    }\r\n\r\n    function getCarByVin( uint _vin) external view isVINAvailability(_vin)\r\n    returns (  address  owner, uint vin, uint year, uint price, bytes32 model,bool sold,\r\n        string image, Car.State state, uint timestamp ){\r\n\r\n        Car car = carsArr[ getCarIndex(_vin)];\r\n\r\n        return (car.owner(), car.vin(),car.year(),car.price(),\r\n        car.model(), car.sold(), car.image_hash(),\r\n        car.state(), car.timestamp());\r\n    }\r\n\r\n    function getCarByIndex(uint index) external view\r\n    returns ( address  owner, uint vin, uint year, uint price, bytes32 model,bool sold,\r\n        string image, Car.State state, uint timestamp ){\r\n        require(index < carsArr.length, \"index is out of range\");\r\n\r\n        Car car = carsArr[index];\r\n\r\n        return (car.owner(), car.vin(),car.year(),car.price(),\r\n        car.model(), car.sold(), car.image_hash(),\r\n        car.state(), car.timestamp());\r\n    }\r\n\r\n    function getHistoryLogCarLength(uint _vin) external view isVINAvailability(_vin) returns( uint length){\r\n        return carLogger[_vin].length;\r\n    }\r\n\r\n    function getHistoryLogCar(uint _vin, uint _idx) external view isCarLoggerVINAvailability(_vin)\r\n    returns ( address  owner, uint vin, uint year, uint price, bytes32 model,bool sold,\r\n        string image, Car.State state, uint timestamp ){\r\n\r\n        //use storage to save gas\r\n        Car  [] storage carArray  = carLogger[_vin];\r\n\r\n        require(_idx < carArray.length,\"out of range\");\r\n\r\n        Car car = carArray[_idx];\r\n\r\n        return (car.owner(), car.vin(),car.year(),car.price(),\r\n        car.model(), car.sold(), car.image_hash(),\r\n        car.state(), car.timestamp());\r\n    }\r\n\r\n\r\n    function getCarIndex(uint vin) private view returns(uint){\r\n        require(0 < carIndex[vin] && carIndex[vin] - 1 < carsArr.length , \"not valid car's vin \");\r\n        return carIndex[vin] - 1; // on purpose to have a correct index\r\n    }\r\n\r\n\r\n    modifier isOwnerVinAvailability(address sender, uint vin) {\r\n        require(carAccessibility[sender][vin] || arbitrator == sender, \"no car found by address/vin\");\r\n        _;\r\n    }\r\n\r\n    modifier isBuyerAvailability(address sender, uint _vin) {\r\n        require(0 < buyer[sender][_vin] || arbitrator == sender, \"no bayer found by address/vin\");\r\n        _;\r\n    }\r\n\r\n    modifier isVINAvailability( uint vin) {\r\n        require(0 < carIndex[vin], \"no car found by vin\");\r\n        _;\r\n    }\r\n\r\n    modifier isCarLoggerVINAvailability( uint vin) {\r\n        require(0 < carLogger[vin].length, \"no car logger found by vin\");\r\n        _;\r\n    }\r\n}",
  "sourcePath": "D:\\programming\\blockchain\\ethereum\\car_shop\\contracts\\CarShop.sol",
  "compiler": {
    "name": "solc",
    "version": "0.4.25+commit.59dbf8f1.Emscripten.clang"
  },
  "schemaVersion": "2.0.2",
  "updatedAt": "2019-07-22T08:27:24.018Z"
}